{
  "contractName": "HealthCare",
  "abi": [
    {
      "inputs": [],
      "payable": false,
      "stateMutability": "nonpayable",
      "type": "constructor"
    },
    {
      "constant": true,
      "inputs": [],
      "name": "admin",
      "outputs": [
        {
          "internalType": "address",
          "name": "",
          "type": "address"
        }
      ],
      "payable": false,
      "stateMutability": "view",
      "type": "function"
    },
    {
      "constant": true,
      "inputs": [],
      "name": "appointmentCount",
      "outputs": [
        {
          "internalType": "uint256",
          "name": "",
          "type": "uint256"
        }
      ],
      "payable": false,
      "stateMutability": "view",
      "type": "function"
    },
    {
      "constant": true,
      "inputs": [
        {
          "internalType": "uint256",
          "name": "",
          "type": "uint256"
        }
      ],
      "name": "appointments",
      "outputs": [
        {
          "internalType": "uint256",
          "name": "id",
          "type": "uint256"
        },
        {
          "internalType": "uint256",
          "name": "patientid",
          "type": "uint256"
        },
        {
          "internalType": "uint256",
          "name": "doctorid",
          "type": "uint256"
        },
        {
          "internalType": "string",
          "name": "date",
          "type": "string"
        },
        {
          "internalType": "string",
          "name": "time",
          "type": "string"
        }
      ],
      "payable": false,
      "stateMutability": "view",
      "type": "function"
    },
    {
      "constant": true,
      "inputs": [],
      "name": "doctorCount",
      "outputs": [
        {
          "internalType": "uint256",
          "name": "",
          "type": "uint256"
        }
      ],
      "payable": false,
      "stateMutability": "view",
      "type": "function"
    },
    {
      "constant": true,
      "inputs": [
        {
          "internalType": "uint256",
          "name": "",
          "type": "uint256"
        }
      ],
      "name": "doctors",
      "outputs": [
        {
          "internalType": "uint256",
          "name": "id",
          "type": "uint256"
        },
        {
          "internalType": "address",
          "name": "addr",
          "type": "address"
        },
        {
          "internalType": "string",
          "name": "name",
          "type": "string"
        },
        {
          "internalType": "uint256",
          "name": "hospitalid",
          "type": "uint256"
        },
        {
          "internalType": "string",
          "name": "regId",
          "type": "string"
        },
        {
          "internalType": "string",
          "name": "_approved",
          "type": "string"
        },
        {
          "internalType": "string",
          "name": "extrafields",
          "type": "string"
        }
      ],
      "payable": false,
      "stateMutability": "view",
      "type": "function"
    },
    {
      "constant": true,
      "inputs": [],
      "name": "fileSharingCount",
      "outputs": [
        {
          "internalType": "uint256",
          "name": "",
          "type": "uint256"
        }
      ],
      "payable": false,
      "stateMutability": "view",
      "type": "function"
    },
    {
      "constant": true,
      "inputs": [
        {
          "internalType": "uint256",
          "name": "",
          "type": "uint256"
        }
      ],
      "name": "filesharings",
      "outputs": [
        {
          "internalType": "uint256",
          "name": "id",
          "type": "uint256"
        },
        {
          "internalType": "uint256",
          "name": "patientid",
          "type": "uint256"
        },
        {
          "internalType": "uint256",
          "name": "doctorid",
          "type": "uint256"
        },
        {
          "internalType": "string",
          "name": "filehash",
          "type": "string"
        }
      ],
      "payable": false,
      "stateMutability": "view",
      "type": "function"
    },
    {
      "constant": true,
      "inputs": [],
      "name": "hospitalCount",
      "outputs": [
        {
          "internalType": "uint256",
          "name": "",
          "type": "uint256"
        }
      ],
      "payable": false,
      "stateMutability": "view",
      "type": "function"
    },
    {
      "constant": true,
      "inputs": [
        {
          "internalType": "uint256",
          "name": "",
          "type": "uint256"
        }
      ],
      "name": "hospitals",
      "outputs": [
        {
          "internalType": "uint256",
          "name": "id",
          "type": "uint256"
        },
        {
          "internalType": "address",
          "name": "addr",
          "type": "address"
        },
        {
          "internalType": "string",
          "name": "name",
          "type": "string"
        },
        {
          "internalType": "string",
          "name": "regId",
          "type": "string"
        },
        {
          "internalType": "string",
          "name": "description",
          "type": "string"
        },
        {
          "internalType": "string",
          "name": "_approved",
          "type": "string"
        },
        {
          "internalType": "string",
          "name": "extrafields",
          "type": "string"
        }
      ],
      "payable": false,
      "stateMutability": "view",
      "type": "function"
    },
    {
      "constant": true,
      "inputs": [],
      "name": "insuranceCount",
      "outputs": [
        {
          "internalType": "uint256",
          "name": "",
          "type": "uint256"
        }
      ],
      "payable": false,
      "stateMutability": "view",
      "type": "function"
    },
    {
      "constant": true,
      "inputs": [
        {
          "internalType": "uint256",
          "name": "",
          "type": "uint256"
        }
      ],
      "name": "insuranceproviders",
      "outputs": [
        {
          "internalType": "uint256",
          "name": "id",
          "type": "uint256"
        },
        {
          "internalType": "address",
          "name": "addr",
          "type": "address"
        },
        {
          "internalType": "string",
          "name": "name",
          "type": "string"
        },
        {
          "internalType": "string",
          "name": "regId",
          "type": "string"
        },
        {
          "internalType": "string",
          "name": "_approved",
          "type": "string"
        },
        {
          "internalType": "string",
          "name": "extrafields",
          "type": "string"
        }
      ],
      "payable": false,
      "stateMutability": "view",
      "type": "function"
    },
    {
      "constant": true,
      "inputs": [],
      "name": "patientCount",
      "outputs": [
        {
          "internalType": "uint256",
          "name": "",
          "type": "uint256"
        }
      ],
      "payable": false,
      "stateMutability": "view",
      "type": "function"
    },
    {
      "constant": true,
      "inputs": [
        {
          "internalType": "uint256",
          "name": "",
          "type": "uint256"
        }
      ],
      "name": "patients",
      "outputs": [
        {
          "internalType": "uint256",
          "name": "id",
          "type": "uint256"
        },
        {
          "internalType": "address",
          "name": "addr",
          "type": "address"
        },
        {
          "internalType": "string",
          "name": "name",
          "type": "string"
        },
        {
          "internalType": "uint256",
          "name": "insuranceProviderid",
          "type": "uint256"
        },
        {
          "internalType": "uint256",
          "name": "familyDoctorid",
          "type": "uint256"
        },
        {
          "internalType": "string",
          "name": "_approved",
          "type": "string"
        },
        {
          "internalType": "string",
          "name": "extrafields",
          "type": "string"
        },
        {
          "internalType": "string",
          "name": "filehashes",
          "type": "string"
        }
      ],
      "payable": false,
      "stateMutability": "view",
      "type": "function"
    },
    {
      "constant": true,
      "inputs": [
        {
          "internalType": "address",
          "name": "",
          "type": "address"
        }
      ],
      "name": "roles",
      "outputs": [
        {
          "internalType": "string",
          "name": "",
          "type": "string"
        }
      ],
      "payable": false,
      "stateMutability": "view",
      "type": "function"
    },
    {
      "constant": false,
      "inputs": [
        {
          "internalType": "string",
          "name": "_name",
          "type": "string"
        },
        {
          "internalType": "string",
          "name": "_regId",
          "type": "string"
        },
        {
          "internalType": "string",
          "name": "_description",
          "type": "string"
        },
        {
          "internalType": "string",
          "name": "_approved",
          "type": "string"
        },
        {
          "internalType": "string",
          "name": "_extrafields",
          "type": "string"
        }
      ],
      "name": "registerHospital",
      "outputs": [],
      "payable": false,
      "stateMutability": "nonpayable",
      "type": "function"
    },
    {
      "constant": false,
      "inputs": [
        {
          "internalType": "uint256",
          "name": "id",
          "type": "uint256"
        },
        {
          "internalType": "string",
          "name": "_name",
          "type": "string"
        },
        {
          "internalType": "string",
          "name": "_regId",
          "type": "string"
        },
        {
          "internalType": "string",
          "name": "_description",
          "type": "string"
        },
        {
          "internalType": "string",
          "name": "_approved",
          "type": "string"
        },
        {
          "internalType": "string",
          "name": "_extrafields",
          "type": "string"
        }
      ],
      "name": "updateHospital",
      "outputs": [],
      "payable": false,
      "stateMutability": "nonpayable",
      "type": "function"
    },
    {
      "constant": false,
      "inputs": [
        {
          "internalType": "string",
          "name": "_name",
          "type": "string"
        },
        {
          "internalType": "uint256",
          "name": "_hospitalId",
          "type": "uint256"
        },
        {
          "internalType": "string",
          "name": "_regId",
          "type": "string"
        },
        {
          "internalType": "string",
          "name": "_approved",
          "type": "string"
        },
        {
          "internalType": "string",
          "name": "_extrafields",
          "type": "string"
        }
      ],
      "name": "registerDoctor",
      "outputs": [],
      "payable": false,
      "stateMutability": "nonpayable",
      "type": "function"
    },
    {
      "constant": false,
      "inputs": [
        {
          "internalType": "uint256",
          "name": "id",
          "type": "uint256"
        },
        {
          "internalType": "string",
          "name": "_name",
          "type": "string"
        },
        {
          "internalType": "uint256",
          "name": "_hospitalId",
          "type": "uint256"
        },
        {
          "internalType": "string",
          "name": "_regId",
          "type": "string"
        },
        {
          "internalType": "string",
          "name": "_approved",
          "type": "string"
        },
        {
          "internalType": "string",
          "name": "_extrafields",
          "type": "string"
        }
      ],
      "name": "updaterDoctor",
      "outputs": [],
      "payable": false,
      "stateMutability": "nonpayable",
      "type": "function"
    },
    {
      "constant": false,
      "inputs": [
        {
          "internalType": "string",
          "name": "_name",
          "type": "string"
        },
        {
          "internalType": "uint256",
          "name": "_insuranceProviderId",
          "type": "uint256"
        },
        {
          "internalType": "uint256",
          "name": "_familyDoctorId",
          "type": "uint256"
        },
        {
          "internalType": "string",
          "name": "_approved",
          "type": "string"
        },
        {
          "internalType": "string",
          "name": "_extrafields",
          "type": "string"
        },
        {
          "internalType": "string",
          "name": "_filehashes",
          "type": "string"
        }
      ],
      "name": "registerPatient",
      "outputs": [],
      "payable": false,
      "stateMutability": "nonpayable",
      "type": "function"
    },
    {
      "constant": false,
      "inputs": [
        {
          "internalType": "uint256",
          "name": "id",
          "type": "uint256"
        },
        {
          "internalType": "string",
          "name": "_name",
          "type": "string"
        },
        {
          "internalType": "uint256",
          "name": "_insuranceProviderId",
          "type": "uint256"
        },
        {
          "internalType": "uint256",
          "name": "_familyDoctorId",
          "type": "uint256"
        },
        {
          "internalType": "string",
          "name": "_approved",
          "type": "string"
        },
        {
          "internalType": "string",
          "name": "_extrafields",
          "type": "string"
        }
      ],
      "name": "updatePatient",
      "outputs": [],
      "payable": false,
      "stateMutability": "nonpayable",
      "type": "function"
    },
    {
      "constant": false,
      "inputs": [
        {
          "internalType": "string",
          "name": "_name",
          "type": "string"
        },
        {
          "internalType": "string",
          "name": "_regId",
          "type": "string"
        },
        {
          "internalType": "string",
          "name": "_approved",
          "type": "string"
        },
        {
          "internalType": "string",
          "name": "_extrafields",
          "type": "string"
        }
      ],
      "name": "registerInsuranceProvider",
      "outputs": [],
      "payable": false,
      "stateMutability": "nonpayable",
      "type": "function"
    },
    {
      "constant": false,
      "inputs": [
        {
          "internalType": "uint256",
          "name": "id",
          "type": "uint256"
        },
        {
          "internalType": "string",
          "name": "_name",
          "type": "string"
        },
        {
          "internalType": "string",
          "name": "_regId",
          "type": "string"
        },
        {
          "internalType": "string",
          "name": "_approved",
          "type": "string"
        },
        {
          "internalType": "string",
          "name": "_extrafields",
          "type": "string"
        }
      ],
      "name": "updateInsuranceProvider",
      "outputs": [],
      "payable": false,
      "stateMutability": "nonpayable",
      "type": "function"
    },
    {
      "constant": false,
      "inputs": [
        {
          "internalType": "uint256",
          "name": "_patientid",
          "type": "uint256"
        },
        {
          "internalType": "uint256",
          "name": "_doctorid",
          "type": "uint256"
        },
        {
          "internalType": "string",
          "name": "_date",
          "type": "string"
        },
        {
          "internalType": "string",
          "name": "_time",
          "type": "string"
        }
      ],
      "name": "addAppointment",
      "outputs": [],
      "payable": false,
      "stateMutability": "nonpayable",
      "type": "function"
    },
    {
      "constant": false,
      "inputs": [
        {
          "internalType": "uint256",
          "name": "_patientid",
          "type": "uint256"
        },
        {
          "internalType": "uint256",
          "name": "_doctorid",
          "type": "uint256"
        },
        {
          "internalType": "string",
          "name": "_filehash",
          "type": "string"
        }
      ],
      "name": "addFileSharing",
      "outputs": [],
      "payable": false,
      "stateMutability": "nonpayable",
      "type": "function"
    }
  ],
  "bytecode": "0x608060405260006001556000600255600060035560006004556000600555600060065534801561002e57600080fd5b5033600760006101000a81548173ffffffffffffffffffffffffffffffffffffffff021916908373ffffffffffffffffffffffffffffffffffffffff16021790555061451c8061007f6000396000f3fe608060405234801561001057600080fd5b50600436106101585760003560e01c806388708845116100c3578063df500af11161007c578063df500af114611d09578063eebc3fb214611f93578063f253543114611fb1578063f41d3edd14611fcf578063f851a440146122f0578063f9ca9d341461233a57610158565b8063887088451461148657806393119a83146116ab57806399374642146118de578063a0303c411461199b578063b18bd12c146119b9578063b48c699914611c4d57610158565b8063350dadb711610115578063350dadb714610ce5578063521a6e9414610d035780636efb1b8414610d21578063727acf8a14610f4d57806378522bc4146111d757806381dc6fd2146111f557610158565b806312dc90131461015d578063130567491461028557806316a409e6146103545780631c905352146105e85780631d0f81681461074e578063283fed0e14610a65575b600080fd5b6101896004803603602081101561017357600080fd5b8101908080359060200190929190505050612541565b604051808681526020018581526020018481526020018060200180602001838103835285818151815260200191508051906020019080838360005b838110156101df5780820151818401526020810190506101c4565b50505050905090810190601f16801561020c5780820380516001836020036101000a031916815260200191505b50838103825284818151815260200191508051906020019080838360005b8381101561024557808201518184015260208101905061022a565b50505050905090810190601f1680156102725780820380516001836020036101000a031916815260200191505b5097505050505050505060405180910390f35b6103526004803603606081101561029b57600080fd5b810190808035906020019092919080359060200190929190803590602001906401000000008111156102cc57600080fd5b8201836020820111156102de57600080fd5b8035906020019184600183028401116401000000008311171561030057600080fd5b91908080601f016020809104026020016040519081016040528093929190818152602001838380828437600081840152601f19601f8201169050808301925050505050505091929192905050506126a7565b005b6105e6600480360360c081101561036a57600080fd5b81019080803590602001909291908035906020019064010000000081111561039157600080fd5b8201836020820111156103a357600080fd5b803590602001918460018302840111640100000000831117156103c557600080fd5b91908080601f016020809104026020016040519081016040528093929190818152602001838380828437600081840152601f19601f820116905080830192505050505050509192919290803590602001909291908035906020019064010000000081111561043257600080fd5b82018360208201111561044457600080fd5b8035906020019184600183028401116401000000008311171561046657600080fd5b91908080601f016020809104026020016040519081016040528093929190818152602001838380828437600081840152601f19601f820116905080830192505050505050509192919290803590602001906401000000008111156104c957600080fd5b8201836020820111156104db57600080fd5b803590602001918460018302840111640100000000831117156104fd57600080fd5b91908080601f016020809104026020016040519081016040528093929190818152602001838380828437600081840152601f19601f8201169050808301925050505050505091929192908035906020019064010000000081111561056057600080fd5b82018360208201111561057257600080fd5b8035906020019184600183028401116401000000008311171561059457600080fd5b91908080601f016020809104026020016040519081016040528093929190818152602001838380828437600081840152601f19601f820116905080830192505050505050509192919290505050612734565b005b61074c600480360360808110156105fe57600080fd5b8101908080359060200190929190803590602001909291908035906020019064010000000081111561062f57600080fd5b82018360208201111561064157600080fd5b8035906020019184600183028401116401000000008311171561066357600080fd5b91908080601f016020809104026020016040519081016040528093929190818152602001838380828437600081840152601f19601f820116905080830192505050505050509192919290803590602001906401000000008111156106c657600080fd5b8201836020820111156106d857600080fd5b803590602001918460018302840111640100000000831117156106fa57600080fd5b91908080601f016020809104026020016040519081016040528093929190818152602001838380828437600081840152601f19601f82011690508083019250505050505050919291929050505061286a565b005b610a63600480360360a081101561076457600080fd5b810190808035906020019064010000000081111561078157600080fd5b82018360208201111561079357600080fd5b803590602001918460018302840111640100000000831117156107b557600080fd5b91908080601f016020809104026020016040519081016040528093929190818152602001838380828437600081840152601f19601f8201169050808301925050505050505091929192908035906020019064010000000081111561081857600080fd5b82018360208201111561082a57600080fd5b8035906020019184600183028401116401000000008311171561084c57600080fd5b91908080601f016020809104026020016040519081016040528093929190818152602001838380828437600081840152601f19601f820116905080830192505050505050509192919290803590602001906401000000008111156108af57600080fd5b8201836020820111156108c157600080fd5b803590602001918460018302840111640100000000831117156108e357600080fd5b91908080601f016020809104026020016040519081016040528093929190818152602001838380828437600081840152601f19601f8201169050808301925050505050505091929192908035906020019064010000000081111561094657600080fd5b82018360208201111561095857600080fd5b8035906020019184600183028401116401000000008311171561097a57600080fd5b91908080601f016020809104026020016040519081016040528093929190818152602001838380828437600081840152601f19601f820116905080830192505050505050509192919290803590602001906401000000008111156109dd57600080fd5b8201836020820111156109ef57600080fd5b80359060200191846001830284011164010000000083111715610a1157600080fd5b91908080601f016020809104026020016040519081016040528093929190818152602001838380828437600081840152601f19601f82011690508083019250505050505050919291929050505061291b565b005b610ce360048036036080811015610a7b57600080fd5b8101908080359060200190640100000000811115610a9857600080fd5b820183602082011115610aaa57600080fd5b80359060200191846001830284011164010000000083111715610acc57600080fd5b91908080601f016020809104026020016040519081016040528093929190818152602001838380828437600081840152601f19601f82011690508083019250505050505050919291929080359060200190640100000000811115610b2f57600080fd5b820183602082011115610b4157600080fd5b80359060200191846001830284011164010000000083111715610b6357600080fd5b91908080601f016020809104026020016040519081016040528093929190818152602001838380828437600081840152601f19601f82011690508083019250505050505050919291929080359060200190640100000000811115610bc657600080fd5b820183602082011115610bd857600080fd5b80359060200191846001830284011164010000000083111715610bfa57600080fd5b91908080601f016020809104026020016040519081016040528093929190818152602001838380828437600081840152601f19601f82011690508083019250505050505050919291929080359060200190640100000000811115610c5d57600080fd5b820183602082011115610c6f57600080fd5b80359060200191846001830284011164010000000083111715610c9157600080fd5b91908080601f016020809104026020016040519081016040528093929190818152602001838380828437600081840152601f19601f820116905080830192505050505050509192919290505050612b60565b005b610ced612d81565b6040518082815260200191505060405180910390f35b610d0b612d87565b6040518082815260200191505060405180910390f35b610d4d60048036036020811015610d3757600080fd5b8101908080359060200190929190505050612d8d565b604051808881526020018773ffffffffffffffffffffffffffffffffffffffff1673ffffffffffffffffffffffffffffffffffffffff1681526020018060200186815260200180602001806020018060200185810385528a818151815260200191508051906020019080838360005b83811015610dd7578082015181840152602081019050610dbc565b50505050905090810190601f168015610e045780820380516001836020036101000a031916815260200191505b50858103845288818151815260200191508051906020019080838360005b83811015610e3d578082015181840152602081019050610e22565b50505050905090810190601f168015610e6a5780820380516001836020036101000a031916815260200191505b50858103835287818151815260200191508051906020019080838360005b83811015610ea3578082015181840152602081019050610e88565b50505050905090810190601f168015610ed05780820380516001836020036101000a031916815260200191505b50858103825286818151815260200191508051906020019080838360005b83811015610f09578082015181840152602081019050610eee565b50505050905090810190601f168015610f365780820380516001836020036101000a031916815260200191505b509b50505050505050505050505060405180910390f35b6111d5600480360360a0811015610f6357600080fd5b8101908080359060200190640100000000811115610f8057600080fd5b820183602082011115610f9257600080fd5b80359060200191846001830284011164010000000083111715610fb457600080fd5b91908080601f016020809104026020016040519081016040528093929190818152602001838380828437600081840152601f19601f820116905080830192505050505050509192919290803590602001909291908035906020019064010000000081111561102157600080fd5b82018360208201111561103357600080fd5b8035906020019184600183028401116401000000008311171561105557600080fd5b91908080601f016020809104026020016040519081016040528093929190818152602001838380828437600081840152601f19601f820116905080830192505050505050509192919290803590602001906401000000008111156110b857600080fd5b8201836020820111156110ca57600080fd5b803590602001918460018302840111640100000000831117156110ec57600080fd5b91908080601f016020809104026020016040519081016040528093929190818152602001838380828437600081840152601f19601f8201169050808301925050505050505091929192908035906020019064010000000081111561114f57600080fd5b82018360208201111561116157600080fd5b8035906020019184600183028401116401000000008311171561118357600080fd5b91908080601f016020809104026020016040519081016040528093929190818152602001838380828437600081840152601f19601f82011690508083019250505050505050919291929050505061304f565b005b6111df613281565b6040518082815260200191505060405180910390f35b6112216004803603602081101561120b57600080fd5b8101908080359060200190929190505050613287565b604051808881526020018773ffffffffffffffffffffffffffffffffffffffff1673ffffffffffffffffffffffffffffffffffffffff168152602001806020018060200180602001806020018060200186810386528b818151815260200191508051906020019080838360005b838110156112a957808201518184015260208101905061128e565b50505050905090810190601f1680156112d65780820380516001836020036101000a031916815260200191505b5086810385528a818151815260200191508051906020019080838360005b8381101561130f5780820151818401526020810190506112f4565b50505050905090810190601f16801561133c5780820380516001836020036101000a031916815260200191505b50868103845289818151815260200191508051906020019080838360005b8381101561137557808201518184015260208101905061135a565b50505050905090810190601f1680156113a25780820380516001836020036101000a031916815260200191505b50868103835288818151815260200191508051906020019080838360005b838110156113db5780820151818401526020810190506113c0565b50505050905090810190601f1680156114085780820380516001836020036101000a031916815260200191505b50868103825287818151815260200191508051906020019080838360005b83811015611441578082015181840152602081019050611426565b50505050905090810190601f16801561146e5780820380516001836020036101000a031916815260200191505b509c5050505050505050505050505060405180910390f35b6114b26004803603602081101561149c57600080fd5b81019080803590602001909291905050506135e1565b604051808781526020018673ffffffffffffffffffffffffffffffffffffffff1673ffffffffffffffffffffffffffffffffffffffff16815260200180602001806020018060200180602001858103855289818151815260200191508051906020019080838360005b8381101561153657808201518184015260208101905061151b565b50505050905090810190601f1680156115635780820380516001836020036101000a031916815260200191505b50858103845288818151815260200191508051906020019080838360005b8381101561159c578082015181840152602081019050611581565b50505050905090810190601f1680156115c95780820380516001836020036101000a031916815260200191505b50858103835287818151815260200191508051906020019080838360005b838110156116025780820151818401526020810190506115e7565b50505050905090810190601f16801561162f5780820380516001836020036101000a031916815260200191505b50858103825286818151815260200191508051906020019080838360005b8381101561166857808201518184015260208101905061164d565b50505050905090810190601f1680156116955780820380516001836020036101000a031916815260200191505b509a505050505050505050505060405180910390f35b6116d7600480360360208110156116c157600080fd5b810190808035906020019092919050505061389d565b604051808981526020018873ffffffffffffffffffffffffffffffffffffffff1673ffffffffffffffffffffffffffffffffffffffff1681526020018060200187815260200186815260200180602001806020018060200185810385528b818151815260200191508051906020019080838360005b8381101561176757808201518184015260208101905061174c565b50505050905090810190601f1680156117945780820380516001836020036101000a031916815260200191505b50858103845288818151815260200191508051906020019080838360005b838110156117cd5780820151818401526020810190506117b2565b50505050905090810190601f1680156117fa5780820380516001836020036101000a031916815260200191505b50858103835287818151815260200191508051906020019080838360005b83811015611833578082015181840152602081019050611818565b50505050905090810190601f1680156118605780820380516001836020036101000a031916815260200191505b50858103825286818151815260200191508051906020019080838360005b8381101561189957808201518184015260208101905061187e565b50505050905090810190601f1680156118c65780820380516001836020036101000a031916815260200191505b509c5050505050505050505050505060405180910390f35b611920600480360360208110156118f457600080fd5b81019080803573ffffffffffffffffffffffffffffffffffffffff169060200190929190505050613b65565b6040518080602001828103825283818151815260200191508051906020019080838360005b83811015611960578082015181840152602081019050611945565b50505050905090810190601f16801561198d5780820380516001836020036101000a031916815260200191505b509250505060405180910390f35b6119a3613c15565b6040518082815260200191505060405180910390f35b611c4b600480360360c08110156119cf57600080fd5b81019080803590602001906401000000008111156119ec57600080fd5b8201836020820111156119fe57600080fd5b80359060200191846001830284011164010000000083111715611a2057600080fd5b91908080601f016020809104026020016040519081016040528093929190818152602001838380828437600081840152601f19601f820116905080830192505050505050509192919290803590602001909291908035906020019092919080359060200190640100000000811115611a9757600080fd5b820183602082011115611aa957600080fd5b80359060200191846001830284011164010000000083111715611acb57600080fd5b91908080601f016020809104026020016040519081016040528093929190818152602001838380828437600081840152601f19601f82011690508083019250505050505050919291929080359060200190640100000000811115611b2e57600080fd5b820183602082011115611b4057600080fd5b80359060200191846001830284011164010000000083111715611b6257600080fd5b91908080601f016020809104026020016040519081016040528093929190818152602001838380828437600081840152601f19601f82011690508083019250505050505050919291929080359060200190640100000000811115611bc557600080fd5b820183602082011115611bd757600080fd5b80359060200191846001830284011164010000000083111715611bf957600080fd5b91908080601f016020809104026020016040519081016040528093929190818152602001838380828437600081840152601f19601f820116905080830192505050505050509192919290505050613c1b565b005b611c7960048036036020811015611c6357600080fd5b8101908080359060200190929190505050613e5f565b6040518085815260200184815260200183815260200180602001828103825283818151815260200191508051906020019080838360005b83811015611ccb578082015181840152602081019050611cb0565b50505050905090810190601f168015611cf85780820380516001836020036101000a031916815260200191505b509550505050505060405180910390f35b611f91600480360360a0811015611d1f57600080fd5b810190808035906020019092919080359060200190640100000000811115611d4657600080fd5b820183602082011115611d5857600080fd5b80359060200191846001830284011164010000000083111715611d7a57600080fd5b91908080601f016020809104026020016040519081016040528093929190818152602001838380828437600081840152601f19601f82011690508083019250505050505050919291929080359060200190640100000000811115611ddd57600080fd5b820183602082011115611def57600080fd5b80359060200191846001830284011164010000000083111715611e1157600080fd5b91908080601f016020809104026020016040519081016040528093929190818152602001838380828437600081840152601f19601f82011690508083019250505050505050919291929080359060200190640100000000811115611e7457600080fd5b820183602082011115611e8657600080fd5b80359060200191846001830284011164010000000083111715611ea857600080fd5b91908080601f016020809104026020016040519081016040528093929190818152602001838380828437600081840152601f19601f82011690508083019250505050505050919291929080359060200190640100000000811115611f0b57600080fd5b820183602082011115611f1d57600080fd5b80359060200191846001830284011164010000000083111715611f3f57600080fd5b91908080601f016020809104026020016040519081016040528093929190818152602001838380828437600081840152601f19601f820116905080830192505050505050509192919290505050613f27565b005b611f9b61404c565b6040518082815260200191505060405180910390f35b611fb9614052565b6040518082815260200191505060405180910390f35b6122ee600480360360c0811015611fe557600080fd5b81019080803590602001909291908035906020019064010000000081111561200c57600080fd5b82018360208201111561201e57600080fd5b8035906020019184600183028401116401000000008311171561204057600080fd5b91908080601f016020809104026020016040519081016040528093929190818152602001838380828437600081840152601f19601f820116905080830192505050505050509192919290803590602001906401000000008111156120a357600080fd5b8201836020820111156120b557600080fd5b803590602001918460018302840111640100000000831117156120d757600080fd5b91908080601f016020809104026020016040519081016040528093929190818152602001838380828437600081840152601f19601f8201169050808301925050505050505091929192908035906020019064010000000081111561213a57600080fd5b82018360208201111561214c57600080fd5b8035906020019184600183028401116401000000008311171561216e57600080fd5b91908080601f016020809104026020016040519081016040528093929190818152602001838380828437600081840152601f19601f820116905080830192505050505050509192919290803590602001906401000000008111156121d157600080fd5b8201836020820111156121e357600080fd5b8035906020019184600183028401116401000000008311171561220557600080fd5b91908080601f016020809104026020016040519081016040528093929190818152602001838380828437600081840152601f19601f8201169050808301925050505050505091929192908035906020019064010000000081111561226857600080fd5b82018360208201111561227a57600080fd5b8035906020019184600183028401116401000000008311171561229c57600080fd5b91908080601f016020809104026020016040519081016040528093929190818152602001838380828437600081840152601f19601f820116905080830192505050505050509192919290505050614058565b005b6122f86141a1565b604051808273ffffffffffffffffffffffffffffffffffffffff1673ffffffffffffffffffffffffffffffffffffffff16815260200191505060405180910390f35b61253f600480360360c081101561235057600080fd5b81019080803590602001909291908035906020019064010000000081111561237757600080fd5b82018360208201111561238957600080fd5b803590602001918460018302840111640100000000831117156123ab57600080fd5b91908080601f016020809104026020016040519081016040528093929190818152602001838380828437600081840152601f19601f82011690508083019250505050505050919291929080359060200190929190803590602001909291908035906020019064010000000081111561242257600080fd5b82018360208201111561243457600080fd5b8035906020019184600183028401116401000000008311171561245657600080fd5b91908080601f016020809104026020016040519081016040528093929190818152602001838380828437600081840152601f19601f820116905080830192505050505050509192919290803590602001906401000000008111156124b957600080fd5b8201836020820111156124cb57600080fd5b803590602001918460018302840111640100000000831117156124ed57600080fd5b91908080601f016020809104026020016040519081016040528093929190818152602001838380828437600081840152601f19601f8201169050808301925050505050505091929192905050506141c7565b005b600c602052806000526040600020600091509050806000015490806001015490806002015490806003018054600181600116156101000203166002900480601f0160208091040260200160405190810160405280929190818152602001828054600181600116156101000203166002900480156125ff5780601f106125d4576101008083540402835291602001916125ff565b820191906000526020600020905b8154815290600101906020018083116125e257829003601f168201915b505050505090806004018054600181600116156101000203166002900480601f01602080910402602001604051908101604052809291908181526020018280546001816001161561010002031660029004801561269d5780601f106126725761010080835404028352916020019161269d565b820191906000526020600020905b81548152906001019060200180831161268057829003601f168201915b5050505050905085565b6006600081548092919060010191905055506040518060800160405280600654815260200184815260200183815260200182815250600d60006006548152602001908152602001600020600082015181600001556020820151816001015560408201518160020155606082015181600301908051906020019061272b9291906143c2565b50905050505050565b6040518060e001604052808781526020013373ffffffffffffffffffffffffffffffffffffffff16815260200186815260200185815260200184815260200183815260200182815250600960008881526020019081526020016000206000820151816000015560208201518160010160006101000a81548173ffffffffffffffffffffffffffffffffffffffff021916908373ffffffffffffffffffffffffffffffffffffffff16021790555060408201518160020190805190602001906127fd9291906143c2565b506060820151816003015560808201518160040190805190602001906128249291906143c2565b5060a08201518160050190805190602001906128419291906143c2565b5060c082015181600601908051906020019061285e9291906143c2565b50905050505050505050565b6005600081548092919060010191905055506040518060a00160405280600554815260200185815260200184815260200183815260200182815250600c6000600554815260200190815260200160002060008201518160000155602082015181600101556040820151816002015560608201518160030190805190602001906128f49291906143c2565b5060808201518160040190805190602001906129119291906143c2565b5090505050505050565b60008060003373ffffffffffffffffffffffffffffffffffffffff1673ffffffffffffffffffffffffffffffffffffffff1681526020019081526020016000208054600181600116156101000203166002900490501461297a57600080fd5b6001600081548092919060010191905055506040518060e0016040528060015481526020013373ffffffffffffffffffffffffffffffffffffffff168152602001868152602001858152602001848152602001838152602001828152506008600060015481526020019081526020016000206000820151816000015560208201518160010160006101000a81548173ffffffffffffffffffffffffffffffffffffffff021916908373ffffffffffffffffffffffffffffffffffffffff1602179055506040820151816002019080519060200190612a599291906143c2565b506060820151816003019080519060200190612a769291906143c2565b506080820151816004019080519060200190612a939291906143c2565b5060a0820151816005019080519060200190612ab09291906143c2565b5060c0820151816006019080519060200190612acd9291906143c2565b509050506040518060400160405280600181526020017f31000000000000000000000000000000000000000000000000000000000000008152506000803373ffffffffffffffffffffffffffffffffffffffff1673ffffffffffffffffffffffffffffffffffffffff1681526020019081526020016000209080519060200190612b58929190614442565b505050505050565b60008060003373ffffffffffffffffffffffffffffffffffffffff1673ffffffffffffffffffffffffffffffffffffffff16815260200190815260200160002080546001816001161561010002031660029004905014612bbf57600080fd5b6003600081548092919060010191905055506040518060c0016040528060035481526020013373ffffffffffffffffffffffffffffffffffffffff16815260200185815260200184815260200183815260200182815250600a600060035481526020019081526020016000206000820151816000015560208201518160010160006101000a81548173ffffffffffffffffffffffffffffffffffffffff021916908373ffffffffffffffffffffffffffffffffffffffff1602179055506040820151816002019080519060200190612c989291906143c2565b506060820151816003019080519060200190612cb59291906143c2565b506080820151816004019080519060200190612cd29291906143c2565b5060a0820151816005019080519060200190612cef9291906143c2565b509050506040518060400160405280600181526020017f34000000000000000000000000000000000000000000000000000000000000008152506000803373ffffffffffffffffffffffffffffffffffffffff1673ffffffffffffffffffffffffffffffffffffffff1681526020019081526020016000209080519060200190612d7a929190614442565b5050505050565b60015481565b60035481565b60096020528060005260406000206000915090508060000154908060010160009054906101000a900473ffffffffffffffffffffffffffffffffffffffff1690806002018054600181600116156101000203166002900480601f016020809104026020016040519081016040528092919081815260200182805460018160011615610100020316600290048015612e655780601f10612e3a57610100808354040283529160200191612e65565b820191906000526020600020905b815481529060010190602001808311612e4857829003601f168201915b505050505090806003015490806004018054600181600116156101000203166002900480601f016020809104026020016040519081016040528092919081815260200182805460018160011615610100020316600290048015612f095780601f10612ede57610100808354040283529160200191612f09565b820191906000526020600020905b815481529060010190602001808311612eec57829003601f168201915b505050505090806005018054600181600116156101000203166002900480601f016020809104026020016040519081016040528092919081815260200182805460018160011615610100020316600290048015612fa75780601f10612f7c57610100808354040283529160200191612fa7565b820191906000526020600020905b815481529060010190602001808311612f8a57829003601f168201915b505050505090806006018054600181600116156101000203166002900480601f0160208091040260200160405190810160405280929190818152602001828054600181600116156101000203166002900480156130455780601f1061301a57610100808354040283529160200191613045565b820191906000526020600020905b81548152906001019060200180831161302857829003601f168201915b5050505050905087565b60008060003373ffffffffffffffffffffffffffffffffffffffff1673ffffffffffffffffffffffffffffffffffffffff168152602001908152602001600020805460018160011615610100020316600290049050146130ae57600080fd5b6002600081548092919060010191905055506040518060e0016040528060025481526020013373ffffffffffffffffffffffffffffffffffffffff168152602001868152602001858152602001848152602001838152602001828152506009600060025481526020019081526020016000206000820151816000015560208201518160010160006101000a81548173ffffffffffffffffffffffffffffffffffffffff021916908373ffffffffffffffffffffffffffffffffffffffff160217905550604082015181600201908051906020019061318d9291906143c2565b506060820151816003015560808201518160040190805190602001906131b49291906143c2565b5060a08201518160050190805190602001906131d19291906143c2565b5060c08201518160060190805190602001906131ee9291906143c2565b509050506040518060400160405280600181526020017f32000000000000000000000000000000000000000000000000000000000000008152506000803373ffffffffffffffffffffffffffffffffffffffff1673ffffffffffffffffffffffffffffffffffffffff1681526020019081526020016000209080519060200190613279929190614442565b505050505050565b60025481565b60086020528060005260406000206000915090508060000154908060010160009054906101000a900473ffffffffffffffffffffffffffffffffffffffff1690806002018054600181600116156101000203166002900480601f01602080910402602001604051908101604052809291908181526020018280546001816001161561010002031660029004801561335f5780601f106133345761010080835404028352916020019161335f565b820191906000526020600020905b81548152906001019060200180831161334257829003601f168201915b505050505090806003018054600181600116156101000203166002900480601f0160208091040260200160405190810160405280929190818152602001828054600181600116156101000203166002900480156133fd5780601f106133d2576101008083540402835291602001916133fd565b820191906000526020600020905b8154815290600101906020018083116133e057829003601f168201915b505050505090806004018054600181600116156101000203166002900480601f01602080910402602001604051908101604052809291908181526020018280546001816001161561010002031660029004801561349b5780601f106134705761010080835404028352916020019161349b565b820191906000526020600020905b81548152906001019060200180831161347e57829003601f168201915b505050505090806005018054600181600116156101000203166002900480601f0160208091040260200160405190810160405280929190818152602001828054600181600116156101000203166002900480156135395780601f1061350e57610100808354040283529160200191613539565b820191906000526020600020905b81548152906001019060200180831161351c57829003601f168201915b505050505090806006018054600181600116156101000203166002900480601f0160208091040260200160405190810160405280929190818152602001828054600181600116156101000203166002900480156135d75780601f106135ac576101008083540402835291602001916135d7565b820191906000526020600020905b8154815290600101906020018083116135ba57829003601f168201915b5050505050905087565b600a6020528060005260406000206000915090508060000154908060010160009054906101000a900473ffffffffffffffffffffffffffffffffffffffff1690806002018054600181600116156101000203166002900480601f0160208091040260200160405190810160405280929190818152602001828054600181600116156101000203166002900480156136b95780601f1061368e576101008083540402835291602001916136b9565b820191906000526020600020905b81548152906001019060200180831161369c57829003601f168201915b505050505090806003018054600181600116156101000203166002900480601f0160208091040260200160405190810160405280929190818152602001828054600181600116156101000203166002900480156137575780601f1061372c57610100808354040283529160200191613757565b820191906000526020600020905b81548152906001019060200180831161373a57829003601f168201915b505050505090806004018054600181600116156101000203166002900480601f0160208091040260200160405190810160405280929190818152602001828054600181600116156101000203166002900480156137f55780601f106137ca576101008083540402835291602001916137f5565b820191906000526020600020905b8154815290600101906020018083116137d857829003601f168201915b505050505090806005018054600181600116156101000203166002900480601f0160208091040260200160405190810160405280929190818152602001828054600181600116156101000203166002900480156138935780601f1061386857610100808354040283529160200191613893565b820191906000526020600020905b81548152906001019060200180831161387657829003601f168201915b5050505050905086565b600b6020528060005260406000206000915090508060000154908060010160009054906101000a900473ffffffffffffffffffffffffffffffffffffffff1690806002018054600181600116156101000203166002900480601f0160208091040260200160405190810160405280929190818152602001828054600181600116156101000203166002900480156139755780601f1061394a57610100808354040283529160200191613975565b820191906000526020600020905b81548152906001019060200180831161395857829003601f168201915b505050505090806003015490806004015490806005018054600181600116156101000203166002900480601f016020809104026020016040519081016040528092919081815260200182805460018160011615610100020316600290048015613a1f5780601f106139f457610100808354040283529160200191613a1f565b820191906000526020600020905b815481529060010190602001808311613a0257829003601f168201915b505050505090806006018054600181600116156101000203166002900480601f016020809104026020016040519081016040528092919081815260200182805460018160011615610100020316600290048015613abd5780601f10613a9257610100808354040283529160200191613abd565b820191906000526020600020905b815481529060010190602001808311613aa057829003601f168201915b505050505090806007018054600181600116156101000203166002900480601f016020809104026020016040519081016040528092919081815260200182805460018160011615610100020316600290048015613b5b5780601f10613b3057610100808354040283529160200191613b5b565b820191906000526020600020905b815481529060010190602001808311613b3e57829003601f168201915b5050505050905088565b60006020528060005260406000206000915090508054600181600116156101000203166002900480601f016020809104026020016040519081016040528092919081815260200182805460018160011615610100020316600290048015613c0d5780601f10613be257610100808354040283529160200191613c0d565b820191906000526020600020905b815481529060010190602001808311613bf057829003601f168201915b505050505081565b60045481565b60008060003373ffffffffffffffffffffffffffffffffffffffff1673ffffffffffffffffffffffffffffffffffffffff16815260200190815260200160002080546001816001161561010002031660029004905014613c7a57600080fd5b60046000815480929190600101919050555060405180610100016040528060045481526020013373ffffffffffffffffffffffffffffffffffffffff16815260200187815260200186815260200185815260200184815260200183815260200182815250600b600060045481526020019081526020016000206000820151816000015560208201518160010160006101000a81548173ffffffffffffffffffffffffffffffffffffffff021916908373ffffffffffffffffffffffffffffffffffffffff1602179055506040820151816002019080519060200190613d609291906143c2565b50606082015181600301556080820151816004015560a0820151816005019080519060200190613d919291906143c2565b5060c0820151816006019080519060200190613dae9291906143c2565b5060e0820151816007019080519060200190613dcb9291906143c2565b509050506040518060400160405280600181526020017f33000000000000000000000000000000000000000000000000000000000000008152506000803373ffffffffffffffffffffffffffffffffffffffff1673ffffffffffffffffffffffffffffffffffffffff1681526020019081526020016000209080519060200190613e56929190614442565b50505050505050565b600d602052806000526040600020600091509050806000015490806001015490806002015490806003018054600181600116156101000203166002900480601f016020809104026020016040519081016040528092919081815260200182805460018160011615610100020316600290048015613f1d5780601f10613ef257610100808354040283529160200191613f1d565b820191906000526020600020905b815481529060010190602001808311613f0057829003601f168201915b5050505050905084565b6040518060c001604052808681526020013373ffffffffffffffffffffffffffffffffffffffff16815260200185815260200184815260200183815260200182815250600a60008781526020019081526020016000206000820151816000015560208201518160010160006101000a81548173ffffffffffffffffffffffffffffffffffffffff021916908373ffffffffffffffffffffffffffffffffffffffff1602179055506040820151816002019080519060200190613fea9291906143c2565b5060608201518160030190805190602001906140079291906143c2565b5060808201518160040190805190602001906140249291906143c2565b5060a08201518160050190805190602001906140419291906143c2565b509050505050505050565b60055481565b60065481565b6040518060e001604052808781526020013373ffffffffffffffffffffffffffffffffffffffff16815260200186815260200185815260200184815260200183815260200182815250600860008881526020019081526020016000206000820151816000015560208201518160010160006101000a81548173ffffffffffffffffffffffffffffffffffffffff021916908373ffffffffffffffffffffffffffffffffffffffff16021790555060408201518160020190805190602001906141219291906143c2565b50606082015181600301908051906020019061413e9291906143c2565b50608082015181600401908051906020019061415b9291906143c2565b5060a08201518160050190805190602001906141789291906143c2565b5060c08201518160060190805190602001906141959291906143c2565b50905050505050505050565b600760009054906101000a900473ffffffffffffffffffffffffffffffffffffffff1681565b6060600b60008881526020019081526020016000206007018054600181600116156101000203166002900480601f0160208091040260200160405190810160405280929190818152602001828054600181600116156101000203166002900480156142735780601f1061424857610100808354040283529160200191614273565b820191906000526020600020905b81548152906001019060200180831161425657829003601f168201915b505050505090506040518061010001604052808881526020013373ffffffffffffffffffffffffffffffffffffffff16815260200187815260200186815260200185815260200184815260200183815260200182815250600b60008981526020019081526020016000206000820151816000015560208201518160010160006101000a81548173ffffffffffffffffffffffffffffffffffffffff021916908373ffffffffffffffffffffffffffffffffffffffff160217905550604082015181600201908051906020019061434a9291906143c2565b50606082015181600301556080820151816004015560a082015181600501908051906020019061437b9291906143c2565b5060c08201518160060190805190602001906143989291906143c2565b5060e08201518160070190805190602001906143b59291906143c2565b5090505050505050505050565b828054600181600116156101000203166002900490600052602060002090601f016020900481019282601f1061440357805160ff1916838001178555614431565b82800160010185558215614431579182015b82811115614430578251825591602001919060010190614415565b5b50905061443e91906144c2565b5090565b828054600181600116156101000203166002900490600052602060002090601f016020900481019282601f1061448357805160ff19168380011785556144b1565b828001600101855582156144b1579182015b828111156144b0578251825591602001919060010190614495565b5b5090506144be91906144c2565b5090565b6144e491905b808211156144e05760008160009055506001016144c8565b5090565b9056fea265627a7a72315820b7da388271eba41d3f9b78c79ccd15c3cd7cb647791fd925b9ed838386977c3e64736f6c63430005100032",
  "source": "\r\npragma solidity >=0.4.22 <0.8.0;\r\ncontract HealthCare { \r\n  mapping(address => string) public roles; \r\n  uint public hospitalCount = 0;\r\n  uint public doctorCount = 0;\r\n  uint public insuranceCount = 0;\r\n  uint public patientCount = 0;\r\n  uint public appointmentCount = 0;\r\n  uint public fileSharingCount = 0;\r\n  address public admin; \r\n  struct Hospital {\r\n    uint id;\r\n    address addr;\r\n    string name;\r\n    string regId;    \r\n    string description;\r\n    string _approved;\r\n    string extrafields;\r\n  }\r\n  mapping(uint => Hospital) public hospitals;\r\n  struct Doctor {\r\n    uint id;\r\n    address addr;\r\n    string name;\r\n    uint hospitalid;\r\n    string regId;   \r\n    string _approved;\r\n    string extrafields;\r\n  }\r\n  mapping(uint => Doctor) public doctors;\r\n  struct InsuranceProvider {\r\n    uint id;\r\n    address addr;\r\n    string name;    \r\n    string regId;   \r\n    string _approved;\r\n    string extrafields;\r\n  }\r\n  mapping(uint => InsuranceProvider) public insuranceproviders ;\r\n  struct Patient {\r\n    uint id;\r\n    address addr;\r\n    string name;    \r\n    uint insuranceProviderid;   \r\n    uint familyDoctorid; \r\n    string _approved;\r\n    string extrafields;\r\n    string filehashes;\r\n  }\r\n  mapping(uint => Patient) public patients;\r\n  struct Appointment {\r\n    uint id;       \r\n    uint patientid;   \r\n    uint doctorid;     \r\n    string date; \r\n    string time;   \r\n  }\r\n  mapping(uint => Appointment) public appointments;\r\n  struct FileSharing {\r\n    uint id;       \r\n    uint patientid;   \r\n    uint doctorid;     \r\n    string filehash;      \r\n  }\r\n  mapping(uint => FileSharing) public filesharings;\r\n  constructor() public {  \r\n    admin=msg.sender;    \r\n  }\r\n  function registerHospital (string memory _name,string memory _regId,string memory _description,string memory _approved,string memory _extrafields) public {\r\n        require(bytes(roles[msg.sender]).length==0);\r\n        hospitalCount ++;\r\n        hospitals[hospitalCount] = Hospital(hospitalCount,msg.sender,_name,_regId,_description,_approved,_extrafields);    \r\n        roles[msg.sender]=\"1\";   \r\n        //emit registeredEvent(msg.sender);\r\n    } \r\n     function updateHospital (uint id,string memory _name,string memory _regId,string memory _description,string memory _approved,string memory _extrafields) public {       \r\n        hospitals[id] = Hospital(id,msg.sender,_name,_regId,_description,_approved,_extrafields);    \r\n    } \r\n  function registerDoctor (string memory _name,uint _hospitalId,string memory _regId,string memory _approved,string memory _extrafields) public {\r\n        require(bytes(roles[msg.sender]).length==0);\r\n        doctorCount ++;\r\n        doctors[doctorCount] = Doctor(doctorCount,msg.sender,_name,_hospitalId,_regId,_approved,_extrafields);    \r\n        roles[msg.sender]=\"2\";   \r\n        //emit registeredEvent(msg.sender);\r\n    } \r\n    function updaterDoctor (uint id,string memory _name,uint _hospitalId,string memory _regId,string memory _approved,string memory _extrafields) public {\r\n        doctors[id] = Doctor(id,msg.sender,_name,_hospitalId,_regId,_approved,_extrafields);   \r\n    } \r\n     function registerPatient (string memory _name,uint _insuranceProviderId,uint _familyDoctorId,string memory _approved,string memory _extrafields,string memory _filehashes) public {\r\n        require(bytes(roles[msg.sender]).length==0);\r\n        patientCount ++;\r\n        patients[patientCount] = Patient(patientCount,msg.sender,_name,_insuranceProviderId,_familyDoctorId,_approved,_extrafields,_filehashes);    \r\n        roles[msg.sender]=\"3\";   \r\n        //emit registeredEvent(msg.sender);\r\n    } \r\n    function updatePatient (uint id,string memory _name,uint _insuranceProviderId,uint _familyDoctorId,string memory _approved,string memory _extrafields) public {\r\n        string memory _filehashes=patients[id].filehashes;\r\n        patients[id] = Patient(id,msg.sender,_name,_insuranceProviderId,_familyDoctorId,_approved,_extrafields,_filehashes);    \r\n    } \r\n    function registerInsuranceProvider (string memory _name,string memory _regId,string memory _approved,string memory _extrafields) public {\r\n        require(bytes(roles[msg.sender]).length==0);\r\n        insuranceCount ++;\r\n        insuranceproviders[insuranceCount] = InsuranceProvider(insuranceCount,msg.sender,_name,_regId,_approved,_extrafields);    \r\n        roles[msg.sender]=\"4\";   \r\n        //emit registeredEvent(msg.sender);\r\n    } \r\n    function updateInsuranceProvider (uint id,string memory _name,string memory _regId,string memory _approved,string memory _extrafields) public {\r\n        insuranceproviders[id] = InsuranceProvider(id,msg.sender,_name,_regId,_approved,_extrafields);\r\n    } \r\n    function addAppointment (uint _patientid,uint _doctorid,string memory _date,string memory _time ) public {\r\n        //require(bytes(roles[msg.sender]).length==0);\r\n        appointmentCount ++;\r\n        appointments[appointmentCount] = Appointment(appointmentCount,_patientid,_doctorid,_date,_time);    \r\n        \r\n        //emit registeredEvent(msg.sender);\r\n    } \r\n    function addFileSharing (uint _patientid,uint _doctorid,string memory _filehash ) public {\r\n        //require(bytes(roles[msg.sender]).length==0);\r\n        fileSharingCount ++;\r\n        filesharings[fileSharingCount] = FileSharing(fileSharingCount,_patientid,_doctorid,_filehash);    \r\n        \r\n        //emit registeredEvent(msg.sender);\r\n    } \r\n\r\n}\r\n",
  "sourcePath": "F:/SharanBlockchain/contracts/HealthCare.sol",
  "compiler": {
    "name": "solc",
    "version": "0.5.16+commit.9c3226ce.Emscripten.clang"
  },
  "schemaVersion": "3.3.3",
  "updatedAt": "2021-03-03T17:25:33.047Z",
  "networkType": "ethereum",
  "devdoc": {
    "methods": {}
  },
  "userdoc": {
    "methods": {}
  }
}