{
  "contractName": "HealthCare",
  "abi": [
    {
      "inputs": [],
      "payable": false,
      "stateMutability": "nonpayable",
      "type": "constructor"
    },
    {
      "constant": true,
      "inputs": [],
      "name": "admin",
      "outputs": [
        {
          "internalType": "address",
          "name": "",
          "type": "address"
        }
      ],
      "payable": false,
      "stateMutability": "view",
      "type": "function"
    },
    {
      "constant": true,
      "inputs": [],
      "name": "appointmentCount",
      "outputs": [
        {
          "internalType": "uint256",
          "name": "",
          "type": "uint256"
        }
      ],
      "payable": false,
      "stateMutability": "view",
      "type": "function"
    },
    {
      "constant": true,
      "inputs": [
        {
          "internalType": "uint256",
          "name": "",
          "type": "uint256"
        }
      ],
      "name": "appointments",
      "outputs": [
        {
          "internalType": "uint256",
          "name": "id",
          "type": "uint256"
        },
        {
          "internalType": "uint256",
          "name": "patientid",
          "type": "uint256"
        },
        {
          "internalType": "uint256",
          "name": "doctorid",
          "type": "uint256"
        },
        {
          "internalType": "string",
          "name": "date",
          "type": "string"
        },
        {
          "internalType": "string",
          "name": "time",
          "type": "string"
        }
      ],
      "payable": false,
      "stateMutability": "view",
      "type": "function"
    },
    {
      "constant": true,
      "inputs": [],
      "name": "doctorCount",
      "outputs": [
        {
          "internalType": "uint256",
          "name": "",
          "type": "uint256"
        }
      ],
      "payable": false,
      "stateMutability": "view",
      "type": "function"
    },
    {
      "constant": true,
      "inputs": [
        {
          "internalType": "uint256",
          "name": "",
          "type": "uint256"
        }
      ],
      "name": "doctors",
      "outputs": [
        {
          "internalType": "uint256",
          "name": "id",
          "type": "uint256"
        },
        {
          "internalType": "address",
          "name": "addr",
          "type": "address"
        },
        {
          "internalType": "string",
          "name": "name",
          "type": "string"
        },
        {
          "internalType": "uint256",
          "name": "hospitalid",
          "type": "uint256"
        },
        {
          "internalType": "string",
          "name": "regId",
          "type": "string"
        },
        {
          "internalType": "string",
          "name": "_approved",
          "type": "string"
        },
        {
          "internalType": "string",
          "name": "extrafields",
          "type": "string"
        }
      ],
      "payable": false,
      "stateMutability": "view",
      "type": "function"
    },
    {
      "constant": true,
      "inputs": [],
      "name": "fileSharingCount",
      "outputs": [
        {
          "internalType": "uint256",
          "name": "",
          "type": "uint256"
        }
      ],
      "payable": false,
      "stateMutability": "view",
      "type": "function"
    },
    {
      "constant": true,
      "inputs": [
        {
          "internalType": "uint256",
          "name": "",
          "type": "uint256"
        }
      ],
      "name": "filesharings",
      "outputs": [
        {
          "internalType": "uint256",
          "name": "id",
          "type": "uint256"
        },
        {
          "internalType": "uint256",
          "name": "patientid",
          "type": "uint256"
        },
        {
          "internalType": "uint256",
          "name": "doctorid",
          "type": "uint256"
        },
        {
          "internalType": "string",
          "name": "filehash",
          "type": "string"
        }
      ],
      "payable": false,
      "stateMutability": "view",
      "type": "function"
    },
    {
      "constant": true,
      "inputs": [],
      "name": "hospitalCount",
      "outputs": [
        {
          "internalType": "uint256",
          "name": "",
          "type": "uint256"
        }
      ],
      "payable": false,
      "stateMutability": "view",
      "type": "function"
    },
    {
      "constant": true,
      "inputs": [
        {
          "internalType": "uint256",
          "name": "",
          "type": "uint256"
        }
      ],
      "name": "hospitals",
      "outputs": [
        {
          "internalType": "uint256",
          "name": "id",
          "type": "uint256"
        },
        {
          "internalType": "address",
          "name": "addr",
          "type": "address"
        },
        {
          "internalType": "string",
          "name": "name",
          "type": "string"
        },
        {
          "internalType": "string",
          "name": "regId",
          "type": "string"
        },
        {
          "internalType": "string",
          "name": "description",
          "type": "string"
        },
        {
          "internalType": "string",
          "name": "_approved",
          "type": "string"
        },
        {
          "internalType": "string",
          "name": "extrafields",
          "type": "string"
        }
      ],
      "payable": false,
      "stateMutability": "view",
      "type": "function"
    },
    {
      "constant": true,
      "inputs": [],
      "name": "insuranceCount",
      "outputs": [
        {
          "internalType": "uint256",
          "name": "",
          "type": "uint256"
        }
      ],
      "payable": false,
      "stateMutability": "view",
      "type": "function"
    },
    {
      "constant": true,
      "inputs": [
        {
          "internalType": "uint256",
          "name": "",
          "type": "uint256"
        }
      ],
      "name": "insuranceproviders",
      "outputs": [
        {
          "internalType": "uint256",
          "name": "id",
          "type": "uint256"
        },
        {
          "internalType": "address",
          "name": "addr",
          "type": "address"
        },
        {
          "internalType": "string",
          "name": "name",
          "type": "string"
        },
        {
          "internalType": "string",
          "name": "regId",
          "type": "string"
        },
        {
          "internalType": "string",
          "name": "_approved",
          "type": "string"
        },
        {
          "internalType": "string",
          "name": "extrafields",
          "type": "string"
        }
      ],
      "payable": false,
      "stateMutability": "view",
      "type": "function"
    },
    {
      "constant": true,
      "inputs": [],
      "name": "patientCount",
      "outputs": [
        {
          "internalType": "uint256",
          "name": "",
          "type": "uint256"
        }
      ],
      "payable": false,
      "stateMutability": "view",
      "type": "function"
    },
    {
      "constant": true,
      "inputs": [
        {
          "internalType": "uint256",
          "name": "",
          "type": "uint256"
        }
      ],
      "name": "patients",
      "outputs": [
        {
          "internalType": "uint256",
          "name": "id",
          "type": "uint256"
        },
        {
          "internalType": "address",
          "name": "addr",
          "type": "address"
        },
        {
          "internalType": "string",
          "name": "name",
          "type": "string"
        },
        {
          "internalType": "uint256",
          "name": "insuranceProviderid",
          "type": "uint256"
        },
        {
          "internalType": "uint256",
          "name": "familyDoctorid",
          "type": "uint256"
        },
        {
          "internalType": "string",
          "name": "_approved",
          "type": "string"
        },
        {
          "internalType": "string",
          "name": "extrafields",
          "type": "string"
        },
        {
          "internalType": "string",
          "name": "filehashes",
          "type": "string"
        }
      ],
      "payable": false,
      "stateMutability": "view",
      "type": "function"
    },
    {
      "constant": true,
      "inputs": [
        {
          "internalType": "address",
          "name": "",
          "type": "address"
        }
      ],
      "name": "roles",
      "outputs": [
        {
          "internalType": "string",
          "name": "",
          "type": "string"
        }
      ],
      "payable": false,
      "stateMutability": "view",
      "type": "function"
    },
    {
      "constant": false,
      "inputs": [
        {
          "internalType": "string",
          "name": "_name",
          "type": "string"
        },
        {
          "internalType": "string",
          "name": "_regId",
          "type": "string"
        },
        {
          "internalType": "string",
          "name": "_description",
          "type": "string"
        },
        {
          "internalType": "string",
          "name": "_approved",
          "type": "string"
        },
        {
          "internalType": "string",
          "name": "_extrafields",
          "type": "string"
        }
      ],
      "name": "registerHospital",
      "outputs": [],
      "payable": false,
      "stateMutability": "nonpayable",
      "type": "function"
    },
    {
      "constant": false,
      "inputs": [
        {
          "internalType": "uint256",
          "name": "id",
          "type": "uint256"
        },
        {
          "internalType": "string",
          "name": "_name",
          "type": "string"
        },
        {
          "internalType": "string",
          "name": "_regId",
          "type": "string"
        },
        {
          "internalType": "string",
          "name": "_description",
          "type": "string"
        },
        {
          "internalType": "string",
          "name": "_approved",
          "type": "string"
        },
        {
          "internalType": "string",
          "name": "_extrafields",
          "type": "string"
        }
      ],
      "name": "updateHospital",
      "outputs": [],
      "payable": false,
      "stateMutability": "nonpayable",
      "type": "function"
    },
    {
      "constant": false,
      "inputs": [
        {
          "internalType": "string",
          "name": "_name",
          "type": "string"
        },
        {
          "internalType": "uint256",
          "name": "_hospitalId",
          "type": "uint256"
        },
        {
          "internalType": "string",
          "name": "_regId",
          "type": "string"
        },
        {
          "internalType": "string",
          "name": "_approved",
          "type": "string"
        },
        {
          "internalType": "string",
          "name": "_extrafields",
          "type": "string"
        }
      ],
      "name": "registerDoctor",
      "outputs": [],
      "payable": false,
      "stateMutability": "nonpayable",
      "type": "function"
    },
    {
      "constant": false,
      "inputs": [
        {
          "internalType": "uint256",
          "name": "id",
          "type": "uint256"
        },
        {
          "internalType": "string",
          "name": "_name",
          "type": "string"
        },
        {
          "internalType": "uint256",
          "name": "_hospitalId",
          "type": "uint256"
        },
        {
          "internalType": "string",
          "name": "_regId",
          "type": "string"
        },
        {
          "internalType": "string",
          "name": "_approved",
          "type": "string"
        },
        {
          "internalType": "string",
          "name": "_extrafields",
          "type": "string"
        }
      ],
      "name": "updaterDoctor",
      "outputs": [],
      "payable": false,
      "stateMutability": "nonpayable",
      "type": "function"
    },
    {
      "constant": false,
      "inputs": [
        {
          "internalType": "string",
          "name": "_name",
          "type": "string"
        },
        {
          "internalType": "uint256",
          "name": "_insuranceProviderId",
          "type": "uint256"
        },
        {
          "internalType": "uint256",
          "name": "_familyDoctorId",
          "type": "uint256"
        },
        {
          "internalType": "string",
          "name": "_approved",
          "type": "string"
        },
        {
          "internalType": "string",
          "name": "_extrafields",
          "type": "string"
        },
        {
          "internalType": "string",
          "name": "_filehashes",
          "type": "string"
        }
      ],
      "name": "registerPatient",
      "outputs": [],
      "payable": false,
      "stateMutability": "nonpayable",
      "type": "function"
    },
    {
      "constant": false,
      "inputs": [
        {
          "internalType": "uint256",
          "name": "id",
          "type": "uint256"
        },
        {
          "internalType": "string",
          "name": "_name",
          "type": "string"
        },
        {
          "internalType": "uint256",
          "name": "_insuranceProviderId",
          "type": "uint256"
        },
        {
          "internalType": "uint256",
          "name": "_familyDoctorId",
          "type": "uint256"
        },
        {
          "internalType": "string",
          "name": "_approved",
          "type": "string"
        },
        {
          "internalType": "string",
          "name": "_extrafields",
          "type": "string"
        }
      ],
      "name": "updatePatient",
      "outputs": [],
      "payable": false,
      "stateMutability": "nonpayable",
      "type": "function"
    },
    {
      "constant": false,
      "inputs": [
        {
          "internalType": "uint256",
          "name": "id",
          "type": "uint256"
        },
        {
          "internalType": "string",
          "name": "_name",
          "type": "string"
        },
        {
          "internalType": "uint256",
          "name": "_insuranceProviderId",
          "type": "uint256"
        },
        {
          "internalType": "uint256",
          "name": "_familyDoctorId",
          "type": "uint256"
        },
        {
          "internalType": "string",
          "name": "_approved",
          "type": "string"
        },
        {
          "internalType": "string",
          "name": "_extrafields",
          "type": "string"
        },
        {
          "internalType": "string",
          "name": "_filehash",
          "type": "string"
        }
      ],
      "name": "updatePatientwithFiles",
      "outputs": [],
      "payable": false,
      "stateMutability": "nonpayable",
      "type": "function"
    },
    {
      "constant": false,
      "inputs": [
        {
          "internalType": "string",
          "name": "_name",
          "type": "string"
        },
        {
          "internalType": "string",
          "name": "_regId",
          "type": "string"
        },
        {
          "internalType": "string",
          "name": "_approved",
          "type": "string"
        },
        {
          "internalType": "string",
          "name": "_extrafields",
          "type": "string"
        }
      ],
      "name": "registerInsuranceProvider",
      "outputs": [],
      "payable": false,
      "stateMutability": "nonpayable",
      "type": "function"
    },
    {
      "constant": false,
      "inputs": [
        {
          "internalType": "uint256",
          "name": "id",
          "type": "uint256"
        },
        {
          "internalType": "string",
          "name": "_name",
          "type": "string"
        },
        {
          "internalType": "string",
          "name": "_regId",
          "type": "string"
        },
        {
          "internalType": "string",
          "name": "_approved",
          "type": "string"
        },
        {
          "internalType": "string",
          "name": "_extrafields",
          "type": "string"
        }
      ],
      "name": "updateInsuranceProvider",
      "outputs": [],
      "payable": false,
      "stateMutability": "nonpayable",
      "type": "function"
    },
    {
      "constant": false,
      "inputs": [
        {
          "internalType": "uint256",
          "name": "_patientid",
          "type": "uint256"
        },
        {
          "internalType": "uint256",
          "name": "_doctorid",
          "type": "uint256"
        },
        {
          "internalType": "string",
          "name": "_date",
          "type": "string"
        },
        {
          "internalType": "string",
          "name": "_time",
          "type": "string"
        }
      ],
      "name": "addAppointment",
      "outputs": [],
      "payable": false,
      "stateMutability": "nonpayable",
      "type": "function"
    },
    {
      "constant": false,
      "inputs": [
        {
          "internalType": "uint256",
          "name": "_patientid",
          "type": "uint256"
        },
        {
          "internalType": "uint256",
          "name": "_doctorid",
          "type": "uint256"
        },
        {
          "internalType": "string",
          "name": "_filehash",
          "type": "string"
        }
      ],
      "name": "addFileSharing",
      "outputs": [],
      "payable": false,
      "stateMutability": "nonpayable",
      "type": "function"
    }
  ],
  "bytecode": "0x608060405260006001556000600255600060035560006004556000600555600060065534801561002e57600080fd5b5033600760006101000a81548173ffffffffffffffffffffffffffffffffffffffff021916908373ffffffffffffffffffffffffffffffffffffffff16021790555061491d8061007f6000396000f3fe608060405234801561001057600080fd5b50600436106101735760003560e01c806381dc6fd2116100de578063b48c699911610097578063f253543111610071578063f25354311461226a578063f41d3edd14612288578063f851a440146125a9578063f9ca9d34146125f357610173565b8063b48c699914611f06578063df500af114611fc2578063eebc3fb21461224c57610173565b806381dc6fd2146114ae578063887088451461173f57806393119a83146119645780639937464214611b97578063a0303c4114611c54578063b18bd12c14611c7257610173565b8063283fed0e11610130578063283fed0e14610d1e578063350dadb714610f9e578063521a6e9414610fbc5780636efb1b8414610fda578063727acf8a1461120657806378522bc41461149057610173565b8063074944e11461017857806312dc901314610416578063130567491461053e57806316a409e61461060d5780631c905352146108a15780631d0f816814610a07575b600080fd5b610414600480360360e081101561018e57600080fd5b8101908080359060200190929190803590602001906401000000008111156101b557600080fd5b8201836020820111156101c757600080fd5b803590602001918460018302840111640100000000831117156101e957600080fd5b91908080601f016020809104026020016040519081016040528093929190818152602001838380828437600081840152601f19601f82011690508083019250505050505050919291929080359060200190929190803590602001909291908035906020019064010000000081111561026057600080fd5b82018360208201111561027257600080fd5b8035906020019184600183028401116401000000008311171561029457600080fd5b91908080601f016020809104026020016040519081016040528093929190818152602001838380828437600081840152601f19601f820116905080830192505050505050509192919290803590602001906401000000008111156102f757600080fd5b82018360208201111561030957600080fd5b8035906020019184600183028401116401000000008311171561032b57600080fd5b91908080601f016020809104026020016040519081016040528093929190818152602001838380828437600081840152601f19601f8201169050808301925050505050505091929192908035906020019064010000000081111561038e57600080fd5b8201836020820111156103a057600080fd5b803590602001918460018302840111640100000000831117156103c257600080fd5b91908080601f016020809104026020016040519081016040528093929190818152602001838380828437600081840152601f19601f8201169050808301925050505050505091929192905050506127fa565b005b6104426004803603602081101561042c57600080fd5b8101908080359060200190929190505050612942565b604051808681526020018581526020018481526020018060200180602001838103835285818151815260200191508051906020019080838360005b8381101561049857808201518184015260208101905061047d565b50505050905090810190601f1680156104c55780820380516001836020036101000a031916815260200191505b50838103825284818151815260200191508051906020019080838360005b838110156104fe5780820151818401526020810190506104e3565b50505050905090810190601f16801561052b5780820380516001836020036101000a031916815260200191505b5097505050505050505060405180910390f35b61060b6004803603606081101561055457600080fd5b8101908080359060200190929190803590602001909291908035906020019064010000000081111561058557600080fd5b82018360208201111561059757600080fd5b803590602001918460018302840111640100000000831117156105b957600080fd5b91908080601f016020809104026020016040519081016040528093929190818152602001838380828437600081840152601f19601f820116905080830192505050505050509192919290505050612aa8565b005b61089f600480360360c081101561062357600080fd5b81019080803590602001909291908035906020019064010000000081111561064a57600080fd5b82018360208201111561065c57600080fd5b8035906020019184600183028401116401000000008311171561067e57600080fd5b91908080601f016020809104026020016040519081016040528093929190818152602001838380828437600081840152601f19601f82011690508083019250505050505050919291929080359060200190929190803590602001906401000000008111156106eb57600080fd5b8201836020820111156106fd57600080fd5b8035906020019184600183028401116401000000008311171561071f57600080fd5b91908080601f016020809104026020016040519081016040528093929190818152602001838380828437600081840152601f19601f8201169050808301925050505050505091929192908035906020019064010000000081111561078257600080fd5b82018360208201111561079457600080fd5b803590602001918460018302840111640100000000831117156107b657600080fd5b91908080601f016020809104026020016040519081016040528093929190818152602001838380828437600081840152601f19601f8201169050808301925050505050505091929192908035906020019064010000000081111561081957600080fd5b82018360208201111561082b57600080fd5b8035906020019184600183028401116401000000008311171561084d57600080fd5b91908080601f016020809104026020016040519081016040528093929190818152602001838380828437600081840152601f19601f820116905080830192505050505050509192919290505050612b35565b005b610a05600480360360808110156108b757600080fd5b810190808035906020019092919080359060200190929190803590602001906401000000008111156108e857600080fd5b8201836020820111156108fa57600080fd5b8035906020019184600183028401116401000000008311171561091c57600080fd5b91908080601f016020809104026020016040519081016040528093929190818152602001838380828437600081840152601f19601f8201169050808301925050505050505091929192908035906020019064010000000081111561097f57600080fd5b82018360208201111561099157600080fd5b803590602001918460018302840111640100000000831117156109b357600080fd5b91908080601f016020809104026020016040519081016040528093929190818152602001838380828437600081840152601f19601f820116905080830192505050505050509192919290505050612c6b565b005b610d1c600480360360a0811015610a1d57600080fd5b8101908080359060200190640100000000811115610a3a57600080fd5b820183602082011115610a4c57600080fd5b80359060200191846001830284011164010000000083111715610a6e57600080fd5b91908080601f016020809104026020016040519081016040528093929190818152602001838380828437600081840152601f19601f82011690508083019250505050505050919291929080359060200190640100000000811115610ad157600080fd5b820183602082011115610ae357600080fd5b80359060200191846001830284011164010000000083111715610b0557600080fd5b91908080601f016020809104026020016040519081016040528093929190818152602001838380828437600081840152601f19601f82011690508083019250505050505050919291929080359060200190640100000000811115610b6857600080fd5b820183602082011115610b7a57600080fd5b80359060200191846001830284011164010000000083111715610b9c57600080fd5b91908080601f016020809104026020016040519081016040528093929190818152602001838380828437600081840152601f19601f82011690508083019250505050505050919291929080359060200190640100000000811115610bff57600080fd5b820183602082011115610c1157600080fd5b80359060200191846001830284011164010000000083111715610c3357600080fd5b91908080601f016020809104026020016040519081016040528093929190818152602001838380828437600081840152601f19601f82011690508083019250505050505050919291929080359060200190640100000000811115610c9657600080fd5b820183602082011115610ca857600080fd5b80359060200191846001830284011164010000000083111715610cca57600080fd5b91908080601f016020809104026020016040519081016040528093929190818152602001838380828437600081840152601f19601f820116905080830192505050505050509192919290505050612d1c565b005b610f9c60048036036080811015610d3457600080fd5b8101908080359060200190640100000000811115610d5157600080fd5b820183602082011115610d6357600080fd5b80359060200191846001830284011164010000000083111715610d8557600080fd5b91908080601f016020809104026020016040519081016040528093929190818152602001838380828437600081840152601f19601f82011690508083019250505050505050919291929080359060200190640100000000811115610de857600080fd5b820183602082011115610dfa57600080fd5b80359060200191846001830284011164010000000083111715610e1c57600080fd5b91908080601f016020809104026020016040519081016040528093929190818152602001838380828437600081840152601f19601f82011690508083019250505050505050919291929080359060200190640100000000811115610e7f57600080fd5b820183602082011115610e9157600080fd5b80359060200191846001830284011164010000000083111715610eb357600080fd5b91908080601f016020809104026020016040519081016040528093929190818152602001838380828437600081840152601f19601f82011690508083019250505050505050919291929080359060200190640100000000811115610f1657600080fd5b820183602082011115610f2857600080fd5b80359060200191846001830284011164010000000083111715610f4a57600080fd5b91908080601f016020809104026020016040519081016040528093929190818152602001838380828437600081840152601f19601f820116905080830192505050505050509192919290505050612f61565b005b610fa6613182565b6040518082815260200191505060405180910390f35b610fc4613188565b6040518082815260200191505060405180910390f35b61100660048036036020811015610ff057600080fd5b810190808035906020019092919050505061318e565b604051808881526020018773ffffffffffffffffffffffffffffffffffffffff1673ffffffffffffffffffffffffffffffffffffffff1681526020018060200186815260200180602001806020018060200185810385528a818151815260200191508051906020019080838360005b83811015611090578082015181840152602081019050611075565b50505050905090810190601f1680156110bd5780820380516001836020036101000a031916815260200191505b50858103845288818151815260200191508051906020019080838360005b838110156110f65780820151818401526020810190506110db565b50505050905090810190601f1680156111235780820380516001836020036101000a031916815260200191505b50858103835287818151815260200191508051906020019080838360005b8381101561115c578082015181840152602081019050611141565b50505050905090810190601f1680156111895780820380516001836020036101000a031916815260200191505b50858103825286818151815260200191508051906020019080838360005b838110156111c25780820151818401526020810190506111a7565b50505050905090810190601f1680156111ef5780820380516001836020036101000a031916815260200191505b509b50505050505050505050505060405180910390f35b61148e600480360360a081101561121c57600080fd5b810190808035906020019064010000000081111561123957600080fd5b82018360208201111561124b57600080fd5b8035906020019184600183028401116401000000008311171561126d57600080fd5b91908080601f016020809104026020016040519081016040528093929190818152602001838380828437600081840152601f19601f82011690508083019250505050505050919291929080359060200190929190803590602001906401000000008111156112da57600080fd5b8201836020820111156112ec57600080fd5b8035906020019184600183028401116401000000008311171561130e57600080fd5b91908080601f016020809104026020016040519081016040528093929190818152602001838380828437600081840152601f19601f8201169050808301925050505050505091929192908035906020019064010000000081111561137157600080fd5b82018360208201111561138357600080fd5b803590602001918460018302840111640100000000831117156113a557600080fd5b91908080601f016020809104026020016040519081016040528093929190818152602001838380828437600081840152601f19601f8201169050808301925050505050505091929192908035906020019064010000000081111561140857600080fd5b82018360208201111561141a57600080fd5b8035906020019184600183028401116401000000008311171561143c57600080fd5b91908080601f016020809104026020016040519081016040528093929190818152602001838380828437600081840152601f19601f820116905080830192505050505050509192919290505050613450565b005b611498613682565b6040518082815260200191505060405180910390f35b6114da600480360360208110156114c457600080fd5b8101908080359060200190929190505050613688565b604051808881526020018773ffffffffffffffffffffffffffffffffffffffff1673ffffffffffffffffffffffffffffffffffffffff168152602001806020018060200180602001806020018060200186810386528b818151815260200191508051906020019080838360005b83811015611562578082015181840152602081019050611547565b50505050905090810190601f16801561158f5780820380516001836020036101000a031916815260200191505b5086810385528a818151815260200191508051906020019080838360005b838110156115c85780820151818401526020810190506115ad565b50505050905090810190601f1680156115f55780820380516001836020036101000a031916815260200191505b50868103845289818151815260200191508051906020019080838360005b8381101561162e578082015181840152602081019050611613565b50505050905090810190601f16801561165b5780820380516001836020036101000a031916815260200191505b50868103835288818151815260200191508051906020019080838360005b83811015611694578082015181840152602081019050611679565b50505050905090810190601f1680156116c15780820380516001836020036101000a031916815260200191505b50868103825287818151815260200191508051906020019080838360005b838110156116fa5780820151818401526020810190506116df565b50505050905090810190601f1680156117275780820380516001836020036101000a031916815260200191505b509c5050505050505050505050505060405180910390f35b61176b6004803603602081101561175557600080fd5b81019080803590602001909291905050506139e2565b604051808781526020018673ffffffffffffffffffffffffffffffffffffffff1673ffffffffffffffffffffffffffffffffffffffff16815260200180602001806020018060200180602001858103855289818151815260200191508051906020019080838360005b838110156117ef5780820151818401526020810190506117d4565b50505050905090810190601f16801561181c5780820380516001836020036101000a031916815260200191505b50858103845288818151815260200191508051906020019080838360005b8381101561185557808201518184015260208101905061183a565b50505050905090810190601f1680156118825780820380516001836020036101000a031916815260200191505b50858103835287818151815260200191508051906020019080838360005b838110156118bb5780820151818401526020810190506118a0565b50505050905090810190601f1680156118e85780820380516001836020036101000a031916815260200191505b50858103825286818151815260200191508051906020019080838360005b83811015611921578082015181840152602081019050611906565b50505050905090810190601f16801561194e5780820380516001836020036101000a031916815260200191505b509a505050505050505050505060405180910390f35b6119906004803603602081101561197a57600080fd5b8101908080359060200190929190505050613c9e565b604051808981526020018873ffffffffffffffffffffffffffffffffffffffff1673ffffffffffffffffffffffffffffffffffffffff1681526020018060200187815260200186815260200180602001806020018060200185810385528b818151815260200191508051906020019080838360005b83811015611a20578082015181840152602081019050611a05565b50505050905090810190601f168015611a4d5780820380516001836020036101000a031916815260200191505b50858103845288818151815260200191508051906020019080838360005b83811015611a86578082015181840152602081019050611a6b565b50505050905090810190601f168015611ab35780820380516001836020036101000a031916815260200191505b50858103835287818151815260200191508051906020019080838360005b83811015611aec578082015181840152602081019050611ad1565b50505050905090810190601f168015611b195780820380516001836020036101000a031916815260200191505b50858103825286818151815260200191508051906020019080838360005b83811015611b52578082015181840152602081019050611b37565b50505050905090810190601f168015611b7f5780820380516001836020036101000a031916815260200191505b509c5050505050505050505050505060405180910390f35b611bd960048036036020811015611bad57600080fd5b81019080803573ffffffffffffffffffffffffffffffffffffffff169060200190929190505050613f66565b6040518080602001828103825283818151815260200191508051906020019080838360005b83811015611c19578082015181840152602081019050611bfe565b50505050905090810190601f168015611c465780820380516001836020036101000a031916815260200191505b509250505060405180910390f35b611c5c614016565b6040518082815260200191505060405180910390f35b611f04600480360360c0811015611c8857600080fd5b8101908080359060200190640100000000811115611ca557600080fd5b820183602082011115611cb757600080fd5b80359060200191846001830284011164010000000083111715611cd957600080fd5b91908080601f016020809104026020016040519081016040528093929190818152602001838380828437600081840152601f19601f820116905080830192505050505050509192919290803590602001909291908035906020019092919080359060200190640100000000811115611d5057600080fd5b820183602082011115611d6257600080fd5b80359060200191846001830284011164010000000083111715611d8457600080fd5b91908080601f016020809104026020016040519081016040528093929190818152602001838380828437600081840152601f19601f82011690508083019250505050505050919291929080359060200190640100000000811115611de757600080fd5b820183602082011115611df957600080fd5b80359060200191846001830284011164010000000083111715611e1b57600080fd5b91908080601f016020809104026020016040519081016040528093929190818152602001838380828437600081840152601f19601f82011690508083019250505050505050919291929080359060200190640100000000811115611e7e57600080fd5b820183602082011115611e9057600080fd5b80359060200191846001830284011164010000000083111715611eb257600080fd5b91908080601f016020809104026020016040519081016040528093929190818152602001838380828437600081840152601f19601f82011690508083019250505050505050919291929050505061401c565b005b611f3260048036036020811015611f1c57600080fd5b8101908080359060200190929190505050614260565b6040518085815260200184815260200183815260200180602001828103825283818151815260200191508051906020019080838360005b83811015611f84578082015181840152602081019050611f69565b50505050905090810190601f168015611fb15780820380516001836020036101000a031916815260200191505b509550505050505060405180910390f35b61224a600480360360a0811015611fd857600080fd5b810190808035906020019092919080359060200190640100000000811115611fff57600080fd5b82018360208201111561201157600080fd5b8035906020019184600183028401116401000000008311171561203357600080fd5b91908080601f016020809104026020016040519081016040528093929190818152602001838380828437600081840152601f19601f8201169050808301925050505050505091929192908035906020019064010000000081111561209657600080fd5b8201836020820111156120a857600080fd5b803590602001918460018302840111640100000000831117156120ca57600080fd5b91908080601f016020809104026020016040519081016040528093929190818152602001838380828437600081840152601f19601f8201169050808301925050505050505091929192908035906020019064010000000081111561212d57600080fd5b82018360208201111561213f57600080fd5b8035906020019184600183028401116401000000008311171561216157600080fd5b91908080601f016020809104026020016040519081016040528093929190818152602001838380828437600081840152601f19601f820116905080830192505050505050509192919290803590602001906401000000008111156121c457600080fd5b8201836020820111156121d657600080fd5b803590602001918460018302840111640100000000831117156121f857600080fd5b91908080601f016020809104026020016040519081016040528093929190818152602001838380828437600081840152601f19601f820116905080830192505050505050509192919290505050614328565b005b61225461444d565b6040518082815260200191505060405180910390f35b612272614453565b6040518082815260200191505060405180910390f35b6125a7600480360360c081101561229e57600080fd5b8101908080359060200190929190803590602001906401000000008111156122c557600080fd5b8201836020820111156122d757600080fd5b803590602001918460018302840111640100000000831117156122f957600080fd5b91908080601f016020809104026020016040519081016040528093929190818152602001838380828437600081840152601f19601f8201169050808301925050505050505091929192908035906020019064010000000081111561235c57600080fd5b82018360208201111561236e57600080fd5b8035906020019184600183028401116401000000008311171561239057600080fd5b91908080601f016020809104026020016040519081016040528093929190818152602001838380828437600081840152601f19601f820116905080830192505050505050509192919290803590602001906401000000008111156123f357600080fd5b82018360208201111561240557600080fd5b8035906020019184600183028401116401000000008311171561242757600080fd5b91908080601f016020809104026020016040519081016040528093929190818152602001838380828437600081840152601f19601f8201169050808301925050505050505091929192908035906020019064010000000081111561248a57600080fd5b82018360208201111561249c57600080fd5b803590602001918460018302840111640100000000831117156124be57600080fd5b91908080601f016020809104026020016040519081016040528093929190818152602001838380828437600081840152601f19601f8201169050808301925050505050505091929192908035906020019064010000000081111561252157600080fd5b82018360208201111561253357600080fd5b8035906020019184600183028401116401000000008311171561255557600080fd5b91908080601f016020809104026020016040519081016040528093929190818152602001838380828437600081840152601f19601f820116905080830192505050505050509192919290505050614459565b005b6125b16145a2565b604051808273ffffffffffffffffffffffffffffffffffffffff1673ffffffffffffffffffffffffffffffffffffffff16815260200191505060405180910390f35b6127f8600480360360c081101561260957600080fd5b81019080803590602001909291908035906020019064010000000081111561263057600080fd5b82018360208201111561264257600080fd5b8035906020019184600183028401116401000000008311171561266457600080fd5b91908080601f016020809104026020016040519081016040528093929190818152602001838380828437600081840152601f19601f8201169050808301925050505050505091929192908035906020019092919080359060200190929190803590602001906401000000008111156126db57600080fd5b8201836020820111156126ed57600080fd5b8035906020019184600183028401116401000000008311171561270f57600080fd5b91908080601f016020809104026020016040519081016040528093929190818152602001838380828437600081840152601f19601f8201169050808301925050505050505091929192908035906020019064010000000081111561277257600080fd5b82018360208201111561278457600080fd5b803590602001918460018302840111640100000000831117156127a657600080fd5b91908080601f016020809104026020016040519081016040528093929190818152602001838380828437600081840152601f19601f8201169050808301925050505050505091929192905050506145c8565b005b6040518061010001604052808881526020013373ffffffffffffffffffffffffffffffffffffffff16815260200187815260200186815260200185815260200184815260200183815260200182815250600b60008981526020019081526020016000206000820151816000015560208201518160010160006101000a81548173ffffffffffffffffffffffffffffffffffffffff021916908373ffffffffffffffffffffffffffffffffffffffff16021790555060408201518160020190805190602001906128ca9291906147c3565b50606082015181600301556080820151816004015560a08201518160050190805190602001906128fb9291906147c3565b5060c08201518160060190805190602001906129189291906147c3565b5060e08201518160070190805190602001906129359291906147c3565b5090505050505050505050565b600c602052806000526040600020600091509050806000015490806001015490806002015490806003018054600181600116156101000203166002900480601f016020809104026020016040519081016040528092919081815260200182805460018160011615610100020316600290048015612a005780601f106129d557610100808354040283529160200191612a00565b820191906000526020600020905b8154815290600101906020018083116129e357829003601f168201915b505050505090806004018054600181600116156101000203166002900480601f016020809104026020016040519081016040528092919081815260200182805460018160011615610100020316600290048015612a9e5780601f10612a7357610100808354040283529160200191612a9e565b820191906000526020600020905b815481529060010190602001808311612a8157829003601f168201915b5050505050905085565b6006600081548092919060010191905055506040518060800160405280600654815260200184815260200183815260200182815250600d600060065481526020019081526020016000206000820151816000015560208201518160010155604082015181600201556060820151816003019080519060200190612b2c9291906147c3565b50905050505050565b6040518060e001604052808781526020013373ffffffffffffffffffffffffffffffffffffffff16815260200186815260200185815260200184815260200183815260200182815250600960008881526020019081526020016000206000820151816000015560208201518160010160006101000a81548173ffffffffffffffffffffffffffffffffffffffff021916908373ffffffffffffffffffffffffffffffffffffffff1602179055506040820151816002019080519060200190612bfe9291906147c3565b50606082015181600301556080820151816004019080519060200190612c259291906147c3565b5060a0820151816005019080519060200190612c429291906147c3565b5060c0820151816006019080519060200190612c5f9291906147c3565b50905050505050505050565b6005600081548092919060010191905055506040518060a00160405280600554815260200185815260200184815260200183815260200182815250600c600060055481526020019081526020016000206000820151816000015560208201518160010155604082015181600201556060820151816003019080519060200190612cf59291906147c3565b506080820151816004019080519060200190612d129291906147c3565b5090505050505050565b60008060003373ffffffffffffffffffffffffffffffffffffffff1673ffffffffffffffffffffffffffffffffffffffff16815260200190815260200160002080546001816001161561010002031660029004905014612d7b57600080fd5b6001600081548092919060010191905055506040518060e0016040528060015481526020013373ffffffffffffffffffffffffffffffffffffffff168152602001868152602001858152602001848152602001838152602001828152506008600060015481526020019081526020016000206000820151816000015560208201518160010160006101000a81548173ffffffffffffffffffffffffffffffffffffffff021916908373ffffffffffffffffffffffffffffffffffffffff1602179055506040820151816002019080519060200190612e5a9291906147c3565b506060820151816003019080519060200190612e779291906147c3565b506080820151816004019080519060200190612e949291906147c3565b5060a0820151816005019080519060200190612eb19291906147c3565b5060c0820151816006019080519060200190612ece9291906147c3565b509050506040518060400160405280600181526020017f31000000000000000000000000000000000000000000000000000000000000008152506000803373ffffffffffffffffffffffffffffffffffffffff1673ffffffffffffffffffffffffffffffffffffffff1681526020019081526020016000209080519060200190612f59929190614843565b505050505050565b60008060003373ffffffffffffffffffffffffffffffffffffffff1673ffffffffffffffffffffffffffffffffffffffff16815260200190815260200160002080546001816001161561010002031660029004905014612fc057600080fd5b6003600081548092919060010191905055506040518060c0016040528060035481526020013373ffffffffffffffffffffffffffffffffffffffff16815260200185815260200184815260200183815260200182815250600a600060035481526020019081526020016000206000820151816000015560208201518160010160006101000a81548173ffffffffffffffffffffffffffffffffffffffff021916908373ffffffffffffffffffffffffffffffffffffffff16021790555060408201518160020190805190602001906130999291906147c3565b5060608201518160030190805190602001906130b69291906147c3565b5060808201518160040190805190602001906130d39291906147c3565b5060a08201518160050190805190602001906130f09291906147c3565b509050506040518060400160405280600181526020017f34000000000000000000000000000000000000000000000000000000000000008152506000803373ffffffffffffffffffffffffffffffffffffffff1673ffffffffffffffffffffffffffffffffffffffff168152602001908152602001600020908051906020019061317b929190614843565b5050505050565b60015481565b60035481565b60096020528060005260406000206000915090508060000154908060010160009054906101000a900473ffffffffffffffffffffffffffffffffffffffff1690806002018054600181600116156101000203166002900480601f0160208091040260200160405190810160405280929190818152602001828054600181600116156101000203166002900480156132665780601f1061323b57610100808354040283529160200191613266565b820191906000526020600020905b81548152906001019060200180831161324957829003601f168201915b505050505090806003015490806004018054600181600116156101000203166002900480601f01602080910402602001604051908101604052809291908181526020018280546001816001161561010002031660029004801561330a5780601f106132df5761010080835404028352916020019161330a565b820191906000526020600020905b8154815290600101906020018083116132ed57829003601f168201915b505050505090806005018054600181600116156101000203166002900480601f0160208091040260200160405190810160405280929190818152602001828054600181600116156101000203166002900480156133a85780601f1061337d576101008083540402835291602001916133a8565b820191906000526020600020905b81548152906001019060200180831161338b57829003601f168201915b505050505090806006018054600181600116156101000203166002900480601f0160208091040260200160405190810160405280929190818152602001828054600181600116156101000203166002900480156134465780601f1061341b57610100808354040283529160200191613446565b820191906000526020600020905b81548152906001019060200180831161342957829003601f168201915b5050505050905087565b60008060003373ffffffffffffffffffffffffffffffffffffffff1673ffffffffffffffffffffffffffffffffffffffff168152602001908152602001600020805460018160011615610100020316600290049050146134af57600080fd5b6002600081548092919060010191905055506040518060e0016040528060025481526020013373ffffffffffffffffffffffffffffffffffffffff168152602001868152602001858152602001848152602001838152602001828152506009600060025481526020019081526020016000206000820151816000015560208201518160010160006101000a81548173ffffffffffffffffffffffffffffffffffffffff021916908373ffffffffffffffffffffffffffffffffffffffff160217905550604082015181600201908051906020019061358e9291906147c3565b506060820151816003015560808201518160040190805190602001906135b59291906147c3565b5060a08201518160050190805190602001906135d29291906147c3565b5060c08201518160060190805190602001906135ef9291906147c3565b509050506040518060400160405280600181526020017f32000000000000000000000000000000000000000000000000000000000000008152506000803373ffffffffffffffffffffffffffffffffffffffff1673ffffffffffffffffffffffffffffffffffffffff168152602001908152602001600020908051906020019061367a929190614843565b505050505050565b60025481565b60086020528060005260406000206000915090508060000154908060010160009054906101000a900473ffffffffffffffffffffffffffffffffffffffff1690806002018054600181600116156101000203166002900480601f0160208091040260200160405190810160405280929190818152602001828054600181600116156101000203166002900480156137605780601f1061373557610100808354040283529160200191613760565b820191906000526020600020905b81548152906001019060200180831161374357829003601f168201915b505050505090806003018054600181600116156101000203166002900480601f0160208091040260200160405190810160405280929190818152602001828054600181600116156101000203166002900480156137fe5780601f106137d3576101008083540402835291602001916137fe565b820191906000526020600020905b8154815290600101906020018083116137e157829003601f168201915b505050505090806004018054600181600116156101000203166002900480601f01602080910402602001604051908101604052809291908181526020018280546001816001161561010002031660029004801561389c5780601f106138715761010080835404028352916020019161389c565b820191906000526020600020905b81548152906001019060200180831161387f57829003601f168201915b505050505090806005018054600181600116156101000203166002900480601f01602080910402602001604051908101604052809291908181526020018280546001816001161561010002031660029004801561393a5780601f1061390f5761010080835404028352916020019161393a565b820191906000526020600020905b81548152906001019060200180831161391d57829003601f168201915b505050505090806006018054600181600116156101000203166002900480601f0160208091040260200160405190810160405280929190818152602001828054600181600116156101000203166002900480156139d85780601f106139ad576101008083540402835291602001916139d8565b820191906000526020600020905b8154815290600101906020018083116139bb57829003601f168201915b5050505050905087565b600a6020528060005260406000206000915090508060000154908060010160009054906101000a900473ffffffffffffffffffffffffffffffffffffffff1690806002018054600181600116156101000203166002900480601f016020809104026020016040519081016040528092919081815260200182805460018160011615610100020316600290048015613aba5780601f10613a8f57610100808354040283529160200191613aba565b820191906000526020600020905b815481529060010190602001808311613a9d57829003601f168201915b505050505090806003018054600181600116156101000203166002900480601f016020809104026020016040519081016040528092919081815260200182805460018160011615610100020316600290048015613b585780601f10613b2d57610100808354040283529160200191613b58565b820191906000526020600020905b815481529060010190602001808311613b3b57829003601f168201915b505050505090806004018054600181600116156101000203166002900480601f016020809104026020016040519081016040528092919081815260200182805460018160011615610100020316600290048015613bf65780601f10613bcb57610100808354040283529160200191613bf6565b820191906000526020600020905b815481529060010190602001808311613bd957829003601f168201915b505050505090806005018054600181600116156101000203166002900480601f016020809104026020016040519081016040528092919081815260200182805460018160011615610100020316600290048015613c945780601f10613c6957610100808354040283529160200191613c94565b820191906000526020600020905b815481529060010190602001808311613c7757829003601f168201915b5050505050905086565b600b6020528060005260406000206000915090508060000154908060010160009054906101000a900473ffffffffffffffffffffffffffffffffffffffff1690806002018054600181600116156101000203166002900480601f016020809104026020016040519081016040528092919081815260200182805460018160011615610100020316600290048015613d765780601f10613d4b57610100808354040283529160200191613d76565b820191906000526020600020905b815481529060010190602001808311613d5957829003601f168201915b505050505090806003015490806004015490806005018054600181600116156101000203166002900480601f016020809104026020016040519081016040528092919081815260200182805460018160011615610100020316600290048015613e205780601f10613df557610100808354040283529160200191613e20565b820191906000526020600020905b815481529060010190602001808311613e0357829003601f168201915b505050505090806006018054600181600116156101000203166002900480601f016020809104026020016040519081016040528092919081815260200182805460018160011615610100020316600290048015613ebe5780601f10613e9357610100808354040283529160200191613ebe565b820191906000526020600020905b815481529060010190602001808311613ea157829003601f168201915b505050505090806007018054600181600116156101000203166002900480601f016020809104026020016040519081016040528092919081815260200182805460018160011615610100020316600290048015613f5c5780601f10613f3157610100808354040283529160200191613f5c565b820191906000526020600020905b815481529060010190602001808311613f3f57829003601f168201915b5050505050905088565b60006020528060005260406000206000915090508054600181600116156101000203166002900480601f01602080910402602001604051908101604052809291908181526020018280546001816001161561010002031660029004801561400e5780601f10613fe35761010080835404028352916020019161400e565b820191906000526020600020905b815481529060010190602001808311613ff157829003601f168201915b505050505081565b60045481565b60008060003373ffffffffffffffffffffffffffffffffffffffff1673ffffffffffffffffffffffffffffffffffffffff1681526020019081526020016000208054600181600116156101000203166002900490501461407b57600080fd5b60046000815480929190600101919050555060405180610100016040528060045481526020013373ffffffffffffffffffffffffffffffffffffffff16815260200187815260200186815260200185815260200184815260200183815260200182815250600b600060045481526020019081526020016000206000820151816000015560208201518160010160006101000a81548173ffffffffffffffffffffffffffffffffffffffff021916908373ffffffffffffffffffffffffffffffffffffffff16021790555060408201518160020190805190602001906141619291906147c3565b50606082015181600301556080820151816004015560a08201518160050190805190602001906141929291906147c3565b5060c08201518160060190805190602001906141af9291906147c3565b5060e08201518160070190805190602001906141cc9291906147c3565b509050506040518060400160405280600181526020017f33000000000000000000000000000000000000000000000000000000000000008152506000803373ffffffffffffffffffffffffffffffffffffffff1673ffffffffffffffffffffffffffffffffffffffff1681526020019081526020016000209080519060200190614257929190614843565b50505050505050565b600d602052806000526040600020600091509050806000015490806001015490806002015490806003018054600181600116156101000203166002900480601f01602080910402602001604051908101604052809291908181526020018280546001816001161561010002031660029004801561431e5780601f106142f35761010080835404028352916020019161431e565b820191906000526020600020905b81548152906001019060200180831161430157829003601f168201915b5050505050905084565b6040518060c001604052808681526020013373ffffffffffffffffffffffffffffffffffffffff16815260200185815260200184815260200183815260200182815250600a60008781526020019081526020016000206000820151816000015560208201518160010160006101000a81548173ffffffffffffffffffffffffffffffffffffffff021916908373ffffffffffffffffffffffffffffffffffffffff16021790555060408201518160020190805190602001906143eb9291906147c3565b5060608201518160030190805190602001906144089291906147c3565b5060808201518160040190805190602001906144259291906147c3565b5060a08201518160050190805190602001906144429291906147c3565b509050505050505050565b60055481565b60065481565b6040518060e001604052808781526020013373ffffffffffffffffffffffffffffffffffffffff16815260200186815260200185815260200184815260200183815260200182815250600860008881526020019081526020016000206000820151816000015560208201518160010160006101000a81548173ffffffffffffffffffffffffffffffffffffffff021916908373ffffffffffffffffffffffffffffffffffffffff16021790555060408201518160020190805190602001906145229291906147c3565b50606082015181600301908051906020019061453f9291906147c3565b50608082015181600401908051906020019061455c9291906147c3565b5060a08201518160050190805190602001906145799291906147c3565b5060c08201518160060190805190602001906145969291906147c3565b50905050505050505050565b600760009054906101000a900473ffffffffffffffffffffffffffffffffffffffff1681565b6060600b60008881526020019081526020016000206007018054600181600116156101000203166002900480601f0160208091040260200160405190810160405280929190818152602001828054600181600116156101000203166002900480156146745780601f1061464957610100808354040283529160200191614674565b820191906000526020600020905b81548152906001019060200180831161465757829003601f168201915b505050505090506040518061010001604052808881526020013373ffffffffffffffffffffffffffffffffffffffff16815260200187815260200186815260200185815260200184815260200183815260200182815250600b60008981526020019081526020016000206000820151816000015560208201518160010160006101000a81548173ffffffffffffffffffffffffffffffffffffffff021916908373ffffffffffffffffffffffffffffffffffffffff160217905550604082015181600201908051906020019061474b9291906147c3565b50606082015181600301556080820151816004015560a082015181600501908051906020019061477c9291906147c3565b5060c08201518160060190805190602001906147999291906147c3565b5060e08201518160070190805190602001906147b69291906147c3565b5090505050505050505050565b828054600181600116156101000203166002900490600052602060002090601f016020900481019282601f1061480457805160ff1916838001178555614832565b82800160010185558215614832579182015b82811115614831578251825591602001919060010190614816565b5b50905061483f91906148c3565b5090565b828054600181600116156101000203166002900490600052602060002090601f016020900481019282601f1061488457805160ff19168380011785556148b2565b828001600101855582156148b2579182015b828111156148b1578251825591602001919060010190614896565b5b5090506148bf91906148c3565b5090565b6148e591905b808211156148e15760008160009055506001016148c9565b5090565b9056fea265627a7a7231582071139fe575551beee643b6f06a231eaf55c59ce6122cd8480b16f9c72eb2ba8364736f6c63430005100032",
  "source": "\r\npragma solidity >=0.4.22 <0.8.0;\r\ncontract HealthCare { \r\n  mapping(address => string) public roles; \r\n  uint public hospitalCount = 0;\r\n  uint public doctorCount = 0;\r\n  uint public insuranceCount = 0;\r\n  uint public patientCount = 0;\r\n  uint public appointmentCount = 0;\r\n  uint public fileSharingCount = 0;\r\n  address public admin; \r\n  struct Hospital {\r\n    uint id;\r\n    address addr;\r\n    string name;\r\n    string regId;    \r\n    string description;\r\n    string _approved;\r\n    string extrafields;\r\n  }\r\n  mapping(uint => Hospital) public hospitals;\r\n  struct Doctor {\r\n    uint id;\r\n    address addr;\r\n    string name;\r\n    uint hospitalid;\r\n    string regId;   \r\n    string _approved;\r\n    string extrafields;\r\n  }\r\n  mapping(uint => Doctor) public doctors;\r\n  struct InsuranceProvider {\r\n    uint id;\r\n    address addr;\r\n    string name;    \r\n    string regId;   \r\n    string _approved;\r\n    string extrafields;\r\n  }\r\n  mapping(uint => InsuranceProvider) public insuranceproviders ;\r\n  struct Patient {\r\n    uint id;\r\n    address addr;\r\n    string name;    \r\n    uint insuranceProviderid;   \r\n    uint familyDoctorid; \r\n    string _approved;\r\n    string extrafields;\r\n    string filehashes;\r\n  }\r\n  mapping(uint => Patient) public patients;\r\n  struct Appointment {\r\n    uint id;       \r\n    uint patientid;   \r\n    uint doctorid;     \r\n    string date; \r\n    string time;   \r\n  }\r\n  mapping(uint => Appointment) public appointments;\r\n  struct FileSharing {\r\n    uint id;       \r\n    uint patientid;   \r\n    uint doctorid;     \r\n    string filehash;      \r\n  }\r\n  mapping(uint => FileSharing) public filesharings;\r\n  constructor() public {  \r\n    admin=msg.sender;    \r\n  }\r\n  function registerHospital (string memory _name,string memory _regId,string memory _description,string memory _approved,string memory _extrafields) public {\r\n        require(bytes(roles[msg.sender]).length==0);\r\n        hospitalCount ++;\r\n        hospitals[hospitalCount] = Hospital(hospitalCount,msg.sender,_name,_regId,_description,_approved,_extrafields);    \r\n        roles[msg.sender]=\"1\";   \r\n        //emit registeredEvent(msg.sender);\r\n    } \r\n     function updateHospital (uint id,string memory _name,string memory _regId,string memory _description,string memory _approved,string memory _extrafields) public {       \r\n        hospitals[id] = Hospital(id,msg.sender,_name,_regId,_description,_approved,_extrafields);    \r\n    } \r\n  function registerDoctor (string memory _name,uint _hospitalId,string memory _regId,string memory _approved,string memory _extrafields) public {\r\n        require(bytes(roles[msg.sender]).length==0);\r\n        doctorCount ++;\r\n        doctors[doctorCount] = Doctor(doctorCount,msg.sender,_name,_hospitalId,_regId,_approved,_extrafields);    \r\n        roles[msg.sender]=\"2\";   \r\n        //emit registeredEvent(msg.sender);\r\n    } \r\n    function updaterDoctor (uint id,string memory _name,uint _hospitalId,string memory _regId,string memory _approved,string memory _extrafields) public {\r\n        doctors[id] = Doctor(id,msg.sender,_name,_hospitalId,_regId,_approved,_extrafields);   \r\n    } \r\n     function registerPatient (string memory _name,uint _insuranceProviderId,uint _familyDoctorId,string memory _approved,string memory _extrafields,string memory _filehashes) public {\r\n        require(bytes(roles[msg.sender]).length==0);\r\n        patientCount ++;\r\n        patients[patientCount] = Patient(patientCount,msg.sender,_name,_insuranceProviderId,_familyDoctorId,_approved,_extrafields,_filehashes);    \r\n        roles[msg.sender]=\"3\";   \r\n        //emit registeredEvent(msg.sender);\r\n    } \r\n    function updatePatient (uint id,string memory _name,uint _insuranceProviderId,uint _familyDoctorId,string memory _approved,string memory _extrafields) public {\r\n        string memory _filehashes=patients[id].filehashes;\r\n        patients[id] = Patient(id,msg.sender,_name,_insuranceProviderId,_familyDoctorId,_approved,_extrafields,_filehashes);    \r\n    } \r\n    function updatePatientwithFiles (uint id,string memory _name,uint _insuranceProviderId,uint _familyDoctorId,string memory _approved,string memory _extrafields,string memory _filehash) public {\r\n        patients[id] = Patient(id,msg.sender,_name,_insuranceProviderId,_familyDoctorId,_approved,_extrafields,_filehash);    \r\n    } \r\n    function registerInsuranceProvider (string memory _name,string memory _regId,string memory _approved,string memory _extrafields) public {\r\n        require(bytes(roles[msg.sender]).length==0);\r\n        insuranceCount ++;\r\n        insuranceproviders[insuranceCount] = InsuranceProvider(insuranceCount,msg.sender,_name,_regId,_approved,_extrafields);    \r\n        roles[msg.sender]=\"4\";   \r\n        //emit registeredEvent(msg.sender);\r\n    } \r\n    function updateInsuranceProvider (uint id,string memory _name,string memory _regId,string memory _approved,string memory _extrafields) public {\r\n        insuranceproviders[id] = InsuranceProvider(id,msg.sender,_name,_regId,_approved,_extrafields);\r\n    } \r\n    function addAppointment (uint _patientid,uint _doctorid,string memory _date,string memory _time ) public {\r\n        //require(bytes(roles[msg.sender]).length==0);\r\n        appointmentCount ++;\r\n        appointments[appointmentCount] = Appointment(appointmentCount,_patientid,_doctorid,_date,_time);    \r\n        \r\n        //emit registeredEvent(msg.sender);\r\n    } \r\n    function addFileSharing (uint _patientid,uint _doctorid,string memory _filehash ) public {\r\n        //require(bytes(roles[msg.sender]).length==0);\r\n        fileSharingCount ++;\r\n        filesharings[fileSharingCount] = FileSharing(fileSharingCount,_patientid,_doctorid,_filehash);    \r\n        \r\n        //emit registeredEvent(msg.sender);\r\n    } \r\n\r\n}\r\n",
  "sourcePath": "F:/SharanBlockchain/contracts/HealthCare.sol",
  "compiler": {
    "name": "solc",
    "version": "0.5.16+commit.9c3226ce.Emscripten.clang"
  },
  "schemaVersion": "3.3.3",
  "updatedAt": "2021-03-15T05:48:03.897Z",
  "networkType": "ethereum",
  "devdoc": {
    "methods": {}
  },
  "userdoc": {
    "methods": {}
  }
}