{
  "contractName": "HealthCare",
  "abi": [
    {
      "inputs": [],
      "payable": false,
      "stateMutability": "nonpayable",
      "type": "constructor"
    },
    {
      "constant": true,
      "inputs": [],
      "name": "admin",
      "outputs": [
        {
          "internalType": "address",
          "name": "",
          "type": "address"
        }
      ],
      "payable": false,
      "stateMutability": "view",
      "type": "function"
    },
    {
      "constant": true,
      "inputs": [],
      "name": "appointmentCount",
      "outputs": [
        {
          "internalType": "uint256",
          "name": "",
          "type": "uint256"
        }
      ],
      "payable": false,
      "stateMutability": "view",
      "type": "function"
    },
    {
      "constant": true,
      "inputs": [
        {
          "internalType": "uint256",
          "name": "",
          "type": "uint256"
        }
      ],
      "name": "appointments",
      "outputs": [
        {
          "internalType": "uint256",
          "name": "id",
          "type": "uint256"
        },
        {
          "internalType": "uint256",
          "name": "patientid",
          "type": "uint256"
        },
        {
          "internalType": "uint256",
          "name": "doctorid",
          "type": "uint256"
        },
        {
          "internalType": "string",
          "name": "date",
          "type": "string"
        },
        {
          "internalType": "string",
          "name": "time",
          "type": "string"
        }
      ],
      "payable": false,
      "stateMutability": "view",
      "type": "function"
    },
    {
      "constant": true,
      "inputs": [],
      "name": "doctorCount",
      "outputs": [
        {
          "internalType": "uint256",
          "name": "",
          "type": "uint256"
        }
      ],
      "payable": false,
      "stateMutability": "view",
      "type": "function"
    },
    {
      "constant": true,
      "inputs": [
        {
          "internalType": "uint256",
          "name": "",
          "type": "uint256"
        }
      ],
      "name": "doctors",
      "outputs": [
        {
          "internalType": "uint256",
          "name": "id",
          "type": "uint256"
        },
        {
          "internalType": "address",
          "name": "addr",
          "type": "address"
        },
        {
          "internalType": "string",
          "name": "name",
          "type": "string"
        },
        {
          "internalType": "uint256",
          "name": "hospitalid",
          "type": "uint256"
        },
        {
          "internalType": "string",
          "name": "regId",
          "type": "string"
        },
        {
          "internalType": "string",
          "name": "_approved",
          "type": "string"
        },
        {
          "internalType": "string",
          "name": "extrafields",
          "type": "string"
        }
      ],
      "payable": false,
      "stateMutability": "view",
      "type": "function"
    },
    {
      "constant": true,
      "inputs": [],
      "name": "fileSharingCount",
      "outputs": [
        {
          "internalType": "uint256",
          "name": "",
          "type": "uint256"
        }
      ],
      "payable": false,
      "stateMutability": "view",
      "type": "function"
    },
    {
      "constant": true,
      "inputs": [
        {
          "internalType": "uint256",
          "name": "",
          "type": "uint256"
        }
      ],
      "name": "filesharings",
      "outputs": [
        {
          "internalType": "uint256",
          "name": "id",
          "type": "uint256"
        },
        {
          "internalType": "uint256",
          "name": "patientid",
          "type": "uint256"
        },
        {
          "internalType": "uint256",
          "name": "doctorid",
          "type": "uint256"
        },
        {
          "internalType": "string",
          "name": "filehash",
          "type": "string"
        }
      ],
      "payable": false,
      "stateMutability": "view",
      "type": "function"
    },
    {
      "constant": true,
      "inputs": [],
      "name": "hospitalCount",
      "outputs": [
        {
          "internalType": "uint256",
          "name": "",
          "type": "uint256"
        }
      ],
      "payable": false,
      "stateMutability": "view",
      "type": "function"
    },
    {
      "constant": true,
      "inputs": [
        {
          "internalType": "uint256",
          "name": "",
          "type": "uint256"
        }
      ],
      "name": "hospitals",
      "outputs": [
        {
          "internalType": "uint256",
          "name": "id",
          "type": "uint256"
        },
        {
          "internalType": "address",
          "name": "addr",
          "type": "address"
        },
        {
          "internalType": "string",
          "name": "name",
          "type": "string"
        },
        {
          "internalType": "string",
          "name": "regId",
          "type": "string"
        },
        {
          "internalType": "string",
          "name": "description",
          "type": "string"
        },
        {
          "internalType": "string",
          "name": "_approved",
          "type": "string"
        },
        {
          "internalType": "string",
          "name": "extrafields",
          "type": "string"
        }
      ],
      "payable": false,
      "stateMutability": "view",
      "type": "function"
    },
    {
      "constant": true,
      "inputs": [],
      "name": "insuranceCount",
      "outputs": [
        {
          "internalType": "uint256",
          "name": "",
          "type": "uint256"
        }
      ],
      "payable": false,
      "stateMutability": "view",
      "type": "function"
    },
    {
      "constant": true,
      "inputs": [
        {
          "internalType": "uint256",
          "name": "",
          "type": "uint256"
        }
      ],
      "name": "insuranceproviders",
      "outputs": [
        {
          "internalType": "uint256",
          "name": "id",
          "type": "uint256"
        },
        {
          "internalType": "address",
          "name": "addr",
          "type": "address"
        },
        {
          "internalType": "string",
          "name": "name",
          "type": "string"
        },
        {
          "internalType": "string",
          "name": "regId",
          "type": "string"
        },
        {
          "internalType": "string",
          "name": "_approved",
          "type": "string"
        },
        {
          "internalType": "string",
          "name": "extrafields",
          "type": "string"
        }
      ],
      "payable": false,
      "stateMutability": "view",
      "type": "function"
    },
    {
      "constant": true,
      "inputs": [],
      "name": "patientCount",
      "outputs": [
        {
          "internalType": "uint256",
          "name": "",
          "type": "uint256"
        }
      ],
      "payable": false,
      "stateMutability": "view",
      "type": "function"
    },
    {
      "constant": true,
      "inputs": [
        {
          "internalType": "uint256",
          "name": "",
          "type": "uint256"
        }
      ],
      "name": "patients",
      "outputs": [
        {
          "internalType": "uint256",
          "name": "id",
          "type": "uint256"
        },
        {
          "internalType": "address",
          "name": "addr",
          "type": "address"
        },
        {
          "internalType": "string",
          "name": "name",
          "type": "string"
        },
        {
          "internalType": "uint256",
          "name": "insuranceProviderid",
          "type": "uint256"
        },
        {
          "internalType": "uint256",
          "name": "familyDoctorid",
          "type": "uint256"
        },
        {
          "internalType": "string",
          "name": "_approved",
          "type": "string"
        },
        {
          "internalType": "string",
          "name": "extrafields",
          "type": "string"
        },
        {
          "internalType": "string",
          "name": "filehashes",
          "type": "string"
        }
      ],
      "payable": false,
      "stateMutability": "view",
      "type": "function"
    },
    {
      "constant": true,
      "inputs": [
        {
          "internalType": "address",
          "name": "",
          "type": "address"
        }
      ],
      "name": "roles",
      "outputs": [
        {
          "internalType": "string",
          "name": "",
          "type": "string"
        }
      ],
      "payable": false,
      "stateMutability": "view",
      "type": "function"
    },
    {
      "constant": false,
      "inputs": [
        {
          "internalType": "string",
          "name": "_name",
          "type": "string"
        },
        {
          "internalType": "string",
          "name": "_regId",
          "type": "string"
        },
        {
          "internalType": "string",
          "name": "_description",
          "type": "string"
        },
        {
          "internalType": "string",
          "name": "_approved",
          "type": "string"
        },
        {
          "internalType": "string",
          "name": "_extrafields",
          "type": "string"
        }
      ],
      "name": "registerHospital",
      "outputs": [],
      "payable": false,
      "stateMutability": "nonpayable",
      "type": "function"
    },
    {
      "constant": false,
      "inputs": [
        {
          "internalType": "uint256",
          "name": "id",
          "type": "uint256"
        },
        {
          "internalType": "string",
          "name": "_name",
          "type": "string"
        },
        {
          "internalType": "string",
          "name": "_regId",
          "type": "string"
        },
        {
          "internalType": "string",
          "name": "_description",
          "type": "string"
        },
        {
          "internalType": "string",
          "name": "_approved",
          "type": "string"
        },
        {
          "internalType": "string",
          "name": "_extrafields",
          "type": "string"
        }
      ],
      "name": "updateHospital",
      "outputs": [],
      "payable": false,
      "stateMutability": "nonpayable",
      "type": "function"
    },
    {
      "constant": false,
      "inputs": [
        {
          "internalType": "string",
          "name": "_name",
          "type": "string"
        },
        {
          "internalType": "uint256",
          "name": "_hospitalId",
          "type": "uint256"
        },
        {
          "internalType": "string",
          "name": "_regId",
          "type": "string"
        },
        {
          "internalType": "string",
          "name": "_approved",
          "type": "string"
        },
        {
          "internalType": "string",
          "name": "_extrafields",
          "type": "string"
        }
      ],
      "name": "registerDoctor",
      "outputs": [],
      "payable": false,
      "stateMutability": "nonpayable",
      "type": "function"
    },
    {
      "constant": false,
      "inputs": [
        {
          "internalType": "uint256",
          "name": "id",
          "type": "uint256"
        },
        {
          "internalType": "string",
          "name": "_name",
          "type": "string"
        },
        {
          "internalType": "uint256",
          "name": "_hospitalId",
          "type": "uint256"
        },
        {
          "internalType": "string",
          "name": "_regId",
          "type": "string"
        },
        {
          "internalType": "string",
          "name": "_approved",
          "type": "string"
        },
        {
          "internalType": "string",
          "name": "_extrafields",
          "type": "string"
        }
      ],
      "name": "updaterDoctor",
      "outputs": [],
      "payable": false,
      "stateMutability": "nonpayable",
      "type": "function"
    },
    {
      "constant": false,
      "inputs": [
        {
          "internalType": "string",
          "name": "_name",
          "type": "string"
        },
        {
          "internalType": "uint256",
          "name": "_insuranceProviderId",
          "type": "uint256"
        },
        {
          "internalType": "uint256",
          "name": "_familyDoctorId",
          "type": "uint256"
        },
        {
          "internalType": "string",
          "name": "_approved",
          "type": "string"
        },
        {
          "internalType": "string",
          "name": "_extrafields",
          "type": "string"
        },
        {
          "internalType": "string",
          "name": "_filehashes",
          "type": "string"
        }
      ],
      "name": "registerPatient",
      "outputs": [],
      "payable": false,
      "stateMutability": "nonpayable",
      "type": "function"
    },
    {
      "constant": false,
      "inputs": [
        {
          "internalType": "uint256",
          "name": "id",
          "type": "uint256"
        },
        {
          "internalType": "string",
          "name": "_name",
          "type": "string"
        },
        {
          "internalType": "uint256",
          "name": "_insuranceProviderId",
          "type": "uint256"
        },
        {
          "internalType": "uint256",
          "name": "_familyDoctorId",
          "type": "uint256"
        },
        {
          "internalType": "string",
          "name": "_approved",
          "type": "string"
        },
        {
          "internalType": "string",
          "name": "_extrafields",
          "type": "string"
        },
        {
          "internalType": "string",
          "name": "_filehashes",
          "type": "string"
        }
      ],
      "name": "updatePatient",
      "outputs": [],
      "payable": false,
      "stateMutability": "nonpayable",
      "type": "function"
    },
    {
      "constant": false,
      "inputs": [
        {
          "internalType": "string",
          "name": "_name",
          "type": "string"
        },
        {
          "internalType": "string",
          "name": "_regId",
          "type": "string"
        },
        {
          "internalType": "string",
          "name": "_approved",
          "type": "string"
        },
        {
          "internalType": "string",
          "name": "_extrafields",
          "type": "string"
        }
      ],
      "name": "registerInsuranceProvider",
      "outputs": [],
      "payable": false,
      "stateMutability": "nonpayable",
      "type": "function"
    },
    {
      "constant": false,
      "inputs": [
        {
          "internalType": "uint256",
          "name": "id",
          "type": "uint256"
        },
        {
          "internalType": "string",
          "name": "_name",
          "type": "string"
        },
        {
          "internalType": "string",
          "name": "_regId",
          "type": "string"
        },
        {
          "internalType": "string",
          "name": "_approved",
          "type": "string"
        },
        {
          "internalType": "string",
          "name": "_extrafields",
          "type": "string"
        }
      ],
      "name": "updateInsuranceProvider",
      "outputs": [],
      "payable": false,
      "stateMutability": "nonpayable",
      "type": "function"
    },
    {
      "constant": false,
      "inputs": [
        {
          "internalType": "uint256",
          "name": "_patientid",
          "type": "uint256"
        },
        {
          "internalType": "uint256",
          "name": "_doctorid",
          "type": "uint256"
        },
        {
          "internalType": "string",
          "name": "_date",
          "type": "string"
        },
        {
          "internalType": "string",
          "name": "_time",
          "type": "string"
        }
      ],
      "name": "addAppointment",
      "outputs": [],
      "payable": false,
      "stateMutability": "nonpayable",
      "type": "function"
    },
    {
      "constant": false,
      "inputs": [
        {
          "internalType": "uint256",
          "name": "_patientid",
          "type": "uint256"
        },
        {
          "internalType": "uint256",
          "name": "_doctorid",
          "type": "uint256"
        },
        {
          "internalType": "string",
          "name": "_filehash",
          "type": "string"
        }
      ],
      "name": "addFileSharing",
      "outputs": [],
      "payable": false,
      "stateMutability": "nonpayable",
      "type": "function"
    }
  ],
  "bytecode": "0x608060405260006001556000600255600060035560006004556000600555600060065534801561002e57600080fd5b5033600760006101000a81548173ffffffffffffffffffffffffffffffffffffffff021916908373ffffffffffffffffffffffffffffffffffffffff1602179055506145008061007f6000396000f3fe608060405234801561001057600080fd5b50600436106101585760003560e01c806381dc6fd2116100c3578063b48c69991161007c578063b48c699914611eeb578063df500af114611fa7578063eebc3fb214612231578063f25354311461224f578063f41d3edd1461226d578063f851a4401461258e57610158565b806381dc6fd214611493578063887088451461172457806393119a83146119495780639937464214611b7c578063a0303c4114611c39578063b18bd12c14611c5757610158565b80632d414ea3116101155780632d414ea314610ce5578063350dadb714610f83578063521a6e9414610fa15780636efb1b8414610fbf578063727acf8a146111eb57806378522bc41461147557610158565b806312dc90131461015d578063130567491461028557806316a409e6146103545780631c905352146105e85780631d0f81681461074e578063283fed0e14610a65575b600080fd5b6101896004803603602081101561017357600080fd5b81019080803590602001909291905050506125d8565b604051808681526020018581526020018481526020018060200180602001838103835285818151815260200191508051906020019080838360005b838110156101df5780820151818401526020810190506101c4565b50505050905090810190601f16801561020c5780820380516001836020036101000a031916815260200191505b50838103825284818151815260200191508051906020019080838360005b8381101561024557808201518184015260208101905061022a565b50505050905090810190601f1680156102725780820380516001836020036101000a031916815260200191505b5097505050505050505060405180910390f35b6103526004803603606081101561029b57600080fd5b810190808035906020019092919080359060200190929190803590602001906401000000008111156102cc57600080fd5b8201836020820111156102de57600080fd5b8035906020019184600183028401116401000000008311171561030057600080fd5b91908080601f016020809104026020016040519081016040528093929190818152602001838380828437600081840152601f19601f82011690508083019250505050505050919291929050505061273e565b005b6105e6600480360360c081101561036a57600080fd5b81019080803590602001909291908035906020019064010000000081111561039157600080fd5b8201836020820111156103a357600080fd5b803590602001918460018302840111640100000000831117156103c557600080fd5b91908080601f016020809104026020016040519081016040528093929190818152602001838380828437600081840152601f19601f820116905080830192505050505050509192919290803590602001909291908035906020019064010000000081111561043257600080fd5b82018360208201111561044457600080fd5b8035906020019184600183028401116401000000008311171561046657600080fd5b91908080601f016020809104026020016040519081016040528093929190818152602001838380828437600081840152601f19601f820116905080830192505050505050509192919290803590602001906401000000008111156104c957600080fd5b8201836020820111156104db57600080fd5b803590602001918460018302840111640100000000831117156104fd57600080fd5b91908080601f016020809104026020016040519081016040528093929190818152602001838380828437600081840152601f19601f8201169050808301925050505050505091929192908035906020019064010000000081111561056057600080fd5b82018360208201111561057257600080fd5b8035906020019184600183028401116401000000008311171561059457600080fd5b91908080601f016020809104026020016040519081016040528093929190818152602001838380828437600081840152601f19601f8201169050808301925050505050505091929192905050506127cb565b005b61074c600480360360808110156105fe57600080fd5b8101908080359060200190929190803590602001909291908035906020019064010000000081111561062f57600080fd5b82018360208201111561064157600080fd5b8035906020019184600183028401116401000000008311171561066357600080fd5b91908080601f016020809104026020016040519081016040528093929190818152602001838380828437600081840152601f19601f820116905080830192505050505050509192919290803590602001906401000000008111156106c657600080fd5b8201836020820111156106d857600080fd5b803590602001918460018302840111640100000000831117156106fa57600080fd5b91908080601f016020809104026020016040519081016040528093929190818152602001838380828437600081840152601f19601f820116905080830192505050505050509192919290505050612901565b005b610a63600480360360a081101561076457600080fd5b810190808035906020019064010000000081111561078157600080fd5b82018360208201111561079357600080fd5b803590602001918460018302840111640100000000831117156107b557600080fd5b91908080601f016020809104026020016040519081016040528093929190818152602001838380828437600081840152601f19601f8201169050808301925050505050505091929192908035906020019064010000000081111561081857600080fd5b82018360208201111561082a57600080fd5b8035906020019184600183028401116401000000008311171561084c57600080fd5b91908080601f016020809104026020016040519081016040528093929190818152602001838380828437600081840152601f19601f820116905080830192505050505050509192919290803590602001906401000000008111156108af57600080fd5b8201836020820111156108c157600080fd5b803590602001918460018302840111640100000000831117156108e357600080fd5b91908080601f016020809104026020016040519081016040528093929190818152602001838380828437600081840152601f19601f8201169050808301925050505050505091929192908035906020019064010000000081111561094657600080fd5b82018360208201111561095857600080fd5b8035906020019184600183028401116401000000008311171561097a57600080fd5b91908080601f016020809104026020016040519081016040528093929190818152602001838380828437600081840152601f19601f820116905080830192505050505050509192919290803590602001906401000000008111156109dd57600080fd5b8201836020820111156109ef57600080fd5b80359060200191846001830284011164010000000083111715610a1157600080fd5b91908080601f016020809104026020016040519081016040528093929190818152602001838380828437600081840152601f19601f8201169050808301925050505050505091929192905050506129b2565b005b610ce360048036036080811015610a7b57600080fd5b8101908080359060200190640100000000811115610a9857600080fd5b820183602082011115610aaa57600080fd5b80359060200191846001830284011164010000000083111715610acc57600080fd5b91908080601f016020809104026020016040519081016040528093929190818152602001838380828437600081840152601f19601f82011690508083019250505050505050919291929080359060200190640100000000811115610b2f57600080fd5b820183602082011115610b4157600080fd5b80359060200191846001830284011164010000000083111715610b6357600080fd5b91908080601f016020809104026020016040519081016040528093929190818152602001838380828437600081840152601f19601f82011690508083019250505050505050919291929080359060200190640100000000811115610bc657600080fd5b820183602082011115610bd857600080fd5b80359060200191846001830284011164010000000083111715610bfa57600080fd5b91908080601f016020809104026020016040519081016040528093929190818152602001838380828437600081840152601f19601f82011690508083019250505050505050919291929080359060200190640100000000811115610c5d57600080fd5b820183602082011115610c6f57600080fd5b80359060200191846001830284011164010000000083111715610c9157600080fd5b91908080601f016020809104026020016040519081016040528093929190818152602001838380828437600081840152601f19601f820116905080830192505050505050509192919290505050612bf7565b005b610f81600480360360e0811015610cfb57600080fd5b810190808035906020019092919080359060200190640100000000811115610d2257600080fd5b820183602082011115610d3457600080fd5b80359060200191846001830284011164010000000083111715610d5657600080fd5b91908080601f016020809104026020016040519081016040528093929190818152602001838380828437600081840152601f19601f820116905080830192505050505050509192919290803590602001909291908035906020019092919080359060200190640100000000811115610dcd57600080fd5b820183602082011115610ddf57600080fd5b80359060200191846001830284011164010000000083111715610e0157600080fd5b91908080601f016020809104026020016040519081016040528093929190818152602001838380828437600081840152601f19601f82011690508083019250505050505050919291929080359060200190640100000000811115610e6457600080fd5b820183602082011115610e7657600080fd5b80359060200191846001830284011164010000000083111715610e9857600080fd5b91908080601f016020809104026020016040519081016040528093929190818152602001838380828437600081840152601f19601f82011690508083019250505050505050919291929080359060200190640100000000811115610efb57600080fd5b820183602082011115610f0d57600080fd5b80359060200191846001830284011164010000000083111715610f2f57600080fd5b91908080601f016020809104026020016040519081016040528093929190818152602001838380828437600081840152601f19601f820116905080830192505050505050509192919290505050612e18565b005b610f8b612f60565b6040518082815260200191505060405180910390f35b610fa9612f66565b6040518082815260200191505060405180910390f35b610feb60048036036020811015610fd557600080fd5b8101908080359060200190929190505050612f6c565b604051808881526020018773ffffffffffffffffffffffffffffffffffffffff1673ffffffffffffffffffffffffffffffffffffffff1681526020018060200186815260200180602001806020018060200185810385528a818151815260200191508051906020019080838360005b8381101561107557808201518184015260208101905061105a565b50505050905090810190601f1680156110a25780820380516001836020036101000a031916815260200191505b50858103845288818151815260200191508051906020019080838360005b838110156110db5780820151818401526020810190506110c0565b50505050905090810190601f1680156111085780820380516001836020036101000a031916815260200191505b50858103835287818151815260200191508051906020019080838360005b83811015611141578082015181840152602081019050611126565b50505050905090810190601f16801561116e5780820380516001836020036101000a031916815260200191505b50858103825286818151815260200191508051906020019080838360005b838110156111a757808201518184015260208101905061118c565b50505050905090810190601f1680156111d45780820380516001836020036101000a031916815260200191505b509b50505050505050505050505060405180910390f35b611473600480360360a081101561120157600080fd5b810190808035906020019064010000000081111561121e57600080fd5b82018360208201111561123057600080fd5b8035906020019184600183028401116401000000008311171561125257600080fd5b91908080601f016020809104026020016040519081016040528093929190818152602001838380828437600081840152601f19601f82011690508083019250505050505050919291929080359060200190929190803590602001906401000000008111156112bf57600080fd5b8201836020820111156112d157600080fd5b803590602001918460018302840111640100000000831117156112f357600080fd5b91908080601f016020809104026020016040519081016040528093929190818152602001838380828437600081840152601f19601f8201169050808301925050505050505091929192908035906020019064010000000081111561135657600080fd5b82018360208201111561136857600080fd5b8035906020019184600183028401116401000000008311171561138a57600080fd5b91908080601f016020809104026020016040519081016040528093929190818152602001838380828437600081840152601f19601f820116905080830192505050505050509192919290803590602001906401000000008111156113ed57600080fd5b8201836020820111156113ff57600080fd5b8035906020019184600183028401116401000000008311171561142157600080fd5b91908080601f016020809104026020016040519081016040528093929190818152602001838380828437600081840152601f19601f82011690508083019250505050505050919291929050505061322e565b005b61147d613460565b6040518082815260200191505060405180910390f35b6114bf600480360360208110156114a957600080fd5b8101908080359060200190929190505050613466565b604051808881526020018773ffffffffffffffffffffffffffffffffffffffff1673ffffffffffffffffffffffffffffffffffffffff168152602001806020018060200180602001806020018060200186810386528b818151815260200191508051906020019080838360005b8381101561154757808201518184015260208101905061152c565b50505050905090810190601f1680156115745780820380516001836020036101000a031916815260200191505b5086810385528a818151815260200191508051906020019080838360005b838110156115ad578082015181840152602081019050611592565b50505050905090810190601f1680156115da5780820380516001836020036101000a031916815260200191505b50868103845289818151815260200191508051906020019080838360005b838110156116135780820151818401526020810190506115f8565b50505050905090810190601f1680156116405780820380516001836020036101000a031916815260200191505b50868103835288818151815260200191508051906020019080838360005b8381101561167957808201518184015260208101905061165e565b50505050905090810190601f1680156116a65780820380516001836020036101000a031916815260200191505b50868103825287818151815260200191508051906020019080838360005b838110156116df5780820151818401526020810190506116c4565b50505050905090810190601f16801561170c5780820380516001836020036101000a031916815260200191505b509c5050505050505050505050505060405180910390f35b6117506004803603602081101561173a57600080fd5b81019080803590602001909291905050506137c0565b604051808781526020018673ffffffffffffffffffffffffffffffffffffffff1673ffffffffffffffffffffffffffffffffffffffff16815260200180602001806020018060200180602001858103855289818151815260200191508051906020019080838360005b838110156117d45780820151818401526020810190506117b9565b50505050905090810190601f1680156118015780820380516001836020036101000a031916815260200191505b50858103845288818151815260200191508051906020019080838360005b8381101561183a57808201518184015260208101905061181f565b50505050905090810190601f1680156118675780820380516001836020036101000a031916815260200191505b50858103835287818151815260200191508051906020019080838360005b838110156118a0578082015181840152602081019050611885565b50505050905090810190601f1680156118cd5780820380516001836020036101000a031916815260200191505b50858103825286818151815260200191508051906020019080838360005b838110156119065780820151818401526020810190506118eb565b50505050905090810190601f1680156119335780820380516001836020036101000a031916815260200191505b509a505050505050505050505060405180910390f35b6119756004803603602081101561195f57600080fd5b8101908080359060200190929190505050613a7c565b604051808981526020018873ffffffffffffffffffffffffffffffffffffffff1673ffffffffffffffffffffffffffffffffffffffff1681526020018060200187815260200186815260200180602001806020018060200185810385528b818151815260200191508051906020019080838360005b83811015611a055780820151818401526020810190506119ea565b50505050905090810190601f168015611a325780820380516001836020036101000a031916815260200191505b50858103845288818151815260200191508051906020019080838360005b83811015611a6b578082015181840152602081019050611a50565b50505050905090810190601f168015611a985780820380516001836020036101000a031916815260200191505b50858103835287818151815260200191508051906020019080838360005b83811015611ad1578082015181840152602081019050611ab6565b50505050905090810190601f168015611afe5780820380516001836020036101000a031916815260200191505b50858103825286818151815260200191508051906020019080838360005b83811015611b37578082015181840152602081019050611b1c565b50505050905090810190601f168015611b645780820380516001836020036101000a031916815260200191505b509c5050505050505050505050505060405180910390f35b611bbe60048036036020811015611b9257600080fd5b81019080803573ffffffffffffffffffffffffffffffffffffffff169060200190929190505050613d44565b6040518080602001828103825283818151815260200191508051906020019080838360005b83811015611bfe578082015181840152602081019050611be3565b50505050905090810190601f168015611c2b5780820380516001836020036101000a031916815260200191505b509250505060405180910390f35b611c41613df4565b6040518082815260200191505060405180910390f35b611ee9600480360360c0811015611c6d57600080fd5b8101908080359060200190640100000000811115611c8a57600080fd5b820183602082011115611c9c57600080fd5b80359060200191846001830284011164010000000083111715611cbe57600080fd5b91908080601f016020809104026020016040519081016040528093929190818152602001838380828437600081840152601f19601f820116905080830192505050505050509192919290803590602001909291908035906020019092919080359060200190640100000000811115611d3557600080fd5b820183602082011115611d4757600080fd5b80359060200191846001830284011164010000000083111715611d6957600080fd5b91908080601f016020809104026020016040519081016040528093929190818152602001838380828437600081840152601f19601f82011690508083019250505050505050919291929080359060200190640100000000811115611dcc57600080fd5b820183602082011115611dde57600080fd5b80359060200191846001830284011164010000000083111715611e0057600080fd5b91908080601f016020809104026020016040519081016040528093929190818152602001838380828437600081840152601f19601f82011690508083019250505050505050919291929080359060200190640100000000811115611e6357600080fd5b820183602082011115611e7557600080fd5b80359060200191846001830284011164010000000083111715611e9757600080fd5b91908080601f016020809104026020016040519081016040528093929190818152602001838380828437600081840152601f19601f820116905080830192505050505050509192919290505050613dfa565b005b611f1760048036036020811015611f0157600080fd5b810190808035906020019092919050505061403e565b6040518085815260200184815260200183815260200180602001828103825283818151815260200191508051906020019080838360005b83811015611f69578082015181840152602081019050611f4e565b50505050905090810190601f168015611f965780820380516001836020036101000a031916815260200191505b509550505050505060405180910390f35b61222f600480360360a0811015611fbd57600080fd5b810190808035906020019092919080359060200190640100000000811115611fe457600080fd5b820183602082011115611ff657600080fd5b8035906020019184600183028401116401000000008311171561201857600080fd5b91908080601f016020809104026020016040519081016040528093929190818152602001838380828437600081840152601f19601f8201169050808301925050505050505091929192908035906020019064010000000081111561207b57600080fd5b82018360208201111561208d57600080fd5b803590602001918460018302840111640100000000831117156120af57600080fd5b91908080601f016020809104026020016040519081016040528093929190818152602001838380828437600081840152601f19601f8201169050808301925050505050505091929192908035906020019064010000000081111561211257600080fd5b82018360208201111561212457600080fd5b8035906020019184600183028401116401000000008311171561214657600080fd5b91908080601f016020809104026020016040519081016040528093929190818152602001838380828437600081840152601f19601f820116905080830192505050505050509192919290803590602001906401000000008111156121a957600080fd5b8201836020820111156121bb57600080fd5b803590602001918460018302840111640100000000831117156121dd57600080fd5b91908080601f016020809104026020016040519081016040528093929190818152602001838380828437600081840152601f19601f820116905080830192505050505050509192919290505050614106565b005b61223961422b565b6040518082815260200191505060405180910390f35b612257614231565b6040518082815260200191505060405180910390f35b61258c600480360360c081101561228357600080fd5b8101908080359060200190929190803590602001906401000000008111156122aa57600080fd5b8201836020820111156122bc57600080fd5b803590602001918460018302840111640100000000831117156122de57600080fd5b91908080601f016020809104026020016040519081016040528093929190818152602001838380828437600081840152601f19601f8201169050808301925050505050505091929192908035906020019064010000000081111561234157600080fd5b82018360208201111561235357600080fd5b8035906020019184600183028401116401000000008311171561237557600080fd5b91908080601f016020809104026020016040519081016040528093929190818152602001838380828437600081840152601f19601f820116905080830192505050505050509192919290803590602001906401000000008111156123d857600080fd5b8201836020820111156123ea57600080fd5b8035906020019184600183028401116401000000008311171561240c57600080fd5b91908080601f016020809104026020016040519081016040528093929190818152602001838380828437600081840152601f19601f8201169050808301925050505050505091929192908035906020019064010000000081111561246f57600080fd5b82018360208201111561248157600080fd5b803590602001918460018302840111640100000000831117156124a357600080fd5b91908080601f016020809104026020016040519081016040528093929190818152602001838380828437600081840152601f19601f8201169050808301925050505050505091929192908035906020019064010000000081111561250657600080fd5b82018360208201111561251857600080fd5b8035906020019184600183028401116401000000008311171561253a57600080fd5b91908080601f016020809104026020016040519081016040528093929190818152602001838380828437600081840152601f19601f820116905080830192505050505050509192919290505050614237565b005b612596614380565b604051808273ffffffffffffffffffffffffffffffffffffffff1673ffffffffffffffffffffffffffffffffffffffff16815260200191505060405180910390f35b600c602052806000526040600020600091509050806000015490806001015490806002015490806003018054600181600116156101000203166002900480601f0160208091040260200160405190810160405280929190818152602001828054600181600116156101000203166002900480156126965780601f1061266b57610100808354040283529160200191612696565b820191906000526020600020905b81548152906001019060200180831161267957829003601f168201915b505050505090806004018054600181600116156101000203166002900480601f0160208091040260200160405190810160405280929190818152602001828054600181600116156101000203166002900480156127345780601f1061270957610100808354040283529160200191612734565b820191906000526020600020905b81548152906001019060200180831161271757829003601f168201915b5050505050905085565b6006600081548092919060010191905055506040518060800160405280600654815260200184815260200183815260200182815250600d6000600654815260200190815260200160002060008201518160000155602082015181600101556040820151816002015560608201518160030190805190602001906127c29291906143a6565b50905050505050565b6040518060e001604052808781526020013373ffffffffffffffffffffffffffffffffffffffff16815260200186815260200185815260200184815260200183815260200182815250600960008881526020019081526020016000206000820151816000015560208201518160010160006101000a81548173ffffffffffffffffffffffffffffffffffffffff021916908373ffffffffffffffffffffffffffffffffffffffff16021790555060408201518160020190805190602001906128949291906143a6565b506060820151816003015560808201518160040190805190602001906128bb9291906143a6565b5060a08201518160050190805190602001906128d89291906143a6565b5060c08201518160060190805190602001906128f59291906143a6565b50905050505050505050565b6005600081548092919060010191905055506040518060a00160405280600554815260200185815260200184815260200183815260200182815250600c60006005548152602001908152602001600020600082015181600001556020820151816001015560408201518160020155606082015181600301908051906020019061298b9291906143a6565b5060808201518160040190805190602001906129a89291906143a6565b5090505050505050565b60008060003373ffffffffffffffffffffffffffffffffffffffff1673ffffffffffffffffffffffffffffffffffffffff16815260200190815260200160002080546001816001161561010002031660029004905014612a1157600080fd5b6001600081548092919060010191905055506040518060e0016040528060015481526020013373ffffffffffffffffffffffffffffffffffffffff168152602001868152602001858152602001848152602001838152602001828152506008600060015481526020019081526020016000206000820151816000015560208201518160010160006101000a81548173ffffffffffffffffffffffffffffffffffffffff021916908373ffffffffffffffffffffffffffffffffffffffff1602179055506040820151816002019080519060200190612af09291906143a6565b506060820151816003019080519060200190612b0d9291906143a6565b506080820151816004019080519060200190612b2a9291906143a6565b5060a0820151816005019080519060200190612b479291906143a6565b5060c0820151816006019080519060200190612b649291906143a6565b509050506040518060400160405280600181526020017f31000000000000000000000000000000000000000000000000000000000000008152506000803373ffffffffffffffffffffffffffffffffffffffff1673ffffffffffffffffffffffffffffffffffffffff1681526020019081526020016000209080519060200190612bef929190614426565b505050505050565b60008060003373ffffffffffffffffffffffffffffffffffffffff1673ffffffffffffffffffffffffffffffffffffffff16815260200190815260200160002080546001816001161561010002031660029004905014612c5657600080fd5b6003600081548092919060010191905055506040518060c0016040528060035481526020013373ffffffffffffffffffffffffffffffffffffffff16815260200185815260200184815260200183815260200182815250600a600060035481526020019081526020016000206000820151816000015560208201518160010160006101000a81548173ffffffffffffffffffffffffffffffffffffffff021916908373ffffffffffffffffffffffffffffffffffffffff1602179055506040820151816002019080519060200190612d2f9291906143a6565b506060820151816003019080519060200190612d4c9291906143a6565b506080820151816004019080519060200190612d699291906143a6565b5060a0820151816005019080519060200190612d869291906143a6565b509050506040518060400160405280600181526020017f34000000000000000000000000000000000000000000000000000000000000008152506000803373ffffffffffffffffffffffffffffffffffffffff1673ffffffffffffffffffffffffffffffffffffffff1681526020019081526020016000209080519060200190612e11929190614426565b5050505050565b6040518061010001604052808881526020013373ffffffffffffffffffffffffffffffffffffffff16815260200187815260200186815260200185815260200184815260200183815260200182815250600b60008981526020019081526020016000206000820151816000015560208201518160010160006101000a81548173ffffffffffffffffffffffffffffffffffffffff021916908373ffffffffffffffffffffffffffffffffffffffff1602179055506040820151816002019080519060200190612ee89291906143a6565b50606082015181600301556080820151816004015560a0820151816005019080519060200190612f199291906143a6565b5060c0820151816006019080519060200190612f369291906143a6565b5060e0820151816007019080519060200190612f539291906143a6565b5090505050505050505050565b60015481565b60035481565b60096020528060005260406000206000915090508060000154908060010160009054906101000a900473ffffffffffffffffffffffffffffffffffffffff1690806002018054600181600116156101000203166002900480601f0160208091040260200160405190810160405280929190818152602001828054600181600116156101000203166002900480156130445780601f1061301957610100808354040283529160200191613044565b820191906000526020600020905b81548152906001019060200180831161302757829003601f168201915b505050505090806003015490806004018054600181600116156101000203166002900480601f0160208091040260200160405190810160405280929190818152602001828054600181600116156101000203166002900480156130e85780601f106130bd576101008083540402835291602001916130e8565b820191906000526020600020905b8154815290600101906020018083116130cb57829003601f168201915b505050505090806005018054600181600116156101000203166002900480601f0160208091040260200160405190810160405280929190818152602001828054600181600116156101000203166002900480156131865780601f1061315b57610100808354040283529160200191613186565b820191906000526020600020905b81548152906001019060200180831161316957829003601f168201915b505050505090806006018054600181600116156101000203166002900480601f0160208091040260200160405190810160405280929190818152602001828054600181600116156101000203166002900480156132245780601f106131f957610100808354040283529160200191613224565b820191906000526020600020905b81548152906001019060200180831161320757829003601f168201915b5050505050905087565b60008060003373ffffffffffffffffffffffffffffffffffffffff1673ffffffffffffffffffffffffffffffffffffffff1681526020019081526020016000208054600181600116156101000203166002900490501461328d57600080fd5b6002600081548092919060010191905055506040518060e0016040528060025481526020013373ffffffffffffffffffffffffffffffffffffffff168152602001868152602001858152602001848152602001838152602001828152506009600060025481526020019081526020016000206000820151816000015560208201518160010160006101000a81548173ffffffffffffffffffffffffffffffffffffffff021916908373ffffffffffffffffffffffffffffffffffffffff160217905550604082015181600201908051906020019061336c9291906143a6565b506060820151816003015560808201518160040190805190602001906133939291906143a6565b5060a08201518160050190805190602001906133b09291906143a6565b5060c08201518160060190805190602001906133cd9291906143a6565b509050506040518060400160405280600181526020017f32000000000000000000000000000000000000000000000000000000000000008152506000803373ffffffffffffffffffffffffffffffffffffffff1673ffffffffffffffffffffffffffffffffffffffff1681526020019081526020016000209080519060200190613458929190614426565b505050505050565b60025481565b60086020528060005260406000206000915090508060000154908060010160009054906101000a900473ffffffffffffffffffffffffffffffffffffffff1690806002018054600181600116156101000203166002900480601f01602080910402602001604051908101604052809291908181526020018280546001816001161561010002031660029004801561353e5780601f106135135761010080835404028352916020019161353e565b820191906000526020600020905b81548152906001019060200180831161352157829003601f168201915b505050505090806003018054600181600116156101000203166002900480601f0160208091040260200160405190810160405280929190818152602001828054600181600116156101000203166002900480156135dc5780601f106135b1576101008083540402835291602001916135dc565b820191906000526020600020905b8154815290600101906020018083116135bf57829003601f168201915b505050505090806004018054600181600116156101000203166002900480601f01602080910402602001604051908101604052809291908181526020018280546001816001161561010002031660029004801561367a5780601f1061364f5761010080835404028352916020019161367a565b820191906000526020600020905b81548152906001019060200180831161365d57829003601f168201915b505050505090806005018054600181600116156101000203166002900480601f0160208091040260200160405190810160405280929190818152602001828054600181600116156101000203166002900480156137185780601f106136ed57610100808354040283529160200191613718565b820191906000526020600020905b8154815290600101906020018083116136fb57829003601f168201915b505050505090806006018054600181600116156101000203166002900480601f0160208091040260200160405190810160405280929190818152602001828054600181600116156101000203166002900480156137b65780601f1061378b576101008083540402835291602001916137b6565b820191906000526020600020905b81548152906001019060200180831161379957829003601f168201915b5050505050905087565b600a6020528060005260406000206000915090508060000154908060010160009054906101000a900473ffffffffffffffffffffffffffffffffffffffff1690806002018054600181600116156101000203166002900480601f0160208091040260200160405190810160405280929190818152602001828054600181600116156101000203166002900480156138985780601f1061386d57610100808354040283529160200191613898565b820191906000526020600020905b81548152906001019060200180831161387b57829003601f168201915b505050505090806003018054600181600116156101000203166002900480601f0160208091040260200160405190810160405280929190818152602001828054600181600116156101000203166002900480156139365780601f1061390b57610100808354040283529160200191613936565b820191906000526020600020905b81548152906001019060200180831161391957829003601f168201915b505050505090806004018054600181600116156101000203166002900480601f0160208091040260200160405190810160405280929190818152602001828054600181600116156101000203166002900480156139d45780601f106139a9576101008083540402835291602001916139d4565b820191906000526020600020905b8154815290600101906020018083116139b757829003601f168201915b505050505090806005018054600181600116156101000203166002900480601f016020809104026020016040519081016040528092919081815260200182805460018160011615610100020316600290048015613a725780601f10613a4757610100808354040283529160200191613a72565b820191906000526020600020905b815481529060010190602001808311613a5557829003601f168201915b5050505050905086565b600b6020528060005260406000206000915090508060000154908060010160009054906101000a900473ffffffffffffffffffffffffffffffffffffffff1690806002018054600181600116156101000203166002900480601f016020809104026020016040519081016040528092919081815260200182805460018160011615610100020316600290048015613b545780601f10613b2957610100808354040283529160200191613b54565b820191906000526020600020905b815481529060010190602001808311613b3757829003601f168201915b505050505090806003015490806004015490806005018054600181600116156101000203166002900480601f016020809104026020016040519081016040528092919081815260200182805460018160011615610100020316600290048015613bfe5780601f10613bd357610100808354040283529160200191613bfe565b820191906000526020600020905b815481529060010190602001808311613be157829003601f168201915b505050505090806006018054600181600116156101000203166002900480601f016020809104026020016040519081016040528092919081815260200182805460018160011615610100020316600290048015613c9c5780601f10613c7157610100808354040283529160200191613c9c565b820191906000526020600020905b815481529060010190602001808311613c7f57829003601f168201915b505050505090806007018054600181600116156101000203166002900480601f016020809104026020016040519081016040528092919081815260200182805460018160011615610100020316600290048015613d3a5780601f10613d0f57610100808354040283529160200191613d3a565b820191906000526020600020905b815481529060010190602001808311613d1d57829003601f168201915b5050505050905088565b60006020528060005260406000206000915090508054600181600116156101000203166002900480601f016020809104026020016040519081016040528092919081815260200182805460018160011615610100020316600290048015613dec5780601f10613dc157610100808354040283529160200191613dec565b820191906000526020600020905b815481529060010190602001808311613dcf57829003601f168201915b505050505081565b60045481565b60008060003373ffffffffffffffffffffffffffffffffffffffff1673ffffffffffffffffffffffffffffffffffffffff16815260200190815260200160002080546001816001161561010002031660029004905014613e5957600080fd5b60046000815480929190600101919050555060405180610100016040528060045481526020013373ffffffffffffffffffffffffffffffffffffffff16815260200187815260200186815260200185815260200184815260200183815260200182815250600b600060045481526020019081526020016000206000820151816000015560208201518160010160006101000a81548173ffffffffffffffffffffffffffffffffffffffff021916908373ffffffffffffffffffffffffffffffffffffffff1602179055506040820151816002019080519060200190613f3f9291906143a6565b50606082015181600301556080820151816004015560a0820151816005019080519060200190613f709291906143a6565b5060c0820151816006019080519060200190613f8d9291906143a6565b5060e0820151816007019080519060200190613faa9291906143a6565b509050506040518060400160405280600181526020017f33000000000000000000000000000000000000000000000000000000000000008152506000803373ffffffffffffffffffffffffffffffffffffffff1673ffffffffffffffffffffffffffffffffffffffff1681526020019081526020016000209080519060200190614035929190614426565b50505050505050565b600d602052806000526040600020600091509050806000015490806001015490806002015490806003018054600181600116156101000203166002900480601f0160208091040260200160405190810160405280929190818152602001828054600181600116156101000203166002900480156140fc5780601f106140d1576101008083540402835291602001916140fc565b820191906000526020600020905b8154815290600101906020018083116140df57829003601f168201915b5050505050905084565b6040518060c001604052808681526020013373ffffffffffffffffffffffffffffffffffffffff16815260200185815260200184815260200183815260200182815250600a60008781526020019081526020016000206000820151816000015560208201518160010160006101000a81548173ffffffffffffffffffffffffffffffffffffffff021916908373ffffffffffffffffffffffffffffffffffffffff16021790555060408201518160020190805190602001906141c99291906143a6565b5060608201518160030190805190602001906141e69291906143a6565b5060808201518160040190805190602001906142039291906143a6565b5060a08201518160050190805190602001906142209291906143a6565b509050505050505050565b60055481565b60065481565b6040518060e001604052808781526020013373ffffffffffffffffffffffffffffffffffffffff16815260200186815260200185815260200184815260200183815260200182815250600860008881526020019081526020016000206000820151816000015560208201518160010160006101000a81548173ffffffffffffffffffffffffffffffffffffffff021916908373ffffffffffffffffffffffffffffffffffffffff16021790555060408201518160020190805190602001906143009291906143a6565b50606082015181600301908051906020019061431d9291906143a6565b50608082015181600401908051906020019061433a9291906143a6565b5060a08201518160050190805190602001906143579291906143a6565b5060c08201518160060190805190602001906143749291906143a6565b50905050505050505050565b600760009054906101000a900473ffffffffffffffffffffffffffffffffffffffff1681565b828054600181600116156101000203166002900490600052602060002090601f016020900481019282601f106143e757805160ff1916838001178555614415565b82800160010185558215614415579182015b828111156144145782518255916020019190600101906143f9565b5b50905061442291906144a6565b5090565b828054600181600116156101000203166002900490600052602060002090601f016020900481019282601f1061446757805160ff1916838001178555614495565b82800160010185558215614495579182015b82811115614494578251825591602001919060010190614479565b5b5090506144a291906144a6565b5090565b6144c891905b808211156144c45760008160009055506001016144ac565b5090565b9056fea265627a7a72315820f950426d09fd5f5309f4490050479cf555c979cbdf597cfb0659e2ee16b3c85764736f6c63430005100032",
  "source": "\r\npragma solidity >=0.4.22 <0.8.0;\r\ncontract HealthCare { \r\n  mapping(address => string) public roles; \r\n  uint public hospitalCount = 0;\r\n  uint public doctorCount = 0;\r\n  uint public insuranceCount = 0;\r\n  uint public patientCount = 0;\r\n  uint public appointmentCount = 0;\r\n  uint public fileSharingCount = 0;\r\n  address public admin; \r\n  struct Hospital {\r\n    uint id;\r\n    address addr;\r\n    string name;\r\n    string regId;    \r\n    string description;\r\n    string _approved;\r\n    string extrafields;\r\n  }\r\n  mapping(uint => Hospital) public hospitals;\r\n  struct Doctor {\r\n    uint id;\r\n    address addr;\r\n    string name;\r\n    uint hospitalid;\r\n    string regId;   \r\n    string _approved;\r\n    string extrafields;\r\n  }\r\n  mapping(uint => Doctor) public doctors;\r\n  struct InsuranceProvider {\r\n    uint id;\r\n    address addr;\r\n    string name;    \r\n    string regId;   \r\n    string _approved;\r\n    string extrafields;\r\n  }\r\n  mapping(uint => InsuranceProvider) public insuranceproviders ;\r\n  struct Patient {\r\n    uint id;\r\n    address addr;\r\n    string name;    \r\n    uint insuranceProviderid;   \r\n    uint familyDoctorid; \r\n    string _approved;\r\n    string extrafields;\r\n    string filehashes;\r\n  }\r\n  mapping(uint => Patient) public patients;\r\n  struct Appointment {\r\n    uint id;       \r\n    uint patientid;   \r\n    uint doctorid;     \r\n    string date; \r\n    string time;   \r\n  }\r\n  mapping(uint => Appointment) public appointments;\r\n  struct FileSharing {\r\n    uint id;       \r\n    uint patientid;   \r\n    uint doctorid;     \r\n    string filehash;      \r\n  }\r\n  mapping(uint => FileSharing) public filesharings;\r\n  constructor() public {  \r\n    admin=msg.sender;    \r\n  }\r\n  function registerHospital (string memory _name,string memory _regId,string memory _description,string memory _approved,string memory _extrafields) public {\r\n        require(bytes(roles[msg.sender]).length==0);\r\n        hospitalCount ++;\r\n        hospitals[hospitalCount] = Hospital(hospitalCount,msg.sender,_name,_regId,_description,_approved,_extrafields);    \r\n        roles[msg.sender]=\"1\";   \r\n        //emit registeredEvent(msg.sender);\r\n    } \r\n     function updateHospital (uint id,string memory _name,string memory _regId,string memory _description,string memory _approved,string memory _extrafields) public {       \r\n        hospitals[id] = Hospital(id,msg.sender,_name,_regId,_description,_approved,_extrafields);    \r\n    } \r\n  function registerDoctor (string memory _name,uint _hospitalId,string memory _regId,string memory _approved,string memory _extrafields) public {\r\n        require(bytes(roles[msg.sender]).length==0);\r\n        doctorCount ++;\r\n        doctors[doctorCount] = Doctor(doctorCount,msg.sender,_name,_hospitalId,_regId,_approved,_extrafields);    \r\n        roles[msg.sender]=\"2\";   \r\n        //emit registeredEvent(msg.sender);\r\n    } \r\n    function updaterDoctor (uint id,string memory _name,uint _hospitalId,string memory _regId,string memory _approved,string memory _extrafields) public {\r\n        doctors[id] = Doctor(id,msg.sender,_name,_hospitalId,_regId,_approved,_extrafields);   \r\n    } \r\n     function registerPatient (string memory _name,uint _insuranceProviderId,uint _familyDoctorId,string memory _approved,string memory _extrafields,string memory _filehashes) public {\r\n        require(bytes(roles[msg.sender]).length==0);\r\n        patientCount ++;\r\n        patients[patientCount] = Patient(patientCount,msg.sender,_name,_insuranceProviderId,_familyDoctorId,_approved,_extrafields,_filehashes);    \r\n        roles[msg.sender]=\"3\";   \r\n        //emit registeredEvent(msg.sender);\r\n    } \r\n    function updatePatient (uint id,string memory _name,uint _insuranceProviderId,uint _familyDoctorId,string memory _approved,string memory _extrafields,string memory _filehashes) public {\r\n        patients[id] = Patient(id,msg.sender,_name,_insuranceProviderId,_familyDoctorId,_approved,_extrafields,_filehashes);    \r\n    } \r\n    function registerInsuranceProvider (string memory _name,string memory _regId,string memory _approved,string memory _extrafields) public {\r\n        require(bytes(roles[msg.sender]).length==0);\r\n        insuranceCount ++;\r\n        insuranceproviders[insuranceCount] = InsuranceProvider(insuranceCount,msg.sender,_name,_regId,_approved,_extrafields);    \r\n        roles[msg.sender]=\"4\";   \r\n        //emit registeredEvent(msg.sender);\r\n    } \r\n    function updateInsuranceProvider (uint id,string memory _name,string memory _regId,string memory _approved,string memory _extrafields) public {\r\n        insuranceproviders[id] = InsuranceProvider(id,msg.sender,_name,_regId,_approved,_extrafields);\r\n    } \r\n    function addAppointment (uint _patientid,uint _doctorid,string memory _date,string memory _time ) public {\r\n        //require(bytes(roles[msg.sender]).length==0);\r\n        appointmentCount ++;\r\n        appointments[appointmentCount] = Appointment(appointmentCount,_patientid,_doctorid,_date,_time);    \r\n        \r\n        //emit registeredEvent(msg.sender);\r\n    } \r\n    function addFileSharing (uint _patientid,uint _doctorid,string memory _filehash ) public {\r\n        //require(bytes(roles[msg.sender]).length==0);\r\n        fileSharingCount ++;\r\n        filesharings[fileSharingCount] = FileSharing(fileSharingCount,_patientid,_doctorid,_filehash);    \r\n        \r\n        //emit registeredEvent(msg.sender);\r\n    } \r\n\r\n}\r\n",
  "sourcePath": "F:/SharanBlockchain/contracts/HealthCare.sol",
  "compiler": {
    "name": "solc",
    "version": "0.5.16+commit.9c3226ce.Emscripten.clang"
  },
  "schemaVersion": "3.3.3",
  "updatedAt": "2021-03-02T17:04:53.316Z",
  "networkType": "ethereum",
  "devdoc": {
    "methods": {}
  },
  "userdoc": {
    "methods": {}
  }
}