{
  "contractName": "HealthCare",
  "abi": [
    {
      "inputs": [],
      "payable": false,
      "stateMutability": "nonpayable",
      "type": "constructor"
    },
    {
      "constant": true,
      "inputs": [],
      "name": "admin",
      "outputs": [
        {
          "internalType": "address",
          "name": "",
          "type": "address"
        }
      ],
      "payable": false,
      "stateMutability": "view",
      "type": "function"
    },
    {
      "constant": true,
      "inputs": [],
      "name": "appointmentCount",
      "outputs": [
        {
          "internalType": "uint256",
          "name": "",
          "type": "uint256"
        }
      ],
      "payable": false,
      "stateMutability": "view",
      "type": "function"
    },
    {
      "constant": true,
      "inputs": [
        {
          "internalType": "uint256",
          "name": "",
          "type": "uint256"
        }
      ],
      "name": "appointments",
      "outputs": [
        {
          "internalType": "uint256",
          "name": "id",
          "type": "uint256"
        },
        {
          "internalType": "uint256",
          "name": "patientid",
          "type": "uint256"
        },
        {
          "internalType": "uint256",
          "name": "doctorid",
          "type": "uint256"
        },
        {
          "internalType": "string",
          "name": "date",
          "type": "string"
        },
        {
          "internalType": "string",
          "name": "time",
          "type": "string"
        }
      ],
      "payable": false,
      "stateMutability": "view",
      "type": "function"
    },
    {
      "constant": true,
      "inputs": [],
      "name": "doctorCount",
      "outputs": [
        {
          "internalType": "uint256",
          "name": "",
          "type": "uint256"
        }
      ],
      "payable": false,
      "stateMutability": "view",
      "type": "function"
    },
    {
      "constant": true,
      "inputs": [
        {
          "internalType": "uint256",
          "name": "",
          "type": "uint256"
        }
      ],
      "name": "doctors",
      "outputs": [
        {
          "internalType": "uint256",
          "name": "id",
          "type": "uint256"
        },
        {
          "internalType": "address",
          "name": "addr",
          "type": "address"
        },
        {
          "internalType": "string",
          "name": "name",
          "type": "string"
        },
        {
          "internalType": "uint256",
          "name": "hospitalid",
          "type": "uint256"
        },
        {
          "internalType": "string",
          "name": "regId",
          "type": "string"
        },
        {
          "internalType": "string",
          "name": "_approved",
          "type": "string"
        },
        {
          "internalType": "string",
          "name": "extrafields",
          "type": "string"
        }
      ],
      "payable": false,
      "stateMutability": "view",
      "type": "function"
    },
    {
      "constant": true,
      "inputs": [],
      "name": "hospitalCount",
      "outputs": [
        {
          "internalType": "uint256",
          "name": "",
          "type": "uint256"
        }
      ],
      "payable": false,
      "stateMutability": "view",
      "type": "function"
    },
    {
      "constant": true,
      "inputs": [
        {
          "internalType": "uint256",
          "name": "",
          "type": "uint256"
        }
      ],
      "name": "hospitals",
      "outputs": [
        {
          "internalType": "uint256",
          "name": "id",
          "type": "uint256"
        },
        {
          "internalType": "address",
          "name": "addr",
          "type": "address"
        },
        {
          "internalType": "string",
          "name": "name",
          "type": "string"
        },
        {
          "internalType": "string",
          "name": "regId",
          "type": "string"
        },
        {
          "internalType": "string",
          "name": "description",
          "type": "string"
        },
        {
          "internalType": "string",
          "name": "_approved",
          "type": "string"
        },
        {
          "internalType": "string",
          "name": "extrafields",
          "type": "string"
        }
      ],
      "payable": false,
      "stateMutability": "view",
      "type": "function"
    },
    {
      "constant": true,
      "inputs": [],
      "name": "insuranceCount",
      "outputs": [
        {
          "internalType": "uint256",
          "name": "",
          "type": "uint256"
        }
      ],
      "payable": false,
      "stateMutability": "view",
      "type": "function"
    },
    {
      "constant": true,
      "inputs": [
        {
          "internalType": "uint256",
          "name": "",
          "type": "uint256"
        }
      ],
      "name": "insuranceproviders",
      "outputs": [
        {
          "internalType": "uint256",
          "name": "id",
          "type": "uint256"
        },
        {
          "internalType": "address",
          "name": "addr",
          "type": "address"
        },
        {
          "internalType": "string",
          "name": "name",
          "type": "string"
        },
        {
          "internalType": "string",
          "name": "regId",
          "type": "string"
        },
        {
          "internalType": "string",
          "name": "_approved",
          "type": "string"
        },
        {
          "internalType": "string",
          "name": "extrafields",
          "type": "string"
        }
      ],
      "payable": false,
      "stateMutability": "view",
      "type": "function"
    },
    {
      "constant": true,
      "inputs": [],
      "name": "patientCount",
      "outputs": [
        {
          "internalType": "uint256",
          "name": "",
          "type": "uint256"
        }
      ],
      "payable": false,
      "stateMutability": "view",
      "type": "function"
    },
    {
      "constant": true,
      "inputs": [
        {
          "internalType": "uint256",
          "name": "",
          "type": "uint256"
        }
      ],
      "name": "patients",
      "outputs": [
        {
          "internalType": "uint256",
          "name": "id",
          "type": "uint256"
        },
        {
          "internalType": "address",
          "name": "addr",
          "type": "address"
        },
        {
          "internalType": "string",
          "name": "name",
          "type": "string"
        },
        {
          "internalType": "uint256",
          "name": "insuranceProviderid",
          "type": "uint256"
        },
        {
          "internalType": "uint256",
          "name": "familyDoctorid",
          "type": "uint256"
        },
        {
          "internalType": "string",
          "name": "_approved",
          "type": "string"
        },
        {
          "internalType": "string",
          "name": "extrafields",
          "type": "string"
        },
        {
          "internalType": "string",
          "name": "filehashes",
          "type": "string"
        }
      ],
      "payable": false,
      "stateMutability": "view",
      "type": "function"
    },
    {
      "constant": true,
      "inputs": [
        {
          "internalType": "address",
          "name": "",
          "type": "address"
        }
      ],
      "name": "roles",
      "outputs": [
        {
          "internalType": "string",
          "name": "",
          "type": "string"
        }
      ],
      "payable": false,
      "stateMutability": "view",
      "type": "function"
    },
    {
      "constant": false,
      "inputs": [
        {
          "internalType": "string",
          "name": "_name",
          "type": "string"
        },
        {
          "internalType": "string",
          "name": "_regId",
          "type": "string"
        },
        {
          "internalType": "string",
          "name": "_description",
          "type": "string"
        },
        {
          "internalType": "string",
          "name": "_approved",
          "type": "string"
        },
        {
          "internalType": "string",
          "name": "_extrafields",
          "type": "string"
        }
      ],
      "name": "registerHospital",
      "outputs": [],
      "payable": false,
      "stateMutability": "nonpayable",
      "type": "function"
    },
    {
      "constant": false,
      "inputs": [
        {
          "internalType": "string",
          "name": "_name",
          "type": "string"
        },
        {
          "internalType": "uint256",
          "name": "_hospitalId",
          "type": "uint256"
        },
        {
          "internalType": "string",
          "name": "_regId",
          "type": "string"
        },
        {
          "internalType": "string",
          "name": "_approved",
          "type": "string"
        },
        {
          "internalType": "string",
          "name": "_extrafields",
          "type": "string"
        }
      ],
      "name": "registerDoctor",
      "outputs": [],
      "payable": false,
      "stateMutability": "nonpayable",
      "type": "function"
    },
    {
      "constant": false,
      "inputs": [
        {
          "internalType": "string",
          "name": "_name",
          "type": "string"
        },
        {
          "internalType": "uint256",
          "name": "_insuranceProviderId",
          "type": "uint256"
        },
        {
          "internalType": "uint256",
          "name": "_familyDoctorId",
          "type": "uint256"
        },
        {
          "internalType": "string",
          "name": "_approved",
          "type": "string"
        },
        {
          "internalType": "string",
          "name": "_extrafields",
          "type": "string"
        },
        {
          "internalType": "string",
          "name": "_filehashes",
          "type": "string"
        }
      ],
      "name": "registerPatient",
      "outputs": [],
      "payable": false,
      "stateMutability": "nonpayable",
      "type": "function"
    },
    {
      "constant": false,
      "inputs": [
        {
          "internalType": "string",
          "name": "_name",
          "type": "string"
        },
        {
          "internalType": "string",
          "name": "_regId",
          "type": "string"
        },
        {
          "internalType": "string",
          "name": "_approved",
          "type": "string"
        },
        {
          "internalType": "string",
          "name": "_extrafields",
          "type": "string"
        }
      ],
      "name": "registerInsuranceProvider",
      "outputs": [],
      "payable": false,
      "stateMutability": "nonpayable",
      "type": "function"
    },
    {
      "constant": false,
      "inputs": [
        {
          "internalType": "uint256",
          "name": "_patientid",
          "type": "uint256"
        },
        {
          "internalType": "uint256",
          "name": "_doctorid",
          "type": "uint256"
        },
        {
          "internalType": "string",
          "name": "_date",
          "type": "string"
        },
        {
          "internalType": "string",
          "name": "_time",
          "type": "string"
        }
      ],
      "name": "addAppointment",
      "outputs": [],
      "payable": false,
      "stateMutability": "nonpayable",
      "type": "function"
    }
  ],
  "bytecode": "0x60806040526000600155600060025560006003556000600455600060055534801561002957600080fd5b5033600660006101000a81548173ffffffffffffffffffffffffffffffffffffffff021916908373ffffffffffffffffffffffffffffffffffffffff1602179055506131e68061007a6000396000f3fe608060405234801561001057600080fd5b506004361061010b5760003560e01c806378522bc4116100a25780639937464211610071578063993746421461152e578063a0303c41146115eb578063b18bd12c14611609578063eebc3fb21461189d578063f851a440146118bb5761010b565b806378522bc414610e2757806381dc6fd214610e4557806388708845146110d657806393119a83146112fb5761010b565b8063350dadb7116100de578063350dadb714610935578063521a6e94146109535780636efb1b8414610971578063727acf8a14610b9d5761010b565b806312dc9013146101105780631c905352146102385780631d0f81681461039e578063283fed0e146106b5575b600080fd5b61013c6004803603602081101561012657600080fd5b8101908080359060200190929190505050611905565b604051808681526020018581526020018481526020018060200180602001838103835285818151815260200191508051906020019080838360005b83811015610192578082015181840152602081019050610177565b50505050905090810190601f1680156101bf5780820380516001836020036101000a031916815260200191505b50838103825284818151815260200191508051906020019080838360005b838110156101f85780820151818401526020810190506101dd565b50505050905090810190601f1680156102255780820380516001836020036101000a031916815260200191505b5097505050505050505060405180910390f35b61039c6004803603608081101561024e57600080fd5b8101908080359060200190929190803590602001909291908035906020019064010000000081111561027f57600080fd5b82018360208201111561029157600080fd5b803590602001918460018302840111640100000000831117156102b357600080fd5b91908080601f016020809104026020016040519081016040528093929190818152602001838380828437600081840152601f19601f8201169050808301925050505050505091929192908035906020019064010000000081111561031657600080fd5b82018360208201111561032857600080fd5b8035906020019184600183028401116401000000008311171561034a57600080fd5b91908080601f016020809104026020016040519081016040528093929190818152602001838380828437600081840152601f19601f820116905080830192505050505050509192919290505050611a6b565b005b6106b3600480360360a08110156103b457600080fd5b81019080803590602001906401000000008111156103d157600080fd5b8201836020820111156103e357600080fd5b8035906020019184600183028401116401000000008311171561040557600080fd5b91908080601f016020809104026020016040519081016040528093929190818152602001838380828437600081840152601f19601f8201169050808301925050505050505091929192908035906020019064010000000081111561046857600080fd5b82018360208201111561047a57600080fd5b8035906020019184600183028401116401000000008311171561049c57600080fd5b91908080601f016020809104026020016040519081016040528093929190818152602001838380828437600081840152601f19601f820116905080830192505050505050509192919290803590602001906401000000008111156104ff57600080fd5b82018360208201111561051157600080fd5b8035906020019184600183028401116401000000008311171561053357600080fd5b91908080601f016020809104026020016040519081016040528093929190818152602001838380828437600081840152601f19601f8201169050808301925050505050505091929192908035906020019064010000000081111561059657600080fd5b8201836020820111156105a857600080fd5b803590602001918460018302840111640100000000831117156105ca57600080fd5b91908080601f016020809104026020016040519081016040528093929190818152602001838380828437600081840152601f19601f8201169050808301925050505050505091929192908035906020019064010000000081111561062d57600080fd5b82018360208201111561063f57600080fd5b8035906020019184600183028401116401000000008311171561066157600080fd5b91908080601f016020809104026020016040519081016040528093929190818152602001838380828437600081840152601f19601f820116905080830192505050505050509192919290505050611b1c565b005b610933600480360360808110156106cb57600080fd5b81019080803590602001906401000000008111156106e857600080fd5b8201836020820111156106fa57600080fd5b8035906020019184600183028401116401000000008311171561071c57600080fd5b91908080601f016020809104026020016040519081016040528093929190818152602001838380828437600081840152601f19601f8201169050808301925050505050505091929192908035906020019064010000000081111561077f57600080fd5b82018360208201111561079157600080fd5b803590602001918460018302840111640100000000831117156107b357600080fd5b91908080601f016020809104026020016040519081016040528093929190818152602001838380828437600081840152601f19601f8201169050808301925050505050505091929192908035906020019064010000000081111561081657600080fd5b82018360208201111561082857600080fd5b8035906020019184600183028401116401000000008311171561084a57600080fd5b91908080601f016020809104026020016040519081016040528093929190818152602001838380828437600081840152601f19601f820116905080830192505050505050509192919290803590602001906401000000008111156108ad57600080fd5b8201836020820111156108bf57600080fd5b803590602001918460018302840111640100000000831117156108e157600080fd5b91908080601f016020809104026020016040519081016040528093929190818152602001838380828437600081840152601f19601f820116905080830192505050505050509192919290505050611d61565b005b61093d611f82565b6040518082815260200191505060405180910390f35b61095b611f88565b6040518082815260200191505060405180910390f35b61099d6004803603602081101561098757600080fd5b8101908080359060200190929190505050611f8e565b604051808881526020018773ffffffffffffffffffffffffffffffffffffffff1673ffffffffffffffffffffffffffffffffffffffff1681526020018060200186815260200180602001806020018060200185810385528a818151815260200191508051906020019080838360005b83811015610a27578082015181840152602081019050610a0c565b50505050905090810190601f168015610a545780820380516001836020036101000a031916815260200191505b50858103845288818151815260200191508051906020019080838360005b83811015610a8d578082015181840152602081019050610a72565b50505050905090810190601f168015610aba5780820380516001836020036101000a031916815260200191505b50858103835287818151815260200191508051906020019080838360005b83811015610af3578082015181840152602081019050610ad8565b50505050905090810190601f168015610b205780820380516001836020036101000a031916815260200191505b50858103825286818151815260200191508051906020019080838360005b83811015610b59578082015181840152602081019050610b3e565b50505050905090810190601f168015610b865780820380516001836020036101000a031916815260200191505b509b50505050505050505050505060405180910390f35b610e25600480360360a0811015610bb357600080fd5b8101908080359060200190640100000000811115610bd057600080fd5b820183602082011115610be257600080fd5b80359060200191846001830284011164010000000083111715610c0457600080fd5b91908080601f016020809104026020016040519081016040528093929190818152602001838380828437600081840152601f19601f8201169050808301925050505050505091929192908035906020019092919080359060200190640100000000811115610c7157600080fd5b820183602082011115610c8357600080fd5b80359060200191846001830284011164010000000083111715610ca557600080fd5b91908080601f016020809104026020016040519081016040528093929190818152602001838380828437600081840152601f19601f82011690508083019250505050505050919291929080359060200190640100000000811115610d0857600080fd5b820183602082011115610d1a57600080fd5b80359060200191846001830284011164010000000083111715610d3c57600080fd5b91908080601f016020809104026020016040519081016040528093929190818152602001838380828437600081840152601f19601f82011690508083019250505050505050919291929080359060200190640100000000811115610d9f57600080fd5b820183602082011115610db157600080fd5b80359060200191846001830284011164010000000083111715610dd357600080fd5b91908080601f016020809104026020016040519081016040528093929190818152602001838380828437600081840152601f19601f820116905080830192505050505050509192919290505050612250565b005b610e2f612482565b6040518082815260200191505060405180910390f35b610e7160048036036020811015610e5b57600080fd5b8101908080359060200190929190505050612488565b604051808881526020018773ffffffffffffffffffffffffffffffffffffffff1673ffffffffffffffffffffffffffffffffffffffff168152602001806020018060200180602001806020018060200186810386528b818151815260200191508051906020019080838360005b83811015610ef9578082015181840152602081019050610ede565b50505050905090810190601f168015610f265780820380516001836020036101000a031916815260200191505b5086810385528a818151815260200191508051906020019080838360005b83811015610f5f578082015181840152602081019050610f44565b50505050905090810190601f168015610f8c5780820380516001836020036101000a031916815260200191505b50868103845289818151815260200191508051906020019080838360005b83811015610fc5578082015181840152602081019050610faa565b50505050905090810190601f168015610ff25780820380516001836020036101000a031916815260200191505b50868103835288818151815260200191508051906020019080838360005b8381101561102b578082015181840152602081019050611010565b50505050905090810190601f1680156110585780820380516001836020036101000a031916815260200191505b50868103825287818151815260200191508051906020019080838360005b83811015611091578082015181840152602081019050611076565b50505050905090810190601f1680156110be5780820380516001836020036101000a031916815260200191505b509c5050505050505050505050505060405180910390f35b611102600480360360208110156110ec57600080fd5b81019080803590602001909291905050506127e2565b604051808781526020018673ffffffffffffffffffffffffffffffffffffffff1673ffffffffffffffffffffffffffffffffffffffff16815260200180602001806020018060200180602001858103855289818151815260200191508051906020019080838360005b8381101561118657808201518184015260208101905061116b565b50505050905090810190601f1680156111b35780820380516001836020036101000a031916815260200191505b50858103845288818151815260200191508051906020019080838360005b838110156111ec5780820151818401526020810190506111d1565b50505050905090810190601f1680156112195780820380516001836020036101000a031916815260200191505b50858103835287818151815260200191508051906020019080838360005b83811015611252578082015181840152602081019050611237565b50505050905090810190601f16801561127f5780820380516001836020036101000a031916815260200191505b50858103825286818151815260200191508051906020019080838360005b838110156112b857808201518184015260208101905061129d565b50505050905090810190601f1680156112e55780820380516001836020036101000a031916815260200191505b509a505050505050505050505060405180910390f35b6113276004803603602081101561131157600080fd5b8101908080359060200190929190505050612a9e565b604051808981526020018873ffffffffffffffffffffffffffffffffffffffff1673ffffffffffffffffffffffffffffffffffffffff1681526020018060200187815260200186815260200180602001806020018060200185810385528b818151815260200191508051906020019080838360005b838110156113b757808201518184015260208101905061139c565b50505050905090810190601f1680156113e45780820380516001836020036101000a031916815260200191505b50858103845288818151815260200191508051906020019080838360005b8381101561141d578082015181840152602081019050611402565b50505050905090810190601f16801561144a5780820380516001836020036101000a031916815260200191505b50858103835287818151815260200191508051906020019080838360005b83811015611483578082015181840152602081019050611468565b50505050905090810190601f1680156114b05780820380516001836020036101000a031916815260200191505b50858103825286818151815260200191508051906020019080838360005b838110156114e95780820151818401526020810190506114ce565b50505050905090810190601f1680156115165780820380516001836020036101000a031916815260200191505b509c5050505050505050505050505060405180910390f35b6115706004803603602081101561154457600080fd5b81019080803573ffffffffffffffffffffffffffffffffffffffff169060200190929190505050612d66565b6040518080602001828103825283818151815260200191508051906020019080838360005b838110156115b0578082015181840152602081019050611595565b50505050905090810190601f1680156115dd5780820380516001836020036101000a031916815260200191505b509250505060405180910390f35b6115f3612e16565b6040518082815260200191505060405180910390f35b61189b600480360360c081101561161f57600080fd5b810190808035906020019064010000000081111561163c57600080fd5b82018360208201111561164e57600080fd5b8035906020019184600183028401116401000000008311171561167057600080fd5b91908080601f016020809104026020016040519081016040528093929190818152602001838380828437600081840152601f19601f8201169050808301925050505050505091929192908035906020019092919080359060200190929190803590602001906401000000008111156116e757600080fd5b8201836020820111156116f957600080fd5b8035906020019184600183028401116401000000008311171561171b57600080fd5b91908080601f016020809104026020016040519081016040528093929190818152602001838380828437600081840152601f19601f8201169050808301925050505050505091929192908035906020019064010000000081111561177e57600080fd5b82018360208201111561179057600080fd5b803590602001918460018302840111640100000000831117156117b257600080fd5b91908080601f016020809104026020016040519081016040528093929190818152602001838380828437600081840152601f19601f8201169050808301925050505050505091929192908035906020019064010000000081111561181557600080fd5b82018360208201111561182757600080fd5b8035906020019184600183028401116401000000008311171561184957600080fd5b91908080601f016020809104026020016040519081016040528093929190818152602001838380828437600081840152601f19601f820116905080830192505050505050509192919290505050612e1c565b005b6118a5613060565b6040518082815260200191505060405180910390f35b6118c3613066565b604051808273ffffffffffffffffffffffffffffffffffffffff1673ffffffffffffffffffffffffffffffffffffffff16815260200191505060405180910390f35b600b602052806000526040600020600091509050806000015490806001015490806002015490806003018054600181600116156101000203166002900480601f0160208091040260200160405190810160405280929190818152602001828054600181600116156101000203166002900480156119c35780601f10611998576101008083540402835291602001916119c3565b820191906000526020600020905b8154815290600101906020018083116119a657829003601f168201915b505050505090806004018054600181600116156101000203166002900480601f016020809104026020016040519081016040528092919081815260200182805460018160011615610100020316600290048015611a615780601f10611a3657610100808354040283529160200191611a61565b820191906000526020600020905b815481529060010190602001808311611a4457829003601f168201915b5050505050905085565b6005600081548092919060010191905055506040518060a00160405280600554815260200185815260200184815260200183815260200182815250600b600060055481526020019081526020016000206000820151816000015560208201518160010155604082015181600201556060820151816003019080519060200190611af592919061308c565b506080820151816004019080519060200190611b1292919061308c565b5090505050505050565b60008060003373ffffffffffffffffffffffffffffffffffffffff1673ffffffffffffffffffffffffffffffffffffffff16815260200190815260200160002080546001816001161561010002031660029004905014611b7b57600080fd5b6001600081548092919060010191905055506040518060e0016040528060015481526020013373ffffffffffffffffffffffffffffffffffffffff168152602001868152602001858152602001848152602001838152602001828152506007600060015481526020019081526020016000206000820151816000015560208201518160010160006101000a81548173ffffffffffffffffffffffffffffffffffffffff021916908373ffffffffffffffffffffffffffffffffffffffff1602179055506040820151816002019080519060200190611c5a92919061308c565b506060820151816003019080519060200190611c7792919061308c565b506080820151816004019080519060200190611c9492919061308c565b5060a0820151816005019080519060200190611cb192919061308c565b5060c0820151816006019080519060200190611cce92919061308c565b509050506040518060400160405280600181526020017f31000000000000000000000000000000000000000000000000000000000000008152506000803373ffffffffffffffffffffffffffffffffffffffff1673ffffffffffffffffffffffffffffffffffffffff1681526020019081526020016000209080519060200190611d5992919061310c565b505050505050565b60008060003373ffffffffffffffffffffffffffffffffffffffff1673ffffffffffffffffffffffffffffffffffffffff16815260200190815260200160002080546001816001161561010002031660029004905014611dc057600080fd5b6003600081548092919060010191905055506040518060c0016040528060025481526020013373ffffffffffffffffffffffffffffffffffffffff168152602001858152602001848152602001838152602001828152506009600060035481526020019081526020016000206000820151816000015560208201518160010160006101000a81548173ffffffffffffffffffffffffffffffffffffffff021916908373ffffffffffffffffffffffffffffffffffffffff1602179055506040820151816002019080519060200190611e9992919061308c565b506060820151816003019080519060200190611eb692919061308c565b506080820151816004019080519060200190611ed392919061308c565b5060a0820151816005019080519060200190611ef092919061308c565b509050506040518060400160405280600181526020017f34000000000000000000000000000000000000000000000000000000000000008152506000803373ffffffffffffffffffffffffffffffffffffffff1673ffffffffffffffffffffffffffffffffffffffff1681526020019081526020016000209080519060200190611f7b92919061310c565b5050505050565b60015481565b60035481565b60086020528060005260406000206000915090508060000154908060010160009054906101000a900473ffffffffffffffffffffffffffffffffffffffff1690806002018054600181600116156101000203166002900480601f0160208091040260200160405190810160405280929190818152602001828054600181600116156101000203166002900480156120665780601f1061203b57610100808354040283529160200191612066565b820191906000526020600020905b81548152906001019060200180831161204957829003601f168201915b505050505090806003015490806004018054600181600116156101000203166002900480601f01602080910402602001604051908101604052809291908181526020018280546001816001161561010002031660029004801561210a5780601f106120df5761010080835404028352916020019161210a565b820191906000526020600020905b8154815290600101906020018083116120ed57829003601f168201915b505050505090806005018054600181600116156101000203166002900480601f0160208091040260200160405190810160405280929190818152602001828054600181600116156101000203166002900480156121a85780601f1061217d576101008083540402835291602001916121a8565b820191906000526020600020905b81548152906001019060200180831161218b57829003601f168201915b505050505090806006018054600181600116156101000203166002900480601f0160208091040260200160405190810160405280929190818152602001828054600181600116156101000203166002900480156122465780601f1061221b57610100808354040283529160200191612246565b820191906000526020600020905b81548152906001019060200180831161222957829003601f168201915b5050505050905087565b60008060003373ffffffffffffffffffffffffffffffffffffffff1673ffffffffffffffffffffffffffffffffffffffff168152602001908152602001600020805460018160011615610100020316600290049050146122af57600080fd5b6002600081548092919060010191905055506040518060e0016040528060025481526020013373ffffffffffffffffffffffffffffffffffffffff168152602001868152602001858152602001848152602001838152602001828152506008600060025481526020019081526020016000206000820151816000015560208201518160010160006101000a81548173ffffffffffffffffffffffffffffffffffffffff021916908373ffffffffffffffffffffffffffffffffffffffff160217905550604082015181600201908051906020019061238e92919061308c565b506060820151816003015560808201518160040190805190602001906123b592919061308c565b5060a08201518160050190805190602001906123d292919061308c565b5060c08201518160060190805190602001906123ef92919061308c565b509050506040518060400160405280600181526020017f32000000000000000000000000000000000000000000000000000000000000008152506000803373ffffffffffffffffffffffffffffffffffffffff1673ffffffffffffffffffffffffffffffffffffffff168152602001908152602001600020908051906020019061247a92919061310c565b505050505050565b60025481565b60076020528060005260406000206000915090508060000154908060010160009054906101000a900473ffffffffffffffffffffffffffffffffffffffff1690806002018054600181600116156101000203166002900480601f0160208091040260200160405190810160405280929190818152602001828054600181600116156101000203166002900480156125605780601f1061253557610100808354040283529160200191612560565b820191906000526020600020905b81548152906001019060200180831161254357829003601f168201915b505050505090806003018054600181600116156101000203166002900480601f0160208091040260200160405190810160405280929190818152602001828054600181600116156101000203166002900480156125fe5780601f106125d3576101008083540402835291602001916125fe565b820191906000526020600020905b8154815290600101906020018083116125e157829003601f168201915b505050505090806004018054600181600116156101000203166002900480601f01602080910402602001604051908101604052809291908181526020018280546001816001161561010002031660029004801561269c5780601f106126715761010080835404028352916020019161269c565b820191906000526020600020905b81548152906001019060200180831161267f57829003601f168201915b505050505090806005018054600181600116156101000203166002900480601f01602080910402602001604051908101604052809291908181526020018280546001816001161561010002031660029004801561273a5780601f1061270f5761010080835404028352916020019161273a565b820191906000526020600020905b81548152906001019060200180831161271d57829003601f168201915b505050505090806006018054600181600116156101000203166002900480601f0160208091040260200160405190810160405280929190818152602001828054600181600116156101000203166002900480156127d85780601f106127ad576101008083540402835291602001916127d8565b820191906000526020600020905b8154815290600101906020018083116127bb57829003601f168201915b5050505050905087565b60096020528060005260406000206000915090508060000154908060010160009054906101000a900473ffffffffffffffffffffffffffffffffffffffff1690806002018054600181600116156101000203166002900480601f0160208091040260200160405190810160405280929190818152602001828054600181600116156101000203166002900480156128ba5780601f1061288f576101008083540402835291602001916128ba565b820191906000526020600020905b81548152906001019060200180831161289d57829003601f168201915b505050505090806003018054600181600116156101000203166002900480601f0160208091040260200160405190810160405280929190818152602001828054600181600116156101000203166002900480156129585780601f1061292d57610100808354040283529160200191612958565b820191906000526020600020905b81548152906001019060200180831161293b57829003601f168201915b505050505090806004018054600181600116156101000203166002900480601f0160208091040260200160405190810160405280929190818152602001828054600181600116156101000203166002900480156129f65780601f106129cb576101008083540402835291602001916129f6565b820191906000526020600020905b8154815290600101906020018083116129d957829003601f168201915b505050505090806005018054600181600116156101000203166002900480601f016020809104026020016040519081016040528092919081815260200182805460018160011615610100020316600290048015612a945780601f10612a6957610100808354040283529160200191612a94565b820191906000526020600020905b815481529060010190602001808311612a7757829003601f168201915b5050505050905086565b600a6020528060005260406000206000915090508060000154908060010160009054906101000a900473ffffffffffffffffffffffffffffffffffffffff1690806002018054600181600116156101000203166002900480601f016020809104026020016040519081016040528092919081815260200182805460018160011615610100020316600290048015612b765780601f10612b4b57610100808354040283529160200191612b76565b820191906000526020600020905b815481529060010190602001808311612b5957829003601f168201915b505050505090806003015490806004015490806005018054600181600116156101000203166002900480601f016020809104026020016040519081016040528092919081815260200182805460018160011615610100020316600290048015612c205780601f10612bf557610100808354040283529160200191612c20565b820191906000526020600020905b815481529060010190602001808311612c0357829003601f168201915b505050505090806006018054600181600116156101000203166002900480601f016020809104026020016040519081016040528092919081815260200182805460018160011615610100020316600290048015612cbe5780601f10612c9357610100808354040283529160200191612cbe565b820191906000526020600020905b815481529060010190602001808311612ca157829003601f168201915b505050505090806007018054600181600116156101000203166002900480601f016020809104026020016040519081016040528092919081815260200182805460018160011615610100020316600290048015612d5c5780601f10612d3157610100808354040283529160200191612d5c565b820191906000526020600020905b815481529060010190602001808311612d3f57829003601f168201915b5050505050905088565b60006020528060005260406000206000915090508054600181600116156101000203166002900480601f016020809104026020016040519081016040528092919081815260200182805460018160011615610100020316600290048015612e0e5780601f10612de357610100808354040283529160200191612e0e565b820191906000526020600020905b815481529060010190602001808311612df157829003601f168201915b505050505081565b60045481565b60008060003373ffffffffffffffffffffffffffffffffffffffff1673ffffffffffffffffffffffffffffffffffffffff16815260200190815260200160002080546001816001161561010002031660029004905014612e7b57600080fd5b60046000815480929190600101919050555060405180610100016040528060045481526020013373ffffffffffffffffffffffffffffffffffffffff16815260200187815260200186815260200185815260200184815260200183815260200182815250600a600060045481526020019081526020016000206000820151816000015560208201518160010160006101000a81548173ffffffffffffffffffffffffffffffffffffffff021916908373ffffffffffffffffffffffffffffffffffffffff1602179055506040820151816002019080519060200190612f6192919061308c565b50606082015181600301556080820151816004015560a0820151816005019080519060200190612f9292919061308c565b5060c0820151816006019080519060200190612faf92919061308c565b5060e0820151816007019080519060200190612fcc92919061308c565b509050506040518060400160405280600181526020017f33000000000000000000000000000000000000000000000000000000000000008152506000803373ffffffffffffffffffffffffffffffffffffffff1673ffffffffffffffffffffffffffffffffffffffff168152602001908152602001600020908051906020019061305792919061310c565b50505050505050565b60055481565b600660009054906101000a900473ffffffffffffffffffffffffffffffffffffffff1681565b828054600181600116156101000203166002900490600052602060002090601f016020900481019282601f106130cd57805160ff19168380011785556130fb565b828001600101855582156130fb579182015b828111156130fa5782518255916020019190600101906130df565b5b509050613108919061318c565b5090565b828054600181600116156101000203166002900490600052602060002090601f016020900481019282601f1061314d57805160ff191683800117855561317b565b8280016001018555821561317b579182015b8281111561317a57825182559160200191906001019061315f565b5b509050613188919061318c565b5090565b6131ae91905b808211156131aa576000816000905550600101613192565b5090565b9056fea265627a7a7231582023a12d089a84d2d17448830c9dd2e11f0aff2996b0369baed92c6d221624924864736f6c63430005100032",
  "source": "\r\npragma solidity >=0.4.22 <0.8.0;\r\ncontract HealthCare { \r\n  mapping(address => string) public roles; \r\n  uint public hospitalCount = 0;\r\n  uint public doctorCount = 0;\r\n  uint public insuranceCount = 0;\r\n  uint public patientCount = 0;\r\n  uint public appointmentCount = 0;\r\n  address public admin; \r\n  struct Hospital {\r\n    uint id;\r\n    address addr;\r\n    string name;\r\n    string regId;    \r\n    string description;\r\n    string _approved;\r\n    string extrafields;\r\n  }\r\n  mapping(uint => Hospital) public hospitals;\r\n  struct Doctor {\r\n    uint id;\r\n    address addr;\r\n    string name;\r\n    uint hospitalid;\r\n    string regId;   \r\n    string _approved;\r\n    string extrafields;\r\n  }\r\n  mapping(uint => Doctor) public doctors;\r\n  struct InsuranceProvider {\r\n    uint id;\r\n    address addr;\r\n    string name;    \r\n    string regId;   \r\n    string _approved;\r\n    string extrafields;\r\n  }\r\n  mapping(uint => InsuranceProvider) public insuranceproviders ;\r\n  struct Patient {\r\n    uint id;\r\n    address addr;\r\n    string name;    \r\n    uint insuranceProviderid;   \r\n    uint familyDoctorid; \r\n    string _approved;\r\n    string extrafields;\r\n    string filehashes;\r\n  }\r\n  mapping(uint => Patient) public patients;\r\n  struct Appointment {\r\n    uint id;       \r\n    uint patientid;   \r\n    uint doctorid;     \r\n    string date; \r\n    string time;   \r\n  }\r\n  mapping(uint => Appointment) public appointments;\r\n  constructor() public {  \r\n    admin=msg.sender;    \r\n  }\r\n  function registerHospital (string memory _name,string memory _regId,string memory _description,string memory _approved,string memory _extrafields) public {\r\n        require(bytes(roles[msg.sender]).length==0);\r\n        hospitalCount ++;\r\n        hospitals[hospitalCount] = Hospital(hospitalCount,msg.sender,_name,_regId,_description,_approved,_extrafields);    \r\n        roles[msg.sender]=\"1\";   \r\n        //emit registeredEvent(msg.sender);\r\n    } \r\n  function registerDoctor (string memory _name,uint _hospitalId,string memory _regId,string memory _approved,string memory _extrafields) public {\r\n        require(bytes(roles[msg.sender]).length==0);\r\n        doctorCount ++;\r\n        doctors[doctorCount] = Doctor(doctorCount,msg.sender,_name,_hospitalId,_regId,_approved,_extrafields);    \r\n        roles[msg.sender]=\"2\";   \r\n        //emit registeredEvent(msg.sender);\r\n    } \r\n     function registerPatient (string memory _name,uint _insuranceProviderId,uint _familyDoctorId,string memory _approved,string memory _extrafields,string memory _filehashes) public {\r\n        require(bytes(roles[msg.sender]).length==0);\r\n        patientCount ++;\r\n        patients[patientCount] = Patient(patientCount,msg.sender,_name,_insuranceProviderId,_familyDoctorId,_approved,_extrafields,_filehashes);    \r\n        roles[msg.sender]=\"3\";   \r\n        //emit registeredEvent(msg.sender);\r\n    } \r\n    function registerInsuranceProvider (string memory _name,string memory _regId,string memory _approved,string memory _extrafields) public {\r\n        require(bytes(roles[msg.sender]).length==0);\r\n        insuranceCount ++;\r\n        insuranceproviders[insuranceCount] = InsuranceProvider(doctorCount,msg.sender,_name,_regId,_approved,_extrafields);    \r\n        roles[msg.sender]=\"4\";   \r\n        //emit registeredEvent(msg.sender);\r\n    } \r\n    function addAppointment (uint _patientid,uint _doctorid,string memory _date,string memory _time ) public {\r\n        //require(bytes(roles[msg.sender]).length==0);\r\n        appointmentCount ++;\r\n        appointments[appointmentCount] = Appointment(appointmentCount,_patientid,_doctorid,_date,_time);    \r\n        \r\n        //emit registeredEvent(msg.sender);\r\n    } \r\n}\r\n",
  "sourcePath": "F:/SharanBlockchain/contracts/HealthCare.sol",
  "compiler": {
    "name": "solc",
    "version": "0.5.16+commit.9c3226ce.Emscripten.clang"
  },
  "schemaVersion": "3.3.3",
  "updatedAt": "2021-02-19T09:42:23.459Z",
  "networkType": "ethereum",
  "devdoc": {
    "methods": {}
  },
  "userdoc": {
    "methods": {}
  }
}