{
  "contractName": "HealthCare",
  "abi": [
    {
      "inputs": [],
      "payable": false,
      "stateMutability": "nonpayable",
      "type": "constructor"
    },
    {
      "constant": true,
      "inputs": [],
      "name": "admin",
      "outputs": [
        {
          "internalType": "address",
          "name": "",
          "type": "address"
        }
      ],
      "payable": false,
      "stateMutability": "view",
      "type": "function"
    },
    {
      "constant": true,
      "inputs": [],
      "name": "appointmentCount",
      "outputs": [
        {
          "internalType": "uint256",
          "name": "",
          "type": "uint256"
        }
      ],
      "payable": false,
      "stateMutability": "view",
      "type": "function"
    },
    {
      "constant": true,
      "inputs": [
        {
          "internalType": "uint256",
          "name": "",
          "type": "uint256"
        }
      ],
      "name": "appointments",
      "outputs": [
        {
          "internalType": "uint256",
          "name": "id",
          "type": "uint256"
        },
        {
          "internalType": "uint256",
          "name": "patientid",
          "type": "uint256"
        },
        {
          "internalType": "uint256",
          "name": "doctorid",
          "type": "uint256"
        },
        {
          "internalType": "string",
          "name": "date",
          "type": "string"
        },
        {
          "internalType": "string",
          "name": "time",
          "type": "string"
        }
      ],
      "payable": false,
      "stateMutability": "view",
      "type": "function"
    },
    {
      "constant": true,
      "inputs": [],
      "name": "doctorCount",
      "outputs": [
        {
          "internalType": "uint256",
          "name": "",
          "type": "uint256"
        }
      ],
      "payable": false,
      "stateMutability": "view",
      "type": "function"
    },
    {
      "constant": true,
      "inputs": [
        {
          "internalType": "uint256",
          "name": "",
          "type": "uint256"
        }
      ],
      "name": "doctors",
      "outputs": [
        {
          "internalType": "uint256",
          "name": "id",
          "type": "uint256"
        },
        {
          "internalType": "address",
          "name": "addr",
          "type": "address"
        },
        {
          "internalType": "string",
          "name": "name",
          "type": "string"
        },
        {
          "internalType": "uint256",
          "name": "hospitalid",
          "type": "uint256"
        },
        {
          "internalType": "string",
          "name": "regId",
          "type": "string"
        },
        {
          "internalType": "string",
          "name": "_approved",
          "type": "string"
        },
        {
          "internalType": "string",
          "name": "extrafields",
          "type": "string"
        }
      ],
      "payable": false,
      "stateMutability": "view",
      "type": "function"
    },
    {
      "constant": true,
      "inputs": [],
      "name": "fileSharingCount",
      "outputs": [
        {
          "internalType": "uint256",
          "name": "",
          "type": "uint256"
        }
      ],
      "payable": false,
      "stateMutability": "view",
      "type": "function"
    },
    {
      "constant": true,
      "inputs": [
        {
          "internalType": "uint256",
          "name": "",
          "type": "uint256"
        }
      ],
      "name": "filesharings",
      "outputs": [
        {
          "internalType": "uint256",
          "name": "id",
          "type": "uint256"
        },
        {
          "internalType": "uint256",
          "name": "patientid",
          "type": "uint256"
        },
        {
          "internalType": "uint256",
          "name": "doctorid",
          "type": "uint256"
        },
        {
          "internalType": "string",
          "name": "filehash",
          "type": "string"
        }
      ],
      "payable": false,
      "stateMutability": "view",
      "type": "function"
    },
    {
      "constant": true,
      "inputs": [],
      "name": "hospitalCount",
      "outputs": [
        {
          "internalType": "uint256",
          "name": "",
          "type": "uint256"
        }
      ],
      "payable": false,
      "stateMutability": "view",
      "type": "function"
    },
    {
      "constant": true,
      "inputs": [
        {
          "internalType": "uint256",
          "name": "",
          "type": "uint256"
        }
      ],
      "name": "hospitals",
      "outputs": [
        {
          "internalType": "uint256",
          "name": "id",
          "type": "uint256"
        },
        {
          "internalType": "address",
          "name": "addr",
          "type": "address"
        },
        {
          "internalType": "string",
          "name": "name",
          "type": "string"
        },
        {
          "internalType": "string",
          "name": "regId",
          "type": "string"
        },
        {
          "internalType": "string",
          "name": "description",
          "type": "string"
        },
        {
          "internalType": "string",
          "name": "_approved",
          "type": "string"
        },
        {
          "internalType": "string",
          "name": "extrafields",
          "type": "string"
        }
      ],
      "payable": false,
      "stateMutability": "view",
      "type": "function"
    },
    {
      "constant": true,
      "inputs": [],
      "name": "insuranceCount",
      "outputs": [
        {
          "internalType": "uint256",
          "name": "",
          "type": "uint256"
        }
      ],
      "payable": false,
      "stateMutability": "view",
      "type": "function"
    },
    {
      "constant": true,
      "inputs": [
        {
          "internalType": "uint256",
          "name": "",
          "type": "uint256"
        }
      ],
      "name": "insuranceproviders",
      "outputs": [
        {
          "internalType": "uint256",
          "name": "id",
          "type": "uint256"
        },
        {
          "internalType": "address",
          "name": "addr",
          "type": "address"
        },
        {
          "internalType": "string",
          "name": "name",
          "type": "string"
        },
        {
          "internalType": "string",
          "name": "regId",
          "type": "string"
        },
        {
          "internalType": "string",
          "name": "_approved",
          "type": "string"
        },
        {
          "internalType": "string",
          "name": "extrafields",
          "type": "string"
        }
      ],
      "payable": false,
      "stateMutability": "view",
      "type": "function"
    },
    {
      "constant": true,
      "inputs": [],
      "name": "patientCount",
      "outputs": [
        {
          "internalType": "uint256",
          "name": "",
          "type": "uint256"
        }
      ],
      "payable": false,
      "stateMutability": "view",
      "type": "function"
    },
    {
      "constant": true,
      "inputs": [
        {
          "internalType": "uint256",
          "name": "",
          "type": "uint256"
        }
      ],
      "name": "patients",
      "outputs": [
        {
          "internalType": "uint256",
          "name": "id",
          "type": "uint256"
        },
        {
          "internalType": "address",
          "name": "addr",
          "type": "address"
        },
        {
          "internalType": "string",
          "name": "name",
          "type": "string"
        },
        {
          "internalType": "uint256",
          "name": "insuranceProviderid",
          "type": "uint256"
        },
        {
          "internalType": "uint256",
          "name": "familyDoctorid",
          "type": "uint256"
        },
        {
          "internalType": "string",
          "name": "_approved",
          "type": "string"
        },
        {
          "internalType": "string",
          "name": "extrafields",
          "type": "string"
        },
        {
          "internalType": "string",
          "name": "filehashes",
          "type": "string"
        }
      ],
      "payable": false,
      "stateMutability": "view",
      "type": "function"
    },
    {
      "constant": true,
      "inputs": [
        {
          "internalType": "address",
          "name": "",
          "type": "address"
        }
      ],
      "name": "roles",
      "outputs": [
        {
          "internalType": "string",
          "name": "",
          "type": "string"
        }
      ],
      "payable": false,
      "stateMutability": "view",
      "type": "function"
    },
    {
      "constant": false,
      "inputs": [
        {
          "internalType": "string",
          "name": "_name",
          "type": "string"
        },
        {
          "internalType": "string",
          "name": "_regId",
          "type": "string"
        },
        {
          "internalType": "string",
          "name": "_description",
          "type": "string"
        },
        {
          "internalType": "string",
          "name": "_approved",
          "type": "string"
        },
        {
          "internalType": "string",
          "name": "_extrafields",
          "type": "string"
        }
      ],
      "name": "registerHospital",
      "outputs": [],
      "payable": false,
      "stateMutability": "nonpayable",
      "type": "function"
    },
    {
      "constant": false,
      "inputs": [
        {
          "internalType": "string",
          "name": "_name",
          "type": "string"
        },
        {
          "internalType": "uint256",
          "name": "_hospitalId",
          "type": "uint256"
        },
        {
          "internalType": "string",
          "name": "_regId",
          "type": "string"
        },
        {
          "internalType": "string",
          "name": "_approved",
          "type": "string"
        },
        {
          "internalType": "string",
          "name": "_extrafields",
          "type": "string"
        }
      ],
      "name": "registerDoctor",
      "outputs": [],
      "payable": false,
      "stateMutability": "nonpayable",
      "type": "function"
    },
    {
      "constant": false,
      "inputs": [
        {
          "internalType": "string",
          "name": "_name",
          "type": "string"
        },
        {
          "internalType": "uint256",
          "name": "_insuranceProviderId",
          "type": "uint256"
        },
        {
          "internalType": "uint256",
          "name": "_familyDoctorId",
          "type": "uint256"
        },
        {
          "internalType": "string",
          "name": "_approved",
          "type": "string"
        },
        {
          "internalType": "string",
          "name": "_extrafields",
          "type": "string"
        },
        {
          "internalType": "string",
          "name": "_filehashes",
          "type": "string"
        }
      ],
      "name": "registerPatient",
      "outputs": [],
      "payable": false,
      "stateMutability": "nonpayable",
      "type": "function"
    },
    {
      "constant": false,
      "inputs": [
        {
          "internalType": "string",
          "name": "_name",
          "type": "string"
        },
        {
          "internalType": "string",
          "name": "_regId",
          "type": "string"
        },
        {
          "internalType": "string",
          "name": "_approved",
          "type": "string"
        },
        {
          "internalType": "string",
          "name": "_extrafields",
          "type": "string"
        }
      ],
      "name": "registerInsuranceProvider",
      "outputs": [],
      "payable": false,
      "stateMutability": "nonpayable",
      "type": "function"
    },
    {
      "constant": false,
      "inputs": [
        {
          "internalType": "uint256",
          "name": "_patientid",
          "type": "uint256"
        },
        {
          "internalType": "uint256",
          "name": "_doctorid",
          "type": "uint256"
        },
        {
          "internalType": "string",
          "name": "_date",
          "type": "string"
        },
        {
          "internalType": "string",
          "name": "_time",
          "type": "string"
        }
      ],
      "name": "addAppointment",
      "outputs": [],
      "payable": false,
      "stateMutability": "nonpayable",
      "type": "function"
    },
    {
      "constant": false,
      "inputs": [
        {
          "internalType": "uint256",
          "name": "_patientid",
          "type": "uint256"
        },
        {
          "internalType": "uint256",
          "name": "_doctorid",
          "type": "uint256"
        },
        {
          "internalType": "string",
          "name": "_filehash",
          "type": "string"
        }
      ],
      "name": "addFileSharing",
      "outputs": [],
      "payable": false,
      "stateMutability": "nonpayable",
      "type": "function"
    }
  ],
  "bytecode": "0x608060405260006001556000600255600060035560006004556000600555600060065534801561002e57600080fd5b5033600760006101000a81548173ffffffffffffffffffffffffffffffffffffffff021916908373ffffffffffffffffffffffffffffffffffffffff16021790555061350b8061007f6000396000f3fe608060405234801561001057600080fd5b506004361061012c5760003560e01c806381dc6fd2116100ad578063b18bd12c11610071578063b18bd12c146116f9578063b48c69991461198d578063eebc3fb214611a49578063f253543114611a67578063f851a44014611a855761012c565b806381dc6fd214610f3557806388708845146111c657806393119a83146113eb578063993746421461161e578063a0303c41146116db5761012c565b8063350dadb7116100f4578063350dadb714610a25578063521a6e9414610a435780636efb1b8414610a61578063727acf8a14610c8d57806378522bc414610f175761012c565b806312dc90131461013157806313056749146102595780631c905352146103285780631d0f81681461048e578063283fed0e146107a5575b600080fd5b61015d6004803603602081101561014757600080fd5b8101908080359060200190929190505050611acf565b604051808681526020018581526020018481526020018060200180602001838103835285818151815260200191508051906020019080838360005b838110156101b3578082015181840152602081019050610198565b50505050905090810190601f1680156101e05780820380516001836020036101000a031916815260200191505b50838103825284818151815260200191508051906020019080838360005b838110156102195780820151818401526020810190506101fe565b50505050905090810190601f1680156102465780820380516001836020036101000a031916815260200191505b5097505050505050505060405180910390f35b6103266004803603606081101561026f57600080fd5b810190808035906020019092919080359060200190929190803590602001906401000000008111156102a057600080fd5b8201836020820111156102b257600080fd5b803590602001918460018302840111640100000000831117156102d457600080fd5b91908080601f016020809104026020016040519081016040528093929190818152602001838380828437600081840152601f19601f820116905080830192505050505050509192919290505050611c35565b005b61048c6004803603608081101561033e57600080fd5b8101908080359060200190929190803590602001909291908035906020019064010000000081111561036f57600080fd5b82018360208201111561038157600080fd5b803590602001918460018302840111640100000000831117156103a357600080fd5b91908080601f016020809104026020016040519081016040528093929190818152602001838380828437600081840152601f19601f8201169050808301925050505050505091929192908035906020019064010000000081111561040657600080fd5b82018360208201111561041857600080fd5b8035906020019184600183028401116401000000008311171561043a57600080fd5b91908080601f016020809104026020016040519081016040528093929190818152602001838380828437600081840152601f19601f820116905080830192505050505050509192919290505050611cc2565b005b6107a3600480360360a08110156104a457600080fd5b81019080803590602001906401000000008111156104c157600080fd5b8201836020820111156104d357600080fd5b803590602001918460018302840111640100000000831117156104f557600080fd5b91908080601f016020809104026020016040519081016040528093929190818152602001838380828437600081840152601f19601f8201169050808301925050505050505091929192908035906020019064010000000081111561055857600080fd5b82018360208201111561056a57600080fd5b8035906020019184600183028401116401000000008311171561058c57600080fd5b91908080601f016020809104026020016040519081016040528093929190818152602001838380828437600081840152601f19601f820116905080830192505050505050509192919290803590602001906401000000008111156105ef57600080fd5b82018360208201111561060157600080fd5b8035906020019184600183028401116401000000008311171561062357600080fd5b91908080601f016020809104026020016040519081016040528093929190818152602001838380828437600081840152601f19601f8201169050808301925050505050505091929192908035906020019064010000000081111561068657600080fd5b82018360208201111561069857600080fd5b803590602001918460018302840111640100000000831117156106ba57600080fd5b91908080601f016020809104026020016040519081016040528093929190818152602001838380828437600081840152601f19601f8201169050808301925050505050505091929192908035906020019064010000000081111561071d57600080fd5b82018360208201111561072f57600080fd5b8035906020019184600183028401116401000000008311171561075157600080fd5b91908080601f016020809104026020016040519081016040528093929190818152602001838380828437600081840152601f19601f820116905080830192505050505050509192919290505050611d73565b005b610a23600480360360808110156107bb57600080fd5b81019080803590602001906401000000008111156107d857600080fd5b8201836020820111156107ea57600080fd5b8035906020019184600183028401116401000000008311171561080c57600080fd5b91908080601f016020809104026020016040519081016040528093929190818152602001838380828437600081840152601f19601f8201169050808301925050505050505091929192908035906020019064010000000081111561086f57600080fd5b82018360208201111561088157600080fd5b803590602001918460018302840111640100000000831117156108a357600080fd5b91908080601f016020809104026020016040519081016040528093929190818152602001838380828437600081840152601f19601f8201169050808301925050505050505091929192908035906020019064010000000081111561090657600080fd5b82018360208201111561091857600080fd5b8035906020019184600183028401116401000000008311171561093a57600080fd5b91908080601f016020809104026020016040519081016040528093929190818152602001838380828437600081840152601f19601f8201169050808301925050505050505091929192908035906020019064010000000081111561099d57600080fd5b8201836020820111156109af57600080fd5b803590602001918460018302840111640100000000831117156109d157600080fd5b91908080601f016020809104026020016040519081016040528093929190818152602001838380828437600081840152601f19601f820116905080830192505050505050509192919290505050611fb8565b005b610a2d6121d9565b6040518082815260200191505060405180910390f35b610a4b6121df565b6040518082815260200191505060405180910390f35b610a8d60048036036020811015610a7757600080fd5b81019080803590602001909291905050506121e5565b604051808881526020018773ffffffffffffffffffffffffffffffffffffffff1673ffffffffffffffffffffffffffffffffffffffff1681526020018060200186815260200180602001806020018060200185810385528a818151815260200191508051906020019080838360005b83811015610b17578082015181840152602081019050610afc565b50505050905090810190601f168015610b445780820380516001836020036101000a031916815260200191505b50858103845288818151815260200191508051906020019080838360005b83811015610b7d578082015181840152602081019050610b62565b50505050905090810190601f168015610baa5780820380516001836020036101000a031916815260200191505b50858103835287818151815260200191508051906020019080838360005b83811015610be3578082015181840152602081019050610bc8565b50505050905090810190601f168015610c105780820380516001836020036101000a031916815260200191505b50858103825286818151815260200191508051906020019080838360005b83811015610c49578082015181840152602081019050610c2e565b50505050905090810190601f168015610c765780820380516001836020036101000a031916815260200191505b509b50505050505050505050505060405180910390f35b610f15600480360360a0811015610ca357600080fd5b8101908080359060200190640100000000811115610cc057600080fd5b820183602082011115610cd257600080fd5b80359060200191846001830284011164010000000083111715610cf457600080fd5b91908080601f016020809104026020016040519081016040528093929190818152602001838380828437600081840152601f19601f8201169050808301925050505050505091929192908035906020019092919080359060200190640100000000811115610d6157600080fd5b820183602082011115610d7357600080fd5b80359060200191846001830284011164010000000083111715610d9557600080fd5b91908080601f016020809104026020016040519081016040528093929190818152602001838380828437600081840152601f19601f82011690508083019250505050505050919291929080359060200190640100000000811115610df857600080fd5b820183602082011115610e0a57600080fd5b80359060200191846001830284011164010000000083111715610e2c57600080fd5b91908080601f016020809104026020016040519081016040528093929190818152602001838380828437600081840152601f19601f82011690508083019250505050505050919291929080359060200190640100000000811115610e8f57600080fd5b820183602082011115610ea157600080fd5b80359060200191846001830284011164010000000083111715610ec357600080fd5b91908080601f016020809104026020016040519081016040528093929190818152602001838380828437600081840152601f19601f8201169050808301925050505050505091929192905050506124a7565b005b610f1f6126d9565b6040518082815260200191505060405180910390f35b610f6160048036036020811015610f4b57600080fd5b81019080803590602001909291905050506126df565b604051808881526020018773ffffffffffffffffffffffffffffffffffffffff1673ffffffffffffffffffffffffffffffffffffffff168152602001806020018060200180602001806020018060200186810386528b818151815260200191508051906020019080838360005b83811015610fe9578082015181840152602081019050610fce565b50505050905090810190601f1680156110165780820380516001836020036101000a031916815260200191505b5086810385528a818151815260200191508051906020019080838360005b8381101561104f578082015181840152602081019050611034565b50505050905090810190601f16801561107c5780820380516001836020036101000a031916815260200191505b50868103845289818151815260200191508051906020019080838360005b838110156110b557808201518184015260208101905061109a565b50505050905090810190601f1680156110e25780820380516001836020036101000a031916815260200191505b50868103835288818151815260200191508051906020019080838360005b8381101561111b578082015181840152602081019050611100565b50505050905090810190601f1680156111485780820380516001836020036101000a031916815260200191505b50868103825287818151815260200191508051906020019080838360005b83811015611181578082015181840152602081019050611166565b50505050905090810190601f1680156111ae5780820380516001836020036101000a031916815260200191505b509c5050505050505050505050505060405180910390f35b6111f2600480360360208110156111dc57600080fd5b8101908080359060200190929190505050612a39565b604051808781526020018673ffffffffffffffffffffffffffffffffffffffff1673ffffffffffffffffffffffffffffffffffffffff16815260200180602001806020018060200180602001858103855289818151815260200191508051906020019080838360005b8381101561127657808201518184015260208101905061125b565b50505050905090810190601f1680156112a35780820380516001836020036101000a031916815260200191505b50858103845288818151815260200191508051906020019080838360005b838110156112dc5780820151818401526020810190506112c1565b50505050905090810190601f1680156113095780820380516001836020036101000a031916815260200191505b50858103835287818151815260200191508051906020019080838360005b83811015611342578082015181840152602081019050611327565b50505050905090810190601f16801561136f5780820380516001836020036101000a031916815260200191505b50858103825286818151815260200191508051906020019080838360005b838110156113a857808201518184015260208101905061138d565b50505050905090810190601f1680156113d55780820380516001836020036101000a031916815260200191505b509a505050505050505050505060405180910390f35b6114176004803603602081101561140157600080fd5b8101908080359060200190929190505050612cf5565b604051808981526020018873ffffffffffffffffffffffffffffffffffffffff1673ffffffffffffffffffffffffffffffffffffffff1681526020018060200187815260200186815260200180602001806020018060200185810385528b818151815260200191508051906020019080838360005b838110156114a757808201518184015260208101905061148c565b50505050905090810190601f1680156114d45780820380516001836020036101000a031916815260200191505b50858103845288818151815260200191508051906020019080838360005b8381101561150d5780820151818401526020810190506114f2565b50505050905090810190601f16801561153a5780820380516001836020036101000a031916815260200191505b50858103835287818151815260200191508051906020019080838360005b83811015611573578082015181840152602081019050611558565b50505050905090810190601f1680156115a05780820380516001836020036101000a031916815260200191505b50858103825286818151815260200191508051906020019080838360005b838110156115d95780820151818401526020810190506115be565b50505050905090810190601f1680156116065780820380516001836020036101000a031916815260200191505b509c5050505050505050505050505060405180910390f35b6116606004803603602081101561163457600080fd5b81019080803573ffffffffffffffffffffffffffffffffffffffff169060200190929190505050612fbd565b6040518080602001828103825283818151815260200191508051906020019080838360005b838110156116a0578082015181840152602081019050611685565b50505050905090810190601f1680156116cd5780820380516001836020036101000a031916815260200191505b509250505060405180910390f35b6116e361306d565b6040518082815260200191505060405180910390f35b61198b600480360360c081101561170f57600080fd5b810190808035906020019064010000000081111561172c57600080fd5b82018360208201111561173e57600080fd5b8035906020019184600183028401116401000000008311171561176057600080fd5b91908080601f016020809104026020016040519081016040528093929190818152602001838380828437600081840152601f19601f8201169050808301925050505050505091929192908035906020019092919080359060200190929190803590602001906401000000008111156117d757600080fd5b8201836020820111156117e957600080fd5b8035906020019184600183028401116401000000008311171561180b57600080fd5b91908080601f016020809104026020016040519081016040528093929190818152602001838380828437600081840152601f19601f8201169050808301925050505050505091929192908035906020019064010000000081111561186e57600080fd5b82018360208201111561188057600080fd5b803590602001918460018302840111640100000000831117156118a257600080fd5b91908080601f016020809104026020016040519081016040528093929190818152602001838380828437600081840152601f19601f8201169050808301925050505050505091929192908035906020019064010000000081111561190557600080fd5b82018360208201111561191757600080fd5b8035906020019184600183028401116401000000008311171561193957600080fd5b91908080601f016020809104026020016040519081016040528093929190818152602001838380828437600081840152601f19601f820116905080830192505050505050509192919290505050613073565b005b6119b9600480360360208110156119a357600080fd5b81019080803590602001909291905050506132b7565b6040518085815260200184815260200183815260200180602001828103825283818151815260200191508051906020019080838360005b83811015611a0b5780820151818401526020810190506119f0565b50505050905090810190601f168015611a385780820380516001836020036101000a031916815260200191505b509550505050505060405180910390f35b611a5161337f565b6040518082815260200191505060405180910390f35b611a6f613385565b6040518082815260200191505060405180910390f35b611a8d61338b565b604051808273ffffffffffffffffffffffffffffffffffffffff1673ffffffffffffffffffffffffffffffffffffffff16815260200191505060405180910390f35b600c602052806000526040600020600091509050806000015490806001015490806002015490806003018054600181600116156101000203166002900480601f016020809104026020016040519081016040528092919081815260200182805460018160011615610100020316600290048015611b8d5780601f10611b6257610100808354040283529160200191611b8d565b820191906000526020600020905b815481529060010190602001808311611b7057829003601f168201915b505050505090806004018054600181600116156101000203166002900480601f016020809104026020016040519081016040528092919081815260200182805460018160011615610100020316600290048015611c2b5780601f10611c0057610100808354040283529160200191611c2b565b820191906000526020600020905b815481529060010190602001808311611c0e57829003601f168201915b5050505050905085565b6006600081548092919060010191905055506040518060800160405280600654815260200184815260200183815260200182815250600d600060065481526020019081526020016000206000820151816000015560208201518160010155604082015181600201556060820151816003019080519060200190611cb99291906133b1565b50905050505050565b6005600081548092919060010191905055506040518060a00160405280600554815260200185815260200184815260200183815260200182815250600c600060055481526020019081526020016000206000820151816000015560208201518160010155604082015181600201556060820151816003019080519060200190611d4c9291906133b1565b506080820151816004019080519060200190611d699291906133b1565b5090505050505050565b60008060003373ffffffffffffffffffffffffffffffffffffffff1673ffffffffffffffffffffffffffffffffffffffff16815260200190815260200160002080546001816001161561010002031660029004905014611dd257600080fd5b6001600081548092919060010191905055506040518060e0016040528060015481526020013373ffffffffffffffffffffffffffffffffffffffff168152602001868152602001858152602001848152602001838152602001828152506008600060015481526020019081526020016000206000820151816000015560208201518160010160006101000a81548173ffffffffffffffffffffffffffffffffffffffff021916908373ffffffffffffffffffffffffffffffffffffffff1602179055506040820151816002019080519060200190611eb19291906133b1565b506060820151816003019080519060200190611ece9291906133b1565b506080820151816004019080519060200190611eeb9291906133b1565b5060a0820151816005019080519060200190611f089291906133b1565b5060c0820151816006019080519060200190611f259291906133b1565b509050506040518060400160405280600181526020017f31000000000000000000000000000000000000000000000000000000000000008152506000803373ffffffffffffffffffffffffffffffffffffffff1673ffffffffffffffffffffffffffffffffffffffff1681526020019081526020016000209080519060200190611fb0929190613431565b505050505050565b60008060003373ffffffffffffffffffffffffffffffffffffffff1673ffffffffffffffffffffffffffffffffffffffff1681526020019081526020016000208054600181600116156101000203166002900490501461201757600080fd5b6003600081548092919060010191905055506040518060c0016040528060035481526020013373ffffffffffffffffffffffffffffffffffffffff16815260200185815260200184815260200183815260200182815250600a600060035481526020019081526020016000206000820151816000015560208201518160010160006101000a81548173ffffffffffffffffffffffffffffffffffffffff021916908373ffffffffffffffffffffffffffffffffffffffff16021790555060408201518160020190805190602001906120f09291906133b1565b50606082015181600301908051906020019061210d9291906133b1565b50608082015181600401908051906020019061212a9291906133b1565b5060a08201518160050190805190602001906121479291906133b1565b509050506040518060400160405280600181526020017f34000000000000000000000000000000000000000000000000000000000000008152506000803373ffffffffffffffffffffffffffffffffffffffff1673ffffffffffffffffffffffffffffffffffffffff16815260200190815260200160002090805190602001906121d2929190613431565b5050505050565b60015481565b60035481565b60096020528060005260406000206000915090508060000154908060010160009054906101000a900473ffffffffffffffffffffffffffffffffffffffff1690806002018054600181600116156101000203166002900480601f0160208091040260200160405190810160405280929190818152602001828054600181600116156101000203166002900480156122bd5780601f10612292576101008083540402835291602001916122bd565b820191906000526020600020905b8154815290600101906020018083116122a057829003601f168201915b505050505090806003015490806004018054600181600116156101000203166002900480601f0160208091040260200160405190810160405280929190818152602001828054600181600116156101000203166002900480156123615780601f1061233657610100808354040283529160200191612361565b820191906000526020600020905b81548152906001019060200180831161234457829003601f168201915b505050505090806005018054600181600116156101000203166002900480601f0160208091040260200160405190810160405280929190818152602001828054600181600116156101000203166002900480156123ff5780601f106123d4576101008083540402835291602001916123ff565b820191906000526020600020905b8154815290600101906020018083116123e257829003601f168201915b505050505090806006018054600181600116156101000203166002900480601f01602080910402602001604051908101604052809291908181526020018280546001816001161561010002031660029004801561249d5780601f106124725761010080835404028352916020019161249d565b820191906000526020600020905b81548152906001019060200180831161248057829003601f168201915b5050505050905087565b60008060003373ffffffffffffffffffffffffffffffffffffffff1673ffffffffffffffffffffffffffffffffffffffff1681526020019081526020016000208054600181600116156101000203166002900490501461250657600080fd5b6002600081548092919060010191905055506040518060e0016040528060025481526020013373ffffffffffffffffffffffffffffffffffffffff168152602001868152602001858152602001848152602001838152602001828152506009600060025481526020019081526020016000206000820151816000015560208201518160010160006101000a81548173ffffffffffffffffffffffffffffffffffffffff021916908373ffffffffffffffffffffffffffffffffffffffff16021790555060408201518160020190805190602001906125e59291906133b1565b5060608201518160030155608082015181600401908051906020019061260c9291906133b1565b5060a08201518160050190805190602001906126299291906133b1565b5060c08201518160060190805190602001906126469291906133b1565b509050506040518060400160405280600181526020017f32000000000000000000000000000000000000000000000000000000000000008152506000803373ffffffffffffffffffffffffffffffffffffffff1673ffffffffffffffffffffffffffffffffffffffff16815260200190815260200160002090805190602001906126d1929190613431565b505050505050565b60025481565b60086020528060005260406000206000915090508060000154908060010160009054906101000a900473ffffffffffffffffffffffffffffffffffffffff1690806002018054600181600116156101000203166002900480601f0160208091040260200160405190810160405280929190818152602001828054600181600116156101000203166002900480156127b75780601f1061278c576101008083540402835291602001916127b7565b820191906000526020600020905b81548152906001019060200180831161279a57829003601f168201915b505050505090806003018054600181600116156101000203166002900480601f0160208091040260200160405190810160405280929190818152602001828054600181600116156101000203166002900480156128555780601f1061282a57610100808354040283529160200191612855565b820191906000526020600020905b81548152906001019060200180831161283857829003601f168201915b505050505090806004018054600181600116156101000203166002900480601f0160208091040260200160405190810160405280929190818152602001828054600181600116156101000203166002900480156128f35780601f106128c8576101008083540402835291602001916128f3565b820191906000526020600020905b8154815290600101906020018083116128d657829003601f168201915b505050505090806005018054600181600116156101000203166002900480601f0160208091040260200160405190810160405280929190818152602001828054600181600116156101000203166002900480156129915780601f1061296657610100808354040283529160200191612991565b820191906000526020600020905b81548152906001019060200180831161297457829003601f168201915b505050505090806006018054600181600116156101000203166002900480601f016020809104026020016040519081016040528092919081815260200182805460018160011615610100020316600290048015612a2f5780601f10612a0457610100808354040283529160200191612a2f565b820191906000526020600020905b815481529060010190602001808311612a1257829003601f168201915b5050505050905087565b600a6020528060005260406000206000915090508060000154908060010160009054906101000a900473ffffffffffffffffffffffffffffffffffffffff1690806002018054600181600116156101000203166002900480601f016020809104026020016040519081016040528092919081815260200182805460018160011615610100020316600290048015612b115780601f10612ae657610100808354040283529160200191612b11565b820191906000526020600020905b815481529060010190602001808311612af457829003601f168201915b505050505090806003018054600181600116156101000203166002900480601f016020809104026020016040519081016040528092919081815260200182805460018160011615610100020316600290048015612baf5780601f10612b8457610100808354040283529160200191612baf565b820191906000526020600020905b815481529060010190602001808311612b9257829003601f168201915b505050505090806004018054600181600116156101000203166002900480601f016020809104026020016040519081016040528092919081815260200182805460018160011615610100020316600290048015612c4d5780601f10612c2257610100808354040283529160200191612c4d565b820191906000526020600020905b815481529060010190602001808311612c3057829003601f168201915b505050505090806005018054600181600116156101000203166002900480601f016020809104026020016040519081016040528092919081815260200182805460018160011615610100020316600290048015612ceb5780601f10612cc057610100808354040283529160200191612ceb565b820191906000526020600020905b815481529060010190602001808311612cce57829003601f168201915b5050505050905086565b600b6020528060005260406000206000915090508060000154908060010160009054906101000a900473ffffffffffffffffffffffffffffffffffffffff1690806002018054600181600116156101000203166002900480601f016020809104026020016040519081016040528092919081815260200182805460018160011615610100020316600290048015612dcd5780601f10612da257610100808354040283529160200191612dcd565b820191906000526020600020905b815481529060010190602001808311612db057829003601f168201915b505050505090806003015490806004015490806005018054600181600116156101000203166002900480601f016020809104026020016040519081016040528092919081815260200182805460018160011615610100020316600290048015612e775780601f10612e4c57610100808354040283529160200191612e77565b820191906000526020600020905b815481529060010190602001808311612e5a57829003601f168201915b505050505090806006018054600181600116156101000203166002900480601f016020809104026020016040519081016040528092919081815260200182805460018160011615610100020316600290048015612f155780601f10612eea57610100808354040283529160200191612f15565b820191906000526020600020905b815481529060010190602001808311612ef857829003601f168201915b505050505090806007018054600181600116156101000203166002900480601f016020809104026020016040519081016040528092919081815260200182805460018160011615610100020316600290048015612fb35780601f10612f8857610100808354040283529160200191612fb3565b820191906000526020600020905b815481529060010190602001808311612f9657829003601f168201915b5050505050905088565b60006020528060005260406000206000915090508054600181600116156101000203166002900480601f0160208091040260200160405190810160405280929190818152602001828054600181600116156101000203166002900480156130655780601f1061303a57610100808354040283529160200191613065565b820191906000526020600020905b81548152906001019060200180831161304857829003601f168201915b505050505081565b60045481565b60008060003373ffffffffffffffffffffffffffffffffffffffff1673ffffffffffffffffffffffffffffffffffffffff168152602001908152602001600020805460018160011615610100020316600290049050146130d257600080fd5b60046000815480929190600101919050555060405180610100016040528060045481526020013373ffffffffffffffffffffffffffffffffffffffff16815260200187815260200186815260200185815260200184815260200183815260200182815250600b600060045481526020019081526020016000206000820151816000015560208201518160010160006101000a81548173ffffffffffffffffffffffffffffffffffffffff021916908373ffffffffffffffffffffffffffffffffffffffff16021790555060408201518160020190805190602001906131b89291906133b1565b50606082015181600301556080820151816004015560a08201518160050190805190602001906131e99291906133b1565b5060c08201518160060190805190602001906132069291906133b1565b5060e08201518160070190805190602001906132239291906133b1565b509050506040518060400160405280600181526020017f33000000000000000000000000000000000000000000000000000000000000008152506000803373ffffffffffffffffffffffffffffffffffffffff1673ffffffffffffffffffffffffffffffffffffffff16815260200190815260200160002090805190602001906132ae929190613431565b50505050505050565b600d602052806000526040600020600091509050806000015490806001015490806002015490806003018054600181600116156101000203166002900480601f0160208091040260200160405190810160405280929190818152602001828054600181600116156101000203166002900480156133755780601f1061334a57610100808354040283529160200191613375565b820191906000526020600020905b81548152906001019060200180831161335857829003601f168201915b5050505050905084565b60055481565b60065481565b600760009054906101000a900473ffffffffffffffffffffffffffffffffffffffff1681565b828054600181600116156101000203166002900490600052602060002090601f016020900481019282601f106133f257805160ff1916838001178555613420565b82800160010185558215613420579182015b8281111561341f578251825591602001919060010190613404565b5b50905061342d91906134b1565b5090565b828054600181600116156101000203166002900490600052602060002090601f016020900481019282601f1061347257805160ff19168380011785556134a0565b828001600101855582156134a0579182015b8281111561349f578251825591602001919060010190613484565b5b5090506134ad91906134b1565b5090565b6134d391905b808211156134cf5760008160009055506001016134b7565b5090565b9056fea265627a7a7231582053e316851943f3fb916ae3646016ae92a6fad344e11aac998e97e086659dac2264736f6c63430005100032",
  "source": "\r\npragma solidity >=0.4.22 <0.8.0;\r\ncontract HealthCare { \r\n  mapping(address => string) public roles; \r\n  uint public hospitalCount = 0;\r\n  uint public doctorCount = 0;\r\n  uint public insuranceCount = 0;\r\n  uint public patientCount = 0;\r\n  uint public appointmentCount = 0;\r\n  uint public fileSharingCount = 0;\r\n  address public admin; \r\n  struct Hospital {\r\n    uint id;\r\n    address addr;\r\n    string name;\r\n    string regId;    \r\n    string description;\r\n    string _approved;\r\n    string extrafields;\r\n  }\r\n  mapping(uint => Hospital) public hospitals;\r\n  struct Doctor {\r\n    uint id;\r\n    address addr;\r\n    string name;\r\n    uint hospitalid;\r\n    string regId;   \r\n    string _approved;\r\n    string extrafields;\r\n  }\r\n  mapping(uint => Doctor) public doctors;\r\n  struct InsuranceProvider {\r\n    uint id;\r\n    address addr;\r\n    string name;    \r\n    string regId;   \r\n    string _approved;\r\n    string extrafields;\r\n  }\r\n  mapping(uint => InsuranceProvider) public insuranceproviders ;\r\n  struct Patient {\r\n    uint id;\r\n    address addr;\r\n    string name;    \r\n    uint insuranceProviderid;   \r\n    uint familyDoctorid; \r\n    string _approved;\r\n    string extrafields;\r\n    string filehashes;\r\n  }\r\n  mapping(uint => Patient) public patients;\r\n  struct Appointment {\r\n    uint id;       \r\n    uint patientid;   \r\n    uint doctorid;     \r\n    string date; \r\n    string time;   \r\n  }\r\n  mapping(uint => Appointment) public appointments;\r\n  struct FileSharing {\r\n    uint id;       \r\n    uint patientid;   \r\n    uint doctorid;     \r\n    string filehash;      \r\n  }\r\n  mapping(uint => FileSharing) public filesharings;\r\n  constructor() public {  \r\n    admin=msg.sender;    \r\n  }\r\n  function registerHospital (string memory _name,string memory _regId,string memory _description,string memory _approved,string memory _extrafields) public {\r\n        require(bytes(roles[msg.sender]).length==0);\r\n        hospitalCount ++;\r\n        hospitals[hospitalCount] = Hospital(hospitalCount,msg.sender,_name,_regId,_description,_approved,_extrafields);    \r\n        roles[msg.sender]=\"1\";   \r\n        //emit registeredEvent(msg.sender);\r\n    } \r\n  function registerDoctor (string memory _name,uint _hospitalId,string memory _regId,string memory _approved,string memory _extrafields) public {\r\n        require(bytes(roles[msg.sender]).length==0);\r\n        doctorCount ++;\r\n        doctors[doctorCount] = Doctor(doctorCount,msg.sender,_name,_hospitalId,_regId,_approved,_extrafields);    \r\n        roles[msg.sender]=\"2\";   \r\n        //emit registeredEvent(msg.sender);\r\n    } \r\n     function registerPatient (string memory _name,uint _insuranceProviderId,uint _familyDoctorId,string memory _approved,string memory _extrafields,string memory _filehashes) public {\r\n        require(bytes(roles[msg.sender]).length==0);\r\n        patientCount ++;\r\n        patients[patientCount] = Patient(patientCount,msg.sender,_name,_insuranceProviderId,_familyDoctorId,_approved,_extrafields,_filehashes);    \r\n        roles[msg.sender]=\"3\";   \r\n        //emit registeredEvent(msg.sender);\r\n    } \r\n    function registerInsuranceProvider (string memory _name,string memory _regId,string memory _approved,string memory _extrafields) public {\r\n        require(bytes(roles[msg.sender]).length==0);\r\n        insuranceCount ++;\r\n        insuranceproviders[insuranceCount] = InsuranceProvider(insuranceCount,msg.sender,_name,_regId,_approved,_extrafields);    \r\n        roles[msg.sender]=\"4\";   \r\n        //emit registeredEvent(msg.sender);\r\n    } \r\n    function addAppointment (uint _patientid,uint _doctorid,string memory _date,string memory _time ) public {\r\n        //require(bytes(roles[msg.sender]).length==0);\r\n        appointmentCount ++;\r\n        appointments[appointmentCount] = Appointment(appointmentCount,_patientid,_doctorid,_date,_time);    \r\n        \r\n        //emit registeredEvent(msg.sender);\r\n    } \r\n    function addFileSharing (uint _patientid,uint _doctorid,string memory _filehash ) public {\r\n        //require(bytes(roles[msg.sender]).length==0);\r\n        fileSharingCount ++;\r\n        filesharings[fileSharingCount] = FileSharing(fileSharingCount,_patientid,_doctorid,_filehash);    \r\n        \r\n        //emit registeredEvent(msg.sender);\r\n    } \r\n}\r\n",
  "sourcePath": "F:/SharanBlockchain/contracts/HealthCare.sol",
  "compiler": {
    "name": "solc",
    "version": "0.5.16+commit.9c3226ce.Emscripten.clang"
  },
  "schemaVersion": "3.3.3",
  "updatedAt": "2021-03-01T17:40:05.433Z",
  "networkType": "ethereum",
  "devdoc": {
    "methods": {}
  },
  "userdoc": {
    "methods": {}
  }
}